:100000000C942A000C9447000C9447000C94470071
:100010000C94580D0C94ED0C0C9447000C94470074
:100020000C9447000C9447000C94A7090C943C09CD
:100030000C9447000C9447000C9447000C94470024
:100040000C9447000C9447000C9447000C94470014
:100050000C94470011241FBECFE5D8E0DEBFCDBF12
:1000600011E0A0E6B0E0E0E6F4E302C005900D92F6
:10007000A239B107D9F711E0A2E9B1E001C01D92A0
:10008000AA3BB107E1F70E949F170C942E1A0C941B
:100090000000EF92FF920F931F937B018C0120E0F1
:1000A00030E040E05FE40E94F50388238CF0C80153
:1000B000B70120E030E040E05FE40E94C1010E940F
:1000C00085049B01AC01205030404040504806C0A0
:1000D000C801B7010E9485049B01AC01B901CA01A6
:1000E0001F910F91FF90EF900895A0E0B0E0EBE733
:1000F000F0E00C94C619DC012B01FA019C919230BE
:1001000008F439C1EB018881823008F433C194309E
:1001100069F4843009F02FC111969C91119789815F
:10012000981709F428C1A1E7B0E025C1843009F48B
:1001300021C18230A9F4923009F01DC19A01AD01AC
:1001400088E0EA010990AE01E90109929E0181501F
:10015000C1F7E201898111969C918923818308C1AD
:10016000923009F407C112962D903C901397EB0141
:100170008A819B811496AD90BD90CD90DC901797AD
:10018000EC80FD800E811F819101281B390BB90184
:1001900037FF04C066277727621B730B6032710537
:1001A0000CF061C0121613066CF537014801062EDB
:1001B00004C096948794779467940A94D2F721E0C8
:1001C00030E040E050E004C0220F331F441F551FB1
:1001D0006A95D2F721503040404050402E213F21B7
:1001E00040235123211531054105510521F021E01E
:1001F00030E040E050E079018A01E628F72808293C
:1002000019293CC0232BD1F1260E371E350146019A
:10021000062E04C096948794779467940A94D2F734
:1002200021E030E040E050E004C0220F331F441FC3
:10023000551F6A95D2F721503040404050402A2146
:100240003B214C215D21211531054105510521F04E
:1002500021E030E040E050E059016A01A628B728CB
:10026000C828D9280BC0821593052CF01C01AA249C
:10027000BB24650103C0EE24FF24870111969C91E5
:10028000D20111968C91981709F445C0992339F041
:10029000A80197012A193B094C095D0906C0A6016E
:1002A00095012E193F09400B510B57FD08C01182D3
:1002B0003382228224833583468357831DC081E0A5
:1002C00081833382228288279927DC01821B930B4A
:1002D000A40BB50B84839583A683B7830DC0220F2F
:1002E000331F441F551F24833583468357838281E0
:1002F000938101979383828324813581468157813D
:10030000DA01C9010197A109B1098F5F9F4FAF4F72
:10031000BF4328F30BC0918333822282EA0CFB1C7B
:100320000C1D1D1DE482F5820683178383E0808304
:10033000248135814681578157FF1AC0C901AA27F8
:1003400097FDA095BA2F81709070A070B0705695EF
:10035000479537952795822B932BA42BB52B848318
:100360009583A683B7838281938101969383828349
:10037000DF0101C0D201CD01CDB7DEB7E2E10C94BF
:10038000E219A0E2B0E0E7ECF1E00C94D219698345
:100390007A838B839C832D833E834F835887E9E048
:1003A000EE2EF12CEC0EFD1ECE010196B7010E943F
:1003B00076068E010F5E1F4FCE010596B8010E9492
:1003C00076068A8991E089278A8BC701B801AE0138
:1003D000475E5F4F0E9475000E94A105A096E6E06F
:1003E0000C94EE19A0E2B0E0E8EFF1E00C94D21921
:1003F00069837A838B839C832D833E834F835887C5
:10040000F9E0EF2EF12CEC0EFD1ECE010196B701A6
:100410000E9476068E010F5E1F4FCE010596B80131
:100420000E947606C701B801AE01475E5F4F0E9489
:1004300075000E94A105A096E6E00C94EE19A0E2DA
:10044000B0E0E5E2F2E00C94C61969837A838B830D
:100450009C832D833E834F835887CE010196BE0136
:10046000675F7F4F0E947606CE010596BE016F5EE4
:100470007F4F0E9476069985923088F08989823074
:10048000C8F0943019F4823051F404C0843029F457
:10049000923081F481E790E0C6C0923049F420E0C8
:1004A0009A858A89981321E02A87CE010996BBC0D4
:1004B000823049F420E09A858A89981321E02A8BBA
:1004C000CE014196B0C02D843E844F8458886D88FB
:1004D0007E888F88988CEE24FF248701AA24BB2471
:1004E000650140E050E060E070E0E0E0F0E0C10174
:1004F00081709070892BE9F0E60CF71C081D191D1E
:100500009A01AB012A0D3B1D4C1D5D1D80E090E062
:10051000A0E0B0E0E614F7040805190520F481E036
:1005200090E0A0E0B0E0BA01A901480F591F6A1F8E
:100530007B1FAA0CBB1CCC1CDD1C97FE08C081E0F5
:1005400090E0A0E0B0E0A82AB92ACA2ADB2A3196B6
:10055000E032F10549F0660C771C881C991C569412
:10056000479437942794C3CFFA85EA892B893C892D
:100570008B859C85280F391F2E5F3F4F17C0CA01FE
:1005800081709070892B61F016950795F794E79428
:1005900080E090E0A0E0B0E8E82AF92A0A2B1B2BC3
:1005A00076956795579547952F5F3F4F77FDE7CF36
:1005B0000CC0440F551F661F771F17FD4160EE0CDE
:1005C000FF1C001F111F21503040403090E05907A0
:1005D00090E0690790E4790760F32B8F3C8FDB0193
:1005E000CA018F779070A070B07080349105A1051A
:1005F000B10561F447FD0AC0E114F10401051105DC
:1006000029F0405C5F4F6F4F7F4F40781A8EFE1786
:1006100011F081E08A8F4D8F5E8F6F8F78A383E01A
:10062000898FCE0149960E94A105A096E2E10C9423
:10063000E219A8E1B0E0EFE1F3E00C94CE19698390
:100640007A838B839C832D833E834F835887B9E0C5
:10065000EB2EF12CEC0EFD1ECE010196B7010E948F
:1006600076068E010F5E1F4FCE010596B8010E94DF
:1006700076062985223008F47EC03989323010F49C
:10068000B8017CC08A859A8989278A87243011F02D
:10069000223031F4231709F06EC061E770E06EC0BC
:1006A000343039F41D861E861F86188A1C861B86E8
:1006B00004C0323021F484E08987B7015FC02B8504
:1006C0003C858B899C89281B390B3C872B87ED84C3
:1006D000FE840F851889AD88BE88CF88D88CEA142F
:1006E000FB040C051D0540F4EE0CFF1C001F111F40
:1006F000215030403C872B8720E030E040E050E044
:1007000080E090E0A0E0B0E460E070E0EA14FB0478
:100710000C051D0540F0282B392B4A2B5B2BEA18C2
:10072000FB080C091D09B695A79597958795EE0CC2
:10073000FF1C001F111F6F5F7F4F6F31710531F775
:10074000DA01C9018F779070A070B0708034910584
:10075000A105B10561F427FD0AC0E114F10401050A
:10076000110529F0205C3F4F4F4F5F4F20782D87B8
:100770003E874F87588BBE01675F7F4FCB010E943A
:10078000A1056896EAE00C94EA19A8E1B0E0EBEC68
:10079000F3E00C94D21969837A838B839C832D8335
:1007A0003E834F83588789E0E82EF12CEC0EFD1E26
:1007B000CE010196B7010E9476068E010F5E1F4F93
:1007C000CE010596B8010E9476068985823040F0F8
:1007D0008989823028F0C701B8010E94EE0601C065
:1007E0008FEF6896E6E00C94EE19A8E1B0E0EBEF2D
:1007F000F3E00C94D21969837A838B839C832D83D5
:100800003E834F83588789E0E82EF12CEC0EFD1EC5
:10081000CE010196B7010E9476068E010F5E1F4F32
:10082000CE010596B8010E9476068985823040F097
:100830008989823028F0C701B8010E94EE0601C004
:100840008FEF6896E6E00C94EE19A8E1B0E0EBE2D9
:10085000F4E00C94D21969837A838B839C832D8373
:100860003E834F83588789E0E82EF12CEC0EFD1E65
:10087000CE010196B7010E9476068E010F5E1F4FD2
:10088000CE010596B8010E9476068985823040F037
:100890008989823028F0C701B8010E94EE0601C0A4
:1008A00081E06896E6E00C94EE19A8E1B0E0EBE593
:1008B000F4E00C94D21969837A838B839C832D8313
:1008C0003E834F83588789E0E82EF12CEC0EFD1E05
:1008D000CE010196B7010E9476068E010F5E1F4F72
:1008E000CE010596B8010E9476068985823040F0D7
:1008F0008989823028F0C701B8010E94EE0601C044
:1009000081E06896E6E00C94EE19ACE0B0E0EBE82C
:10091000F4E00C94D61969837A838B839C83CE018F
:100920000196BE016B5F7F4F0E9476068D818230FB
:1009300061F1823050F1843021F48E81882351F1AD
:100940002EC02F81388537FD20C06E812F313105B3
:100950001CF06623F9F023C08EE190E0821B930B1C
:1009600029853A854B855C8504C056954795379512
:1009700027958A95D2F76623B1F05095409530952A
:1009800021953F4F4F4F5F4F0EC020E030E040E0D9
:1009900050E009C02FEF3FEF4FEF5FE704C020E0CA
:1009A00030E040E050E8B901CA012C96E2E00C9436
:1009B000F219A8E0B0E0EFEDF4E00C94CE197B0161
:1009C0008C01611571058105910519F482E0898317
:1009D00060C083E089838EE1C82ED12CDC82CB827B
:1009E000ED82FE820F831887C801B7010E9452056D
:1009F000FC013197F7FF3BC0222733272E1B3F0B0B
:100A000057016801022E04C0D694C794B794A794E6
:100A10000A94D2F740E050E060E070E081E090E0BE
:100A2000A0E0B0E004C0880F991FAA1FBB1F2A9541
:100A3000D2F70197A109B1098E219F21A023B123EB
:100A40000097A105B10521F041E050E060E070E0C1
:100A50004A295B296C297D294D835E836F837887C2
:100A60008EE190E08E1B9F0B9C838B8312C030978E
:100A700081F00E2E04C0EE0CFF1C001F111F0A9403
:100A8000D2F7ED82FE820F831887CE1ADF0ADC824E
:100A9000CB821A82CE0101960E94A1052896EAE037
:100AA0000C94EA19EF92FF920F931F937B018C0134
:100AB00080E0E81680E0F80681E0080780E018078B
:100AC00088F48FEFE816F1040105110531F028F0E4
:100AD00088E090E0A0E0B0E017C080E090E0A0E007
:100AE000B0E012C080E0E81680E0F80680E0080779
:100AF00081E0180728F088E190E0A0E0B0E004C0B1
:100B000080E190E0A0E0B0E020E230E040E050E0A2
:100B1000281B390B4A0B5B0B04C016950795F794FD
:100B2000E7948A95D2F7F701E758FF4F8081281B99
:100B3000310941095109C9011F910F91FF90EF90AF
:100B40000895DF92EF92FF920F931F93FC01E480D0
:100B5000F58006811781D1808081823048F480E061
:100B600090E0A0E1B0E0E82AF92A0A2B1B2BA5C0EF
:100B7000843009F49FC0823021F4EE24FF248701E1
:100B800005C0E114F1040105110519F4E0E0F0E0FD
:100B900096C0628173819FEF623879070CF05BC069
:100BA00022E83FEF261B370B2A3131052CF020E0DD
:100BB00030E040E050E02AC0B801A701022E04C096
:100BC00076956795579547950A94D2F781E090E01E
:100BD000A0E0B0E004C0880F991FAA1FBB1F2A9590
:100BE000D2F70197A109B1098E219F21A023B1233A
:100BF0000097A105B10521F081E090E0A0E0B0E010
:100C00009A01AB01282B392B4A2B5B2BDA01C90146
:100C10008F779070A070B07080349105A105B105F8
:100C200039F427FF09C0205C3F4F4F4F5F4F04C08E
:100C3000215C3F4F4F4F5F4FE0E0F0E02030A0E0FD
:100C40003A07A0E04A07A0E45A0710F0E1E0F0E01C
:100C500079018A0127C06038710564F5FB01E1580C
:100C6000FF4FD801C7018F779070A070B0708034AB
:100C70009105A105B10539F4E7FE0DC080E490E0CF
:100C8000A0E0B0E004C08FE390E0A0E0B0E0E80EA8
:100C9000F91E0A1F1B1F17FF05C016950795F7942D
:100CA000E794319687E016950795F794E7948A952F
:100CB000D1F705C0EE24FF248701EFEFF0E06E2F9F
:100CC000679566276795902F9F77D794DD24D794F3
:100CD0008E2F8695492F462B582F5D29B701CA01C3
:100CE0001F910F91FF90EF90DF900895FC01DB01C1
:100CF000408151812281622F6F7770E0221F22276D
:100D0000221F9381892F880F822B282F30E0991F73
:100D10009927991F11969C93119721153105A9F5D3
:100D2000411551056105710511F482E037C082E873
:100D30009FEF13969C938E9312979A01AB0167E0F5
:100D4000220F331F441F551F6A95D1F783E08C9300
:100D50000DC0220F331F441F551F12968D919C9179
:100D60001397019713969C938E931297203080E0EF
:100D7000380780E0480780E4580758F314962D930D
:100D80003D934D935C93179708952F3F310579F468
:100D9000411551056105710519F484E08C9308959E
:100DA00064FF03C081E08C9312C01C9210C02F57C7
:100DB000304013963C932E93129783E08C9387E0F8
:100DC000440F551F661F771F8A95D1F770641496DC
:100DD0004D935D936D937C93179708951F93DC015A
:100DE000FB019C91923008F447C08081823008F466
:100DF00043C0943051F411961C91843099F581814F
:100E0000682F70E0611B71093FC0843021F092307F
:100E100031F48230B9F18181882389F12DC0119696
:100E20001C9111978230F1F081811817D9F4129634
:100E30002D913C911397828193818217930794F0AF
:100E400028173907BCF014968D919D910D90BC9197
:100E5000A02D2481358146815781281739074A07FB
:100E60005B0718F4112341F00AC082179307A40707
:100E7000B50740F4112319F061E070E005C06FEF91
:100E80007FEF02C060E070E0CB011F910895DF9317
:100E9000CF93CDB7DEB7A3E5B0E0E3E5F0E0808126
:100EA0008F7B8C93A3E5B0E0E3E5F0E08081877F62
:100EB0008C93A9E5B0E0E9E5F0E0808181608C9356
:100EC000A3E5B0E0E3E5F0E08081887F84608C9367
:100ED000CF91DF910895EF92FF920F931F93DF93CD
:100EE000CF93CDB7DEB761970FB6F894DEBF0FBED4
:100EF000CDBF6E877F87888B998B1092AF010E9440
:100F0000470780E090E0A0E0BEE38A879B87AC873C
:100F1000BD876A857B858C859D8520E030E040E833
:100F200053E40E941F02DC01CB01BC01CD0120E093
:100F300030E040E853E40E941F02DC01CB018A87C5
:100F40009B87AC87BD878E859F85A889B98928EE48
:100F500033E040E050E0BC01CD010E945E19DC01AD
:100F6000CB01BC01CD010E94D904DC01CB01BC0145
:100F7000CD012A853B854C855D850E945504181658
:100F80000CF449C06E857F85888999890E94D904AF
:100F90007B018C016A857B858C859D8520E030E016
:100FA0004AE754E40E941903DC01CB019C01AD0126
:100FB000C801B7010E941903DC01CB018E839F8316
:100FC000A887B9876E817F818885998520E030E088
:100FD00040E853E40E941F02DC01CB01BC01CD01BB
:100FE0000E944900DC01CB01898381E090E0A0E010
:100FF000B0E08093AB019093AC01A093AD01B093AE
:10100000AE01898181958093AA01E2E5F0E08091AB
:10101000AA0180837FC06E857F85888999890E9417
:10102000D9047B018C016A857B858C859D8520E0B8
:1010300030E04AE754E40E941903DC01CB019C0133
:10104000AD01C801B7010E941903DC01CB018E83F9
:101050009F83A887B9876E857F85888999890E9433
:10106000D9047B018C016A857B858C859D8520E078
:1010700030E04AE754E40E941903DC01CB019C01F3
:10108000AD01C801B7010E941903DC01CB01BC010D
:10109000CD010E944900DC01CB018A839B83AC8394
:1010A000BD836A817B818C819D810E94D9049B01D3
:1010B000AC016E817F81888599850E94C101DC0128
:1010C000CB01BC01CD0120E030E040E853E40E94B8
:1010D0001F02DC01CB01BC01CD010E944900DC01F3
:1010E000CB0189838A819B81AC81BD810196A11D41
:1010F000B11D8093AB019093AC01A093AD01B0936F
:10110000AE01898181958093AA01E2E5F0E08091AA
:10111000AA018083E8E5F0E08081882F90E081706B
:101120009070009721F48091AF01882399F3619624
:101130000FB6F894DEBF0FBECDBFCF91DF911F91E8
:101140000F91FF90EF900895DF93CF9300D0CDB72C
:10115000DEB79A83898389819A81909393018093E2
:1011600092010F900F90CF91DF910895DF93CF936D
:10117000CDB7DEB7A3E5B0E0E3E5F0E080818F7B9B
:101180008C93A3E5B0E0E3E5F0E0808188608C9388
:10119000A9E5B0E0E9E5F0E0808182608C93A3E509
:1011A000B0E0E3E5F0E08081887F84608C93CF91AC
:1011B000DF910895DF93CF9300D000D00F92CDB789
:1011C000DEB789834A835B836C837D831092AF0192
:1011D0008A819B81AC81BD818093AB019093AC01EE
:1011E000A093AD01B093AE018A819B81AC81BD819A
:1011F00081309105A105B10529F4ECE5F0E0898184
:10120000808310C08A819B81AC81BD818230910531
:10121000A105B10538F089818093AA01ECE5F0E0E1
:101220008FEF80830E94B608E8E5F0E08081869524
:10123000882F90E081709070009721F48091AF0129
:10124000882391F30F900F900F900F900F90CF91F4
:10125000DF910895DF93CF9300D0CDB7DEB79A83A7
:10126000898389819A8190939501809394010F904D
:101270000F90CF91DF9108951F920F920FB60F92AA
:1012800011242F933F934F935F936F937F938F938B
:101290009F93AF93BF93EF93FF93DF93CF93CDB71C
:1012A000DEB780919A0190919B01A0919C01B09131
:1012B0009D010196A11DB11D80939A0190939B0100
:1012C000A0939C01B0939D0120919A0130919B01C4
:1012D00040919C0150919D018091AB019091AC0196
:1012E000A091AD01B091AE01281739074A075B07FD
:1012F000D9F410929A0110929B0110929C011092C5
:101300009D01E2E5F0E08091AA0180838091920145
:1013100090919301009729F0E0919201F09193014F
:10132000099581E08093AF01CF91DF91FF91EF911B
:10133000BF91AF919F918F917F916F915F914F91ED
:101340003F912F910F900FBE0F901F9018951F92F5
:101350000F920FB60F9211242F933F934F935F93E9
:101360006F937F938F939F93AF93BF93EF93FF936D
:10137000DF93CF93CDB7DEB780919E0190919F010F
:10138000A091A001B091A1010196A11DB11D809372
:101390009E0190939F01A093A001B093A101209181
:1013A000AB013091AC014091AD015091AE01809103
:1013B0009E0190919F01A091A001B091A1012817D9
:1013C00039074A075B07B9F4809194019091950120
:1013D000009729F0E0919401F09195010995109200
:1013E0009E0110929F011092A0011092A10181E034
:1013F0008093AF013AC080919E0190919F01A0918E
:10140000A001B091A1019C01AD012F5F3F4F4F4F53
:101410005F4F8091AB019091AC01A091AD01B09173
:10142000AE01281739074A075B0731F4ECE5F0E015
:101430008091AA01808319C02091AB013091AC0149
:101440004091AD015091AE0180919E0190919F011C
:10145000A091A001B091A101281739074A075B07A5
:1014600021F0ECE5F0E08FEF8083CF91DF91FF91E9
:10147000EF91BF91AF919F918F917F916F915F910C
:101480004F913F912F910F900FBE0F901F90189585
:10149000DF93CF93CDB7DEB7A3E5B0E0E3E5F0E0AF
:1014A000808180648C93A3E5B0E0E3E5F0E0808187
:1014B00088608C93A3E5B0E0E3E5F0E08081806193
:1014C0008C93A3E5B0E0E3E5F0E0808180628C934B
:1014D000A3E5B0E0E3E5F0E08081887F84608C9351
:1014E000CF91DF910895DF93CF930F92CDB7DEB701
:1014F0008983ECE5F0E0898180830F90CF91DF91C3
:101500000895DF93CF93CDB7DEB7AFE4B0E0EFE45B
:10151000F0E080818E7F8C93AFE4B0E0EFE4F0E008
:10152000808182608C93AEE4B0E0EEE4F0E08081F4
:1015300088608C93AEE4B0E0EEE4F0E080818061FE
:101540008C93AFE4B0E0EFE4F0E080818F7B8C938C
:10155000AFE4B0E0EFE4F0E0808180688C93AEE42B
:10156000B0E0EEE4F0E08081887F81608C93E6E477
:10157000F0E08FE19EE491838083CF91DF91089525
:10158000DF93CF93CDB7DEB7A5E4B0E0E5E4F0E0BC
:1015900080818F7B8C93A5E4B0E0E5E4F0E080816E
:1015A00088608C93A9E5B0E0E9E5F0E0808180688F
:1015B0008C93A5E4B0E0E5E4F0E08081887F86606C
:1015C0008C93CF91DF910895DF93CF9300D000D01B
:1015D0000F92CDB7DEB789834A835B836C837D83AB
:1015E0001092AF018A819B81AC81BD818093AB0158
:1015F0009093AC01A093AD01B093AE018A819B8121
:10160000AC81BD8181309105A105B10529F4E3E4E8
:10161000F0E08981808310C08A819B81AC81BD818B
:1016200082309105A105B10538F089818093AA0126
:10163000E3E4F0E08FEF80830E94C00AE8E5F0E089
:101640008081882324F08091AF018823B9F30F9023
:101650000F900F900F900F90CF91DF910895DF932F
:10166000CF9300D0CDB7DEB79A83898389819A81E1
:1016700090939901809398010F900F90CF91DF91F3
:101680000895DF93CF93CDB7DEB7A5E4B0E0E5E4EE
:10169000F0E080818F7B8C93A5E4B0E0E5E4F0E09E
:1016A0008081877F8C93A9E5B0E0E9E5F0E0808157
:1016B00080648C93A5E4B0E0E5E4F0E08081887F6D
:1016C00086608C93CF91DF910895EF92FF920F93F4
:1016D0001F93DF93CF93CDB7DEB761970FB6F89422
:1016E000DEBF0FBECDBF6E877F87888B998B109230
:1016F000AF010E94410B80E090E0A0E0BEE38A874A
:101700009B87AC87BD876A857B858C859D8520E01E
:1017100030E040E853E40E941F02DC01CB01BC0131
:10172000CD0120E030E040E853E40E941F02DC01DC
:10173000CB018A879B87AC87BD878E859F85A889CB
:10174000B98928EE33E040E050E0BC01CD010E94B1
:101750005E19DC01CB01BC01CD010E94D904DC0182
:10176000CB01BC01CD012A853B854C855D850E945E
:10177000550418160CF449C06E857F8588899989AF
:101780000E94D9047B018C016A857B858C859D85AF
:1017900020E030E04AE754E40E941903DC01CB0169
:1017A0009C01AD01C801B7010E941903DC01CB0106
:1017B0008E839F83A887B9876E817F81888599856D
:1017C00020E030E040E853E40E941F02DC01CB013E
:1017D000BC01CD010E944900DC01CB01898381E07D
:1017E00090E0A0E0B0E08093AB019093AC01A093B7
:1017F000AD01B093AE01898181958093AA01E4E4A3
:10180000F0E08091AA0180837FC06E857F85888902
:1018100099890E94D9047B018C016A857B858C851E
:101820009D8520E030E04AE754E40E941903DC0182
:10183000CB019C01AD01C801B7010E941903DC0175
:10184000CB018E839F83A887B9876E857F85888922
:1018500099890E94D9047B018C016A857B858C85DE
:101860009D8520E030E04AE754E40E941903DC0142
:10187000CB019C01AD01C801B7010E941903DC0135
:10188000CB01BC01CD010E944900DC01CB018A8360
:101890009B83AC83BD836A817B818C819D810E9407
:1018A000D9049B01AC016E817F81888599850E9456
:1018B000C101DC01CB01BC01CD0120E030E040E8FA
:1018C00053E40E941F02DC01CB01BC01CD010E9448
:1018D0004900DC01CB0189838A819B81AC81BD8178
:1018E0000196A11DB11D8093AB019093AC01A09313
:1018F000AD01B093AE01898181958093AA01E4E4A2
:10190000F0E08091AA018083E8E5F0E08081829593
:10191000869586958370882F90E0817090700097EF
:1019200021F48091AF01882379F361960FB6F89482
:10193000DEBF0FBECDBFCF91DF911F910F91FF9002
:10194000EF900895DF93CF9300D0CDB7DEB79A83A1
:10195000898389819A8190939701809396010F9052
:101960000F90CF91DF910895DF93CF93CDB7DEB77E
:10197000A5E4B0E0E5E4F0E0808180648C93A5E428
:10198000B0E0E5E4F0E0808188608C93A5E4B0E00D
:10199000E5E4F0E080818F7E8C93A5E4B0E0E5E49F
:1019A000F0E0808180628C93A5E4B0E0E5E4F0E0B3
:1019B0008081887F86608C93CF91DF910895DF933B
:1019C000CF930F92CDB7DEB78983E3E4F0E089814E
:1019D00080830F90CF91DF9108951F920F920FB6E1
:1019E0000F9211242F933F934F935F936F937F93A5
:1019F0008F939F93AF93BF93EF93FF93DF93CF9317
:101A0000CDB7DEB78091A2019091A301A091A4016E
:101A1000B091A5010196A11DB11D8093A2019093E3
:101A2000A301A093A401B093A5012091A20130913C
:101A3000A3014091A4015091A5018091AB01909127
:101A4000AC01A091AD01B091AE01281739074A074A
:101A50005B07D9F41092A2011092A3011092A40185
:101A60001092A501E4E4F0E08091AA0180838091C6
:101A7000960190919701009729F0E0919601F091DD
:101A80009701099581E08093AF01CF91DF91FF919C
:101A9000EF91BF91AF919F918F917F916F915F91E6
:101AA0004F913F912F910F900FBE0F901F9018955F
:101AB0001F920F920FB60F9211242F933F934F93C3
:101AC0005F936F937F938F939F93AF93BF93EF93A6
:101AD000FF93DF93CF93CDB7DEB78091A6019091AE
:101AE000A701A091A801B091A9010196A11DB11D66
:101AF0008093A6019093A701A093A801B093A90198
:101B00002091A6013091A7014091A8015091A9010F
:101B10008091AB019091AC01A091AD01B091AE016B
:101B2000281739074A075B07B9F48091980190910B
:101B30009901009729F0E0919801F0919901099598
:101B40001092A6011092A7011092A8011092A9016B
:101B500081E08093AF013AC08091AB019091AC01DC
:101B6000A091AD01B091AE019C01AD01215030407A
:101B7000404050408091A6019091A701A091A801FA
:101B8000B091A901281739074A075B0731F4E3E44C
:101B9000F0E08091AA01808319C02091A6013091C4
:101BA000A7014091A8015091A9018091AB019091AA
:101BB000AC01A091AD01B091AE01281739074A07D9
:101BC0005B0721F0E3E4F0E08FEF8083CF91DF91BA
:101BD000FF91EF91BF91AF919F918F917F916F9105
:101BE0005F914F913F912F910F900FBE0F901F90DB
:101BF0001895DF93CF93CDB7DEB727970FB6F8943C
:101C0000DEBF0FBECDBF89836A834B838B8181305A
:101C100009F06FC08981282F30E03F832E838E81A9
:101C20009F818130910549F12E813F81223031051C
:101C30002CF48E819F81009761F0D2C02E813F816C
:101C40002230310571F18E819F8183309105E9F158
:101C5000C7C0AAE3B0E0EAE3F0E08081482F8A81C0
:101C6000282F30E081E090E0022E02C0880F991FFB
:101C70000A94E2F7842B8C93B3C0A7E3B0E0E7E3C8
:101C8000F0E08081482F8A81282F30E081E090E0C9
:101C9000022E02C0880F991F0A94E2F7842B8C93BE
:101CA0009FC0A4E3B0E0E4E3F0E08081482F8A81A4
:101CB000282F30E081E090E0022E02C0880F991FAB
:101CC0000A94E2F7842B8C938BC0A1E3B0E0E1E3AC
:101CD000F0E08081482F8A81282F30E081E090E079
:101CE000022E02C0880F991F0A94E2F7842B8C936E
:101CF00077C08B81882309F073C08981282F30E059
:101D00003D832C838C819D818130910559F12C81FB
:101D10003D81223031052CF48C819D81009769F042
:101D20005FC02C813D812230310589F18C819D81FC
:101D30008330910509F440C053C0AAE3B0E0EAE360
:101D4000F0E08081482F8A81282F30E081E090E008
:101D5000022E02C0880F991F0A94E2F7809584230F
:101D60008C933EC0A7E3B0E0E7E3F0E08081482F2A
:101D70008A81282F30E081E090E0022E02C0880F97
:101D8000991F0A94E2F7809584238C9329C0A4E3D9
:101D9000B0E0E4E3F0E08081482F8A81282F30E032
:101DA00081E090E0022E02C0880F991F0A94E2F7AA
:101DB000809584238C9314C0A1E3B0E0E1E3F0E0CC
:101DC0008081482F8A81282F30E081E090E0022E28
:101DD00002C0880F991F0A94E2F7809584238C93A0
:101DE00027960FB6F894DEBF0FBECDBFCF91DF911F
:101DF0000895DF93CF93CDB7DEB727970FB6F8944A
:101E0000DEBF0FBECDBF89836A834B838B81813058
:101E100009F06FC08981282F30E03F832E838E81A7
:101E20009F818130910549F12E813F81223031051A
:101E30002CF48E819F81009761F0D2C02E813F816A
:101E40002230310571F18E819F8183309105E9F156
:101E5000C7C0ABE3B0E0EBE3F0E08081482F8A81BC
:101E6000282F30E081E090E0022E02C0880F991FF9
:101E70000A94E2F7842B8C93B3C0A8E3B0E0E8E3C4
:101E8000F0E08081482F8A81282F30E081E090E0C7
:101E9000022E02C0880F991F0A94E2F7842B8C93BC
:101EA0009FC0A5E3B0E0E5E3F0E08081482F8A81A0
:101EB000282F30E081E090E0022E02C0880F991FA9
:101EC0000A94E2F7842B8C938BC0A2E3B0E0E2E3A8
:101ED000F0E08081482F8A81282F30E081E090E077
:101EE000022E02C0880F991F0A94E2F7842B8C936C
:101EF00077C08B81882309F073C08981282F30E057
:101F00003D832C838C819D818130910559F12C81F9
:101F10003D81223031052CF48C819D81009769F040
:101F20005FC02C813D812230310589F18C819D81FA
:101F30008330910509F440C053C0ABE3B0E0EBE35C
:101F4000F0E08081482F8A81282F30E081E090E006
:101F5000022E02C0880F991F0A94E2F7809584230D
:101F60008C933EC0A8E3B0E0E8E3F0E08081482F26
:101F70008A81282F30E081E090E0022E02C0880F95
:101F8000991F0A94E2F7809584238C9329C0A5E3D6
:101F9000B0E0E5E3F0E08081482F8A81282F30E02F
:101FA00081E090E0022E02C0880F991F0A94E2F7A8
:101FB000809584238C9314C0A2E3B0E0E2E3F0E0C8
:101FC0008081482F8A81282F30E081E090E0022E26
:101FD00002C0880F991F0A94E2F7809584238C939E
:101FE00027960FB6F894DEBF0FBECDBFCF91DF911D
:101FF0000895DF93CF9300D000D00F92CDB7DEB716
:102000008A836B838A81282F30E03D832C834C8127
:102010005D814130510541F18C819D818230910576
:1020200034F42C813D812115310561F052C04C8181
:102030005D814230510551F18C819D818330910544
:10204000B9F147C0E9E3F0E08081282F30E08B81CF
:10205000882F90E0A90102C0559547958A95E2F72F
:10206000CA018170898335C0E6E3F0E08081282FC2
:1020700030E08B81882F90E0A90102C055954795EB
:102080008A95E2F7CA018170898323C0E3E3F0E017
:102090008081282F30E08B81882F90E0A90102C039
:1020A000559547958A95E2F7CA018170898311C0D9
:1020B000E0E3F0E08081282F30E08B81882F90E0F2
:1020C000A90102C0559547958A95E2F7CA0181702A
:1020D000898389810F900F900F900F900F90CF916F
:1020E000DF910895DF93CF9300D000D0CDB7DEB756
:1020F00089836A838981282F30E03C832B838B81FD
:102100009C818130910549F12B813C812230310540
:102110002CF48B819C81009761F05AC02B813C810B
:102120002230310571F18B819C8183309105E9F179
:102130004FC0ABE3B0E0EBE3F0E08081482F8A8151
:10214000282F30E081E090E0022E02C0880F991F16
:102150000A94E2F784278C933BC0A8E3B0E0E8E35D
:10216000F0E08081482F8A81282F30E081E090E0E4
:10217000022E02C0880F991F0A94E2F784278C93DD
:1021800027C0A5E3B0E0E5E3F0E08081482F8A8135
:10219000282F30E081E090E0022E02C0880F991FC6
:1021A0000A94E2F784278C9313C0A2E3B0E0E2E341
:1021B000F0E08081482F8A81282F30E081E090E094
:1021C000022E02C0880F991F0A94E2F784278C938D
:1021D0000F900F900F900F90CF91DF910895DF93A4
:1021E000CF9300D000D0CDB7DEB789836A838981D1
:1021F000282F30E03C832B838B819C81813091059B
:10220000D1F02B813C81223031052CF48B819C81D3
:10221000009761F01EC02B813C812230310581F096
:102220008B819C818330910581F013C0EAE3F0E05B
:102230008A8180830EC0E7E3F0E08A81808309C051
:10224000E4E3F0E08A81808304C0E1E3F0E08A8186
:1022500080830F900F900F900F90CF91DF91089592
:10226000DF93CF9300D000D0CDB7DEB789836A83E8
:102270008981282F30E03C832B838B819C818130A6
:102280009105D1F02B813C81223031052CF48B81DA
:102290009C81009761F01EC02B813C81223031056A
:1022A00081F08B819C818330910581F013C0EBE339
:1022B000F0E08A8180830EC0E8E3F0E08A818083C9
:1022C00009C0E5E3F0E08A81808304C0E2E3F0E046
:1022D0008A8180830F900F900F900F90CF91DF91A4
:1022E0000895DF93CF93CDB7DEB70E94810AAEE4A5
:1022F000B0E0EEE4F0E08081887F82608C93E6E4D9
:10230000F0E08FE19EE491838083CF91DF91089587
:10231000DF93CF930F92CDB7DEB78983EAE4F0E085
:102320008981282F30E082E390E0AC01249FC00136
:10233000259F900D349F900D1124815E9C4D29E0C6
:1023400030E0B9010E947D19CB01918380830F9009
:10235000CF91DF910895DF93CF93CDB7DEB7E897A4
:102360000FB6F894DEBF0FBECDBF82E06FEF0E94C4
:10237000EF1083E060E041E00E94F90D83E061E04E
:1023800041E00E94F90D83E062E041E00E94F90D16
:1023900080E090E0A0EFB1E48DAB9EABAFABB8AF07
:1023A0006DA97EA98FA998AD20E030E04AEF54E4F2
:1023B0000E941F02DC01CB0189AB9AABABABBCAB7B
:1023C00069A97AA98BA99CA920E030E040E85FE3E5
:1023D0000E94250488232CF481E090E098AB8FA71D
:1023E0003FC069A97AA98BA99CA920E03FEF4FE7DC
:1023F00057E40E94C50318164CF56DA97EA98FA954
:1024000098AD20E030E040E251E40E941F02DC0180
:10241000CB01BC01CD010E944900DC01CB0198AB8E
:102420008FA70FC088EC90E09EA78DA78DA59EA5D5
:102430000197F1F79EA78DA78FA598A9019798AB53
:102440008FA78FA598A9009769F714C069A97AA9E1
:102450008BA99CA90E944900DC01CB0198AB8FA7F6
:102460008FA598A99CA78BA78BA59CA50197F1F791
:102470009CA78BA788E30E94A51380E090E0A0E8CA
:10248000BFE38FA398A7A9A7BAA76FA178A589A52D
:102490009AA520E030E04AEF54E40E941F02DC01DC
:1024A000CB018BA39CA3ADA3BEA36BA17CA18DA1EB
:1024B0009EA120E030E040E85FE30E9425048823ED
:1024C0002CF481E090E09AA389A33FC06BA17CA18A
:1024D0008DA19EA120E03FEF4FE757E40E94C50386
:1024E00018164CF56FA178A589A59AA520E030E0D3
:1024F00040E251E40E941F02DC01CB01BC01CD018E
:102500000E944900DC01CB019AA389A30FC088EC8B
:1025100090E098A38F8F8F8D98A10197F1F798A3E2
:102520008F8F89A19AA101979AA389A389A19AA1C2
:10253000009769F714C06BA17CA18DA19EA10E9498
:102540004900DC01CB019AA389A389A19AA19E8F9E
:102550008D8F8D8D9E8D0197F1F79E8F8D8F8EE0E3
:102560000E94A51380E090E0A0E8BFE3898F9A8FD6
:10257000AB8FBC8F698D7A8D8B8D9C8D20E030E088
:102580004AEF54E40E941F02DC01CB018D8B9E8B2D
:10259000AF8BB88F6D897E898F89988D20E030E070
:1025A00040E85FE30E94250488232CF481E090E05A
:1025B0009C8B8B8B3FC06D897E898F89988D20E0A5
:1025C0003FEF4FE757E40E94C50318164CF5698D9D
:1025D0007A8D8B8D9C8D20E030E040E251E40E94AA
:1025E0001F02DC01CB01BC01CD010E944900DC01CE
:1025F000CB019C8B8B8B0FC088EC90E09A8B898BE6
:1026000089899A890197F1F79A8B898B8B899C89A3
:1026100001979C8B8B8B8B899C89009769F714C0E1
:102620006D897E898F89988D0E944900DC01CB01DC
:102630009C8B8B8B8B899C89988B8F878F859889B6
:102640000197F1F7988B8F8781E00E94A51380E0B6
:1026500090E0A0E0B0E48B879C87AD87BE876B8558
:102660007C858D859E8520E030E04AEF54E40E9411
:102670001F02DC01CB018F839887A987BA876F81FE
:10268000788589859A8520E030E040E85FE30E9404
:10269000250488232CF481E090E09E838D833FC045
:1026A0006F81788589859A8520E03FEF4FE757E471
:1026B0000E94C50318164CF56B857C858D859E851B
:1026C00020E030E040E251E40E941F02DC01CB0137
:1026D000BC01CD010E944900DC01CB019E838D83AA
:1026E0000FC088EC90E09C838B838B819C81019749
:1026F000F1F79C838B838D819E8101979E838D83CF
:102700008D819E81009769F714C06F8178858985D6
:102710009A850E944900DC01CB019E838D838D81C7
:102720009E819A83898389819A810197F1F79A839F
:10273000898386E00E94A513E8960FB6F894DEBF61
:102740000FBECDBFCF91DF910895DF93CF93CDB76B
:10275000DEB72F970FB6F894DEBF0FBECDBF8F87C1
:1027600083E060E040E00E94F90E83E061E040E039
:102770000E94F90E82E06F850E94301183E062E0D2
:1027800041E00E94F90E80E090E0A0E0B0E48B8789
:102790009C87AD87BE876B857C858D859E8520E077
:1027A00030E04AEF54E40E941F02DC01CB018F832A
:1027B0009887A987BA876F81788589859A8520E06F
:1027C00030E040E85FE30E94250488232CF481E098
:1027D00090E09E838D833FC06F81788589859A853F
:1027E00020E03FEF4FE757E40E94C50318164CF571
:1027F0006B857C858D859E8520E030E040E251E44C
:102800000E941F02DC01CB01BC01CD010E944900E6
:10281000DC01CB019E838D830FC088EC90E09C830C
:102820008B838B819C810197F1F79C838B838D81B6
:102830009E8101979E838D838D819E81009769F78C
:1028400014C06F81788589859A850E944900DC01D2
:10285000CB019E838D838D819E819A83898389811B
:102860009A810197F1F79A83898383E062E040E0DF
:102870000E94F90E2F960FB6F894DEBF0FBECDBFA3
:10288000CF91DF910895DF93CF93CDB7DEB72F9728
:102890000FB6F894DEBF0FBECDBF8F8783E060E038
:1028A00041E00E94F90E83E061E040E00E94F90EF1
:1028B00082E06F850E94301183E062E041E00E9477
:1028C000F90E80E090E0A0E0B0E48B879C87AD87B4
:1028D000BE876B857C858D859E8520E030E04AEF44
:1028E00054E40E941F02DC01CB018F839887A987E3
:1028F000BA876F81788589859A8520E030E040E845
:102900005FE30E94250488232CF481E090E09E83FD
:102910008D833FC06F81788589859A8520E03FEF60
:102920004FE757E40E94C50318164CF56B857C856C
:102930008D859E8520E030E040E251E40E941F0238
:10294000DC01CB01BC01CD010E944900DC01CB01BF
:102950009E838D830FC088EC90E09C838B838B815A
:102960009C810197F1F79C838B838D819E810197D8
:102970009E838D838D819E81009769F714C06F813E
:10298000788589859A850E944900DC01CB019E8368
:102990008D838D819E819A83898389819A81019714
:1029A000F1F79A83898383E062E040E00E94F90EA8
:1029B0002F960FB6F894DEBF0FBECDBFCF91DF913B
:1029C0000895DF93CF9300D00F92CDB7DEB79B83EE
:1029D0008A8319820EC08981282F30E08A819B81E9
:1029E000FC01E20FF31F80810E94431489818F5FF5
:1029F00089838981282F30E08A819B81FC01E20F45
:102A0000F31F8081882339F70F900F900F90CF919B
:102A1000DF910895DF93CF9300D000D0CDB7DEB71C
:102A200089836A838981282F30E03C832B838B81C3
:102A30009C81009731F02B813C812130310531F0B0
:102A400009C08A8180580E94A51304C08A818054DD
:102A50000E94A5130F900F900F900F90CF91DF91D0
:102A60000895DF93CF93CDB7DEB72C970FB6F894C8
:102A7000DEBF0FBECDBF69877A878B879C8789852C
:102A80009A85AB85BC858A309105A105B10528F4EE
:102A90008985805D0E94431418C181E090E0A0E028
:102AA000B0E089839A83AB83BC8329853A854B85C3
:102AB0005C8589819A81AB81BC8182179307A407C9
:102AC000B50798F789819A81AB81BC812AE030E013
:102AD00040E050E0BC01CD010E945E19DC01CB0159
:102AE00089839A83AB83BC8389819A81AB81BC81C2
:102AF0002AE030E040E050E0BC01CD010E945E19C8
:102B00009B01AC0189859A85AB85BC8582179307AB
:102B1000A407B50750F689859A85AB85BC858A30B0
:102B20009105A105B105D0F429853A854B855C85D1
:102B300089819A81AB81BC81281739074A075B07D5
:102B400040F489859A85AB85BC850097A105B105C0
:102B500029F48985805D0E944314B7C089859A85D0
:102B6000AB85BC8529813A814B815C81BC01CD015B
:102B70000E949019DA01C9018D839E83AF83B887C3
:102B80008D81805D0E94431489859A85AB85BC85C3
:102B900029813A814B815C81BC01CD010E94901951
:102BA000DC01CB018D839E83AF83B8872D813E816D
:102BB0004F81588589819A81AB81BC81281739075B
:102BC0004A075B07A0F589819A81AB81BC812AE025
:102BD00030E040E050E0BC01CD010E949019DA01E4
:102BE000C9019C01AD018D819E81AF81B88582179D
:102BF0009307A407B507D8F08D819E81AF81B88572
:102C000089879A87AB87BC8789819A81AB81BC8190
:102C10002AE030E040E050E0BC01CD010E94901974
:102C2000DA01C90189839A83AB83BC8374CF89811C
:102C30009A81AB81BC818B309105A105B10508F467
:102C400041C080E30E9443148D819E81AF81B8858D
:102C500089879A87AB87BC8789819A81AB81BC8140
:102C600024E630E040E050E0BC01CD010E94901924
:102C7000DA01C90189839A83AB83BC8329853A85AC
:102C80004B855C8589819A81AB81BC812817390786
:102C90004A075B0708F03FCF80E30E944314898115
:102CA0009A81AB81BC812AE030E040E050E0BC0179
:102CB000CD010E949019DA01C90189839A83AB83FF
:102CC000BC8329CF80E30E9443142C960FB6F8945E
:102CD000DEBF0FBECDBFCF91DF910895DF93CF93BD
:102CE000CDB7DEB764970FB6F894DEBF0FBECDBF89
:102CF000698B7A8B8B8B9C8B89899A899E012F5F3C
:102D00003F4FB9014AE050E00E94FD19CE01019603
:102D10000E94E11464960FB6F894DEBF0FBECDBFDB
:102D2000CF91DF910895DF93CF93CDB7DEB781E0E8
:102D30006FE00E94EF1081E06FEF0E943011CF91A1
:102D4000DF910895DF93CF93CDB7DEB764970FB6C9
:102D5000F894DEBF0FBECDBF1F861B8ADAC08B89F9
:102D6000882F90E0FC01E757FE4F908181E0692FAA
:102D700040E00E94F90E1A8AB6C08A89882F90E036
:102D8000FC01E357FE4F908181E0692F0E94F90F0B
:102D9000898B8989882309F0A3C080E090E0A0EAAC
:102DA000B1E48B879C87AD87BE876B857C858D85DD
:102DB0009E8520E030E04AEF54E40E941F02DC01CF
:102DC000CB018F839887A987BA876F81788589859A
:102DD0009A8520E030E040E85FE30E9425048823E4
:102DE0002CF481E090E09E838D833FC06F817885D5
:102DF00089859A8520E03FEF4FE757E40E94C5039D
:102E000018164CF56B857C858D859E8520E030E01D
:102E100040E251E40E941F02DC01CB01BC01CD0164
:102E20000E944900DC01CB019E838D830FC088EC9A
:102E300090E09C838B838B819C810197F1F79C832D
:102E40008B838D819E8101979E838D838D819E8151
:102E5000009769F714C06F81788589859A850E94EB
:102E60004900DC01CB019E838D838D819E819A83F5
:102E7000898389819A810197F1F79A8389838A8965
:102E8000882F90E0FC01E357FE4F908181E0692F8D
:102E90000E94F90F898B0CC08A89882F90E0FC0171
:102EA000E357FE4F908181E0692F0E94F90F898BD3
:102EB0008989882389F38B89482F50E08A89282FB4
:102EC00030E0CA01880F991F880F991F820F931F46
:102ED000FC01E758FE4F8081888B81E08F8707C017
:102EE0008A898F5F8A8B8A89843008F446CF8B89E0
:102EF000882F90E0FC01E757FE4F908181E0692F19
:102F000041E00E94F90E8F85813039F08B898F5F07
:102F10008B8B8B89843008F422CF8F85813019F414
:102F200088898C8B02C08FEF8C8B8C8964960FB64E
:102F3000F894DEBF0FBECDBFCF91DF910895DF9330
:102F4000CF9300D000D00F92CDB7DEB780E38A8355
:102F500080E38B8380E38C831D82CE010296909365
:102F6000B3018093B20119821092B4011092B5019D
:102F70001092B6011092B7018FEF8093B90183E0F0
:102F800065E041E00E94F90D0E9471110E94AB11B1
:102F90000E9493160E94A2168093B9018091B901F4
:102FA0008F3FC1F38091B9018F3271F489818823F9
:102FB00089F780E690E00E94E11481E060E00E94E1
:102FC0000A1581E08983E6CF8091B901833401F548
:102FD00089818130F9F681E00E94A5131092B40135
:102FE0001092B5011092B6011092B7018091B40110
:102FF0009091B501A091B601B091B7010E948811DE
:103000001092B80180E060E00E940A151982C2CFD8
:103010008091B901803328F18091B9018A3308F594
:103020008981813009F0B6CF8091B801833008F0F2
:10303000B1CF8091B9010E9443142091B201309127
:10304000B3018091B801882F90E0F901E80FF91FD2
:103050008091B90180838091B8018F5F8093B8011E
:1030600099CF8091B9018B32A9F48981813009F01F
:1030700091CF8091B801833008F08CCF8091B80156
:103080008F5F8093B8019091B80181E0692F0E9411
:103090000A1580CF8091B9018D3281F48981813008
:1030A00009F078CF8091B80181508093B801909158
:1030B000B80181E0692F0E940A156CCF8091B90197
:1030C0008D3309F067CF8981813009F063CF81E0CA
:1030D00067E00E940A1580E20E94431480E20E9489
:1030E000431481E066E00E940A150E949F18DC01EB
:1030F000CB018F3F2FEF92072FEFA2072FEFB207E1
:1031000029F48DE690E00E94E11412C00E949F18FD
:10311000DC01CB01BC01CD010E946E168091B4018F
:103120009091B501A091B601B091B7010E948811AC
:103130009091B80181E0692F0E940A152BCFDF938F
:10314000CF93CDB7DEB72B970FB6F894DEBF0FBE87
:10315000CDBF1092B4011092B5011092B601109239
:10316000B7018CE00E94A5131982198251C02091E9
:10317000B2013091B3018981882F90E0F901E80F05
:10318000F91F8081882F90E09C01205330403B87BD
:103190002A878981882389F08981823029F441E056
:1031A00050E05F834E8304C08AE090E09F838E836B
:1031B000AE81BF81B987A88704C024E630E0398793
:1031C00028874A855B85A885B9854A9FC0014B9FA2
:1031D000900D5A9F900D11249C01442737FD409576
:1031E000542F8091B4019091B501A091B601B09196
:1031F000B701820F931FA41FB51F8093B401909352
:10320000B501A093B601B093B70189818F5F89831F
:103210008981833008F4ABCF8EE00E94A5138091A2
:10322000B4019091B501A091B601B091B701853B71
:103230009105A105B10548F02FEF3FEF4FEF5FEF8C
:103240002A833B834C835D830CC08091B4019091B1
:10325000B501A091B601B091B7018A839B83AC837D
:10326000BD838A819B81AC81BD81BC01CD012B9640
:103270000FB6F894DEBF0FBECDBFCF91DF9108959A
:10328000DF93CF930F92CDB7DEB7198210C0209194
:10329000B2013091B3018981882F90E0F901E80FE4
:1032A000F91F80810E94431489818F5F89838981FE
:1032B000833068F30F90CF91DF910895629FD00122
:1032C000739FF001829FE00DF11D649FE00DF11DE1
:1032D000929FF00D839FF00D749FF00D659FF00D90
:1032E0009927729FB00DE11DF91F639FB00DE11D7D
:1032F000F91FBD01CF011124089597FB092E072660
:103300000AD077FD04D02ED006D000201AF4709594
:1033100061957F4F0895F6F7909581959F4F089599
:10332000A1E21A2EAA1BBB1BFD010DC0AA1FBB1FC9
:10333000EE1FFF1FA217B307E407F50720F0A21B3B
:10334000B30BE40BF50B661F771F881F991F1A94A8
:1033500069F760957095809590959B01AC01BD01D2
:10336000CF010895AA1BBB1B51E107C0AA1FBB1FB9
:10337000A617B70710F0A61BB70B881F991F5A9501
:10338000A9F780959095BC01CD0108952F923F92A9
:103390004F925F926F927F928F929F92AF92BF9265
:1033A000CF92DF92EF92FF920F931F93CF93DF9311
:1033B000CDB7DEB7CA1BDB0B0FB6F894DEBF0FBE6E
:1033C000CDBF09942A88398848885F846E847D84BB
:1033D0008C849B84AA84B984C884DF80EE80FD80BD
:1033E0000C811B81AA81B981CE0FD11D0FB6F89433
:1033F000DEBF0FBECDBFED010895FB019F01E89434
:103400004230C4F04532B4F44A3029F497FB1EF43C
:10341000909581959F4F642F77270E94B219805D08
:103420008A330CF0895D8193CB010097A1F716F4E4
:103430005DE251931082C9010C941E1ADC01FC015B
:10344000672F71917723E1F7329704C07C916D93D8
:1034500070836291AE17BF07C8F30895F894FFCF49
:10346000456E74657220616E676C653A0045525214
:10347000000000000000000000000102020303033E
:1034800003040404040404040405050505050505F6
:1034900005050505050505050506060606060606D5
:1034A00006060606060606060606060606060606BC
:1034B00006060606060606060607070707070707A5
:1034C000070707070707070707070707070707078C
:1034D000070707070707070707070707070707077C
:1034E000070707070707070707070707070707076C
:1034F0000707070707070707070808080808080855
:10350000080808080808080808080808080808083B
:10351000080808080808080808080808080808082B
:10352000080808080808080808080808080808081B
:10353000080808080808080808080808080808080B
:1035400008080808080808080808080808080808FB
:1035500008080808080808080808080808080808EB
:1035600008080808080808080808080808080808DB
:103570000808080808080808083738392F3435368D
:103580002A3132332D43303D2B000102030405065E
:02359000070032
:00000001FF
