:100000000C942A000C94500F0C94830F0C94B60F90
:100010000C94170B0C94B20A0C9447000C944700F4
:100020000C9447000C9447000C9447000C9456081D
:100030000C9447000C9447000C9447000C94470024
:100040000C9447000C9447000C9447000C94470014
:100050000C94470011241FBECFE5D8E0DEBFCDBF12
:1000600011E0A8E6B1E001C01D92A638B107E1F7A2
:1000700011E0A0E6B0E0E4ECF0E202C005900D92E1
:10008000A836B107D9F70E94E90F0C9460100C94C0
:100090000000EF92FF920F931F937B018C0120E0F1
:1000A00030E040E05FE40E94C50388238CF0C80183
:1000B000B70120E030E040E05FE40E94C1010E940F
:1000C00025049B01AC01205030404040504806C000
:1000D000C801B7010E9425049B01AC01B901CA0106
:1000E0001F910F91FF90EF900895A0E0B0E0EBE733
:1000F000F0E00C942910DC012B01FA019C91923064
:1001000008F439C1EB018881823008F433C194309E
:1001100069F4843009F02FC111969C91119789815F
:10012000981709F428C1A0E6B0E025C1843009F48D
:1001300021C18230A9F4923009F01DC19A01AD01AC
:1001400088E0EA010990AE01E90109929E0181501F
:10015000C1F7E201898111969C918923818308C1AD
:10016000923009F407C112962D903C901397EB0141
:100170008A819B811496AD90BD90CD90DC901797AD
:10018000EC80FD800E811F819101281B390BB90184
:1001900037FF04C066277727621B730B6032710537
:1001A0000CF061C0121613066CF537014801062EDB
:1001B00004C096948794779467940A94D2F721E0C8
:1001C00030E040E050E004C0220F331F441F551FB1
:1001D0006A95D2F721503040404050402E213F21B7
:1001E00040235123211531054105510521F021E01E
:1001F00030E040E050E079018A01E628F72808293C
:1002000019293CC0232BD1F1260E371E350146019A
:10021000062E04C096948794779467940A94D2F734
:1002200021E030E040E050E004C0220F331F441FC3
:10023000551F6A95D2F721503040404050402A2146
:100240003B214C215D21211531054105510521F04E
:1002500021E030E040E050E059016A01A628B728CB
:10026000C828D9280BC0821593052CF01C01AA249C
:10027000BB24650103C0EE24FF24870111969C91E5
:10028000D20111968C91981709F445C0992339F041
:10029000A80197012A193B094C095D0906C0A6016E
:1002A00095012E193F09400B510B57FD08C01182D3
:1002B0003382228224833583468357831DC081E0A5
:1002C00081833382228288279927DC01821B930B4A
:1002D000A40BB50B84839583A683B7830DC0220F2F
:1002E000331F441F551F24833583468357838281E0
:1002F000938101979383828324813581468157813D
:10030000DA01C9010197A109B1098F5F9F4FAF4F72
:10031000BF4328F30BC0918333822282EA0CFB1C7B
:100320000C1D1D1DE482F5820683178383E0808304
:10033000248135814681578157FF1AC0C901AA27F8
:1003400097FDA095BA2F81709070A070B0705695EF
:10035000479537952795822B932BA42BB52B848318
:100360009583A683B7838281938101969383828349
:10037000DF0101C0D201CD01CDB7DEB7E2E10C94BF
:100380004510A0E2B0E0E7ECF1E00C943510698391
:100390007A838B839C832D833E834F835887E9E048
:1003A000EE2EF12CEC0EFD1ECE010196B7010E943F
:1003B00016068E010F5E1F4FCE010596B8010E94F2
:1003C00016068A8991E089278A8BC701B801AE0198
:1003D000475E5F4F0E9475000E944105A096E6E0CF
:1003E0000C945110A0E2B0E0E8EFF1E00C9435106D
:1003F00069837A838B839C832D833E834F835887C5
:10040000F9E0EF2EF12CEC0EFD1ECE010196B701A6
:100410000E9416068E010F5E1F4FCE010596B80191
:100420000E941606C701B801AE01475E5F4F0E94E9
:1004300075000E944105A096E6E00C945110A0E2E0
:10044000B0E0E5E2F2E00C94291069837A838B83B3
:100450009C832D833E834F835887CE010196BE0136
:10046000675F7F4F0E941606CE010596BE016F5E44
:100470007F4F0E9416069985923088F089898230D4
:10048000C8F0943019F4823051F404C0843029F457
:10049000923081F480E690E0C6C0923049F420E0CA
:1004A0009A858A89981321E02A87CE010996BBC0D4
:1004B000823049F420E09A858A89981321E02A8BBA
:1004C000CE014196B0C02D843E844F8458886D88FB
:1004D0007E888F88988CEE24FF248701AA24BB2471
:1004E000650140E050E060E070E0E0E0F0E0C10174
:1004F00081709070892BE9F0E60CF71C081D191D1E
:100500009A01AB012A0D3B1D4C1D5D1D80E090E062
:10051000A0E0B0E0E614F7040805190520F481E036
:1005200090E0A0E0B0E0BA01A901480F591F6A1F8E
:100530007B1FAA0CBB1CCC1CDD1C97FE08C081E0F5
:1005400090E0A0E0B0E0A82AB92ACA2ADB2A3196B6
:10055000E032F10549F0660C771C881C991C569412
:10056000479437942794C3CFFA85EA892B893C892D
:100570008B859C85280F391F2E5F3F4F17C0CA01FE
:1005800081709070892B61F016950795F794E79428
:1005900080E090E0A0E0B0E8E82AF92A0A2B1B2BC3
:1005A00076956795579547952F5F3F4F77FDE7CF36
:1005B0000CC0440F551F661F771F17FD4160EE0CDE
:1005C000FF1C001F111F21503040403090E05907A0
:1005D00090E0690790E4790760F32B8F3C8FDB0193
:1005E000CA018F779070A070B07080349105A1051A
:1005F000B10561F447FD0AC0E114F10401051105DC
:1006000029F0405C5F4F6F4F7F4F40781A8EFE1786
:1006100011F081E08A8F4D8F5E8F6F8F78A383E01A
:10062000898FCE0149960E944105A096E2E10C9483
:100630004510A8E1B0E0EFE1F3E00C9431106983DC
:100640007A838B839C832D833E834F835887B9E0C5
:10065000EB2EF12CEC0EFD1ECE010196B7010E948F
:1006600016068E010F5E1F4FCE010596B8010E943F
:1006700016062985223008F47EC03989323010F4FC
:10068000B8017CC08A859A8989278A87243011F02D
:10069000223031F4231709F06EC060E670E06EC0BE
:1006A000343039F41D861E861F86188A1C861B86E8
:1006B00004C0323021F484E08987B7015FC02B8504
:1006C0003C858B899C89281B390B3C872B87ED84C3
:1006D000FE840F851889AD88BE88CF88D88CEA142F
:1006E000FB040C051D0540F4EE0CFF1C001F111F40
:1006F000215030403C872B8720E030E040E050E044
:1007000080E090E0A0E0B0E460E070E0EA14FB0478
:100710000C051D0540F0282B392B4A2B5B2BEA18C2
:10072000FB080C091D09B695A79597958795EE0CC2
:10073000FF1C001F111F6F5F7F4F6F31710531F775
:10074000DA01C9018F779070A070B0708034910584
:10075000A105B10561F427FD0AC0E114F10401050A
:10076000110529F0205C3F4F4F4F5F4F20782D87B8
:100770003E874F87588BBE01675F7F4FCB010E943A
:1007800041056896EAE00C944D10A8E1B0E0EBEC6E
:10079000F3E00C94351069837A838B839C832D83DB
:1007A0003E834F83588789E0E82EF12CEC0EFD1E26
:1007B000CE010196B7010E9416068E010F5E1F4FF3
:1007C000CE010596B8010E9416068985823040F058
:1007D0008989823028F0C701B8010E948E0601C0C5
:1007E0008FEF6896E6E00C945110A8E1B0E0EBEFD3
:1007F000F3E00C94351069837A838B839C832D837B
:100800003E834F83588789E0E82EF12CEC0EFD1EC5
:10081000CE010196B7010E9416068E010F5E1F4F92
:10082000CE010596B8010E9416068985823040F0F7
:100830008989823028F0C701B8010E948E0601C064
:1008400081E06896E6E00C945110ACE0B0E0EBE299
:10085000F4E00C94391069837A838B839C83CE01F6
:100860000196BE016B5F7F4F0E9416068D8182301C
:1008700061F1823050F1843021F48E81882351F16E
:100880002EC02F81388537FD20C06E812F31310574
:100890001CF06623F9F023C08EE190E0821B930BDD
:1008A00029853A854B855C8504C0569547953795D3
:1008B00027958A95D2F76623B1F0509540953095EB
:1008C00021953F4F4F4F5F4F0EC020E030E040E09A
:1008D00050E009C02FEF3FEF4FEF5FE704C020E08B
:1008E00030E040E050E8B901CA012C96E2E00C94F7
:1008F0005510A8E0B0E0EFE7F4E00C9431107B0174
:100900008C01611571058105910519F482E08983D7
:1009100060C083E089838EE1C82ED12CDC82CB823B
:10092000ED82FE820F831887C801B7010E94F2048E
:10093000FC013197F7FF3BC0222733272E1B3F0BCB
:1009400057016801022E04C0D694C794B794A794A7
:100950000A94D2F740E050E060E070E081E090E07F
:10096000A0E0B0E004C0880F991FAA1FBB1F2A9502
:10097000D2F70197A109B1098E219F21A023B123AC
:100980000097A105B10521F041E050E060E070E082
:100990004A295B296C297D294D835E836F83788783
:1009A0008EE190E08E1B9F0B9C838B8312C030974F
:1009B00081F00E2E04C0EE0CFF1C001F111F0A94C4
:1009C000D2F7ED82FE820F831887CE1ADF0ADC820F
:1009D000CB821A82CE0101960E9441052896EAE058
:1009E0000C944D10EF92FF920F931F937B018C019B
:1009F00080E0E81680E0F80681E0080780E018074C
:100A000088F48FEFE816F1040105110531F028F0A4
:100A100088E090E0A0E0B0E017C080E090E0A0E0C7
:100A2000B0E012C080E0E81680E0F80680E0080739
:100A300081E0180728F088E190E0A0E0B0E004C071
:100A400080E190E0A0E0B0E020E230E040E050E063
:100A5000281B390B4A0B5B0B04C016950795F794BE
:100A6000E7948A95D2F7F701E859FF4F8081281B58
:100A7000310941095109C9011F910F91FF90EF9070
:100A80000895DF92EF92FF920F931F93FC01E48091
:100A9000F58006811781D1808081823048F480E022
:100AA00090E0A0E1B0E0E82AF92A0A2B1B2BA5C0B0
:100AB000843009F49FC0823021F4EE24FF248701A2
:100AC00005C0E114F1040105110519F4E0E0F0E0BE
:100AD00096C0628173819FEF623879070CF05BC02A
:100AE00022E83FEF261B370B2A3131052CF020E09E
:100AF00030E040E050E02AC0B801A701022E04C057
:100B000076956795579547950A94D2F781E090E0DE
:100B1000A0E0B0E004C0880F991FAA1FBB1F2A9550
:100B2000D2F70197A109B1098E219F21A023B123FA
:100B30000097A105B10521F081E090E0A0E0B0E0D0
:100B40009A01AB01282B392B4A2B5B2BDA01C90107
:100B50008F779070A070B07080349105A105B105B9
:100B600039F427FF09C0205C3F4F4F4F5F4F04C04F
:100B7000215C3F4F4F4F5F4FE0E0F0E02030A0E0BE
:100B80003A07A0E04A07A0E45A0710F0E1E0F0E0DD
:100B900079018A0127C06038710564F5FB01E158CD
:100BA000FF4FD801C7018F779070A070B07080346C
:100BB0009105A105B10539F4E7FE0DC080E490E090
:100BC000A0E0B0E004C08FE390E0A0E0B0E0E80E69
:100BD000F91E0A1F1B1F17FF05C016950795F794EE
:100BE000E794319687E016950795F794E7948A95F0
:100BF000D1F705C0EE24FF248701EFEFF0E06E2F60
:100C0000679566276795902F9F77D794DD24D794B3
:100C10008E2F8695492F462B582F5D29B701CA0183
:100C20001F910F91FF90EF90DF900895FC01DB0181
:100C3000408151812281622F6F7770E0221F22272D
:100C4000221F9381892F880F822B282F30E0991F34
:100C50009927991F11969C93119721153105A9F594
:100C6000411551056105710511F482E037C082E834
:100C70009FEF13969C938E9312979A01AB0167E0B6
:100C8000220F331F441F551F6A95D1F783E08C93C1
:100C90000DC0220F331F441F551F12968D919C913A
:100CA0001397019713969C938E931297203080E0B0
:100CB000380780E0480780E4580758F314962D93CE
:100CC0003D934D935C93179708952F3F310579F429
:100CD000411551056105710519F484E08C9308955F
:100CE00064FF03C081E08C9312C01C9210C02F5788
:100CF000304013963C932E93129783E08C9387E0B9
:100D0000440F551F661F771F8A95D1F7706414969C
:100D10004D935D936D937C93179708951F93DC011A
:100D2000FB019C91923008F447C08081823008F426
:100D300043C0943051F411961C91843099F581810F
:100D4000682F70E0611B71093FC0843021F0923040
:100D500031F48230B9F18181882389F12DC0119657
:100D60001C9111978230F1F081811817D9F41296F5
:100D70002D913C911397828193818217930794F070
:100D800028173907BCF014968D919D910D90BC9158
:100D9000A02D2481358146815781281739074A07BC
:100DA0005B0718F4112341F00AC082179307A407C8
:100DB000B50740F4112319F061E070E005C06FEF52
:100DC0007FEF02C060E070E0CB011F910895DF93D8
:100DD000CF93CDB7DEB7A3E5B0E0E3E5F0E08081E7
:100DE0008F7B8C93A3E5B0E0E3E5F0E08081877F23
:100DF0008C93A9E5B0E0E9E5F0E0808181608C9317
:100E0000A3E5B0E0E3E5F0E08081887F84608C9327
:100E1000CF91DF910895EF92FF920F931F93DF938D
:100E2000CF93CDB7DEB761970FB6F894DEBF0FBE94
:100E3000CDBF6E877F87888B998B10927F010E9430
:100E4000E70680E090E0A0E0BEE38A879B87AC875E
:100E5000BD876A857B858C859D8520E030E040E8F4
:100E600053E40E941F02DC01CB01BC01CD0120E054
:100E700030E040E853E40E941F02DC01CB018A8786
:100E80009B87AC87BD878E859F85A889B98928EE09
:100E900033E040E050E0BC01CD010E940A10DC01CB
:100EA000CB01BC01CD010E947904DC01CB01BC0166
:100EB000CD012A853B854C855D850E94F50318167A
:100EC0000CF449C06E857F85888999890E947904D0
:100ED0007B018C016A857B858C859D8520E030E0D7
:100EE0004AE754E40E941903DC01CB019C01AD01E7
:100EF000C801B7010E941903DC01CB018E839F83D7
:100F0000A887B9876E817F818885998520E030E048
:100F100040E853E40E941F02DC01CB01BC01CD017B
:100F20000E944900DC01CB01898381E090E0A0E0D0
:100F3000B0E080937B0190937C01A0937D01B093FE
:100F40007E018981819580937A01E2E5F0E08091CC
:100F50007A0180837FC06E857F85888999890E9408
:100F600079047B018C016A857B858C859D8520E0D9
:100F700030E04AE754E40E941903DC01CB019C01F4
:100F8000AD01C801B7010E941903DC01CB018E83BA
:100F90009F83A887B9876E857F85888999890E94F4
:100FA00079047B018C016A857B858C859D8520E099
:100FB00030E04AE754E40E941903DC01CB019C01B4
:100FC000AD01C801B7010E941903DC01CB01BC01CE
:100FD000CD010E944900DC01CB018A839B83AC8355
:100FE000BD836A817B818C819D810E9479049B01F4
:100FF000AC016E817F81888599850E94C101DC01E9
:10100000CB01BC01CD0120E030E040E853E40E9478
:101010001F02DC01CB01BC01CD010E944900DC01B3
:10102000CB0189838A819B81AC81BD810196A11D01
:10103000B11D80937B0190937C01A0937D01B093BF
:101040007E018981819580937A01E2E5F0E08091CB
:101050007A018083E8E5F0E08081882F90E081705C
:101060009070009721F480917F01882399F3619615
:101070000FB6F894DEBF0FBECDBFCF91DF911F91A9
:101080000F91FF90EF900895DF93CF9300D0CDB7ED
:10109000DEB79A83898389819A81909375018093C1
:1010A00074010F900F90CF91DF9108951F920F92CE
:1010B0000FB60F9211242F933F934F935F936F932B
:1010C0007F938F939F93AF93BF93EF93FF93DF93A0
:1010D000CF93CDB7DEB78091680190916901A0915F
:1010E0006A01B0916B010196A11DB11D8093680149
:1010F00090936901A0936A01B0936B0120916801FC
:101100003091690140916A0150916B0180917B019E
:1011100090917C01A0917D01B0917E012817390743
:101120004A075B07A9F410926801109269011092B6
:101130006A0110926B01E2E5F0E080917A01808310
:10114000E0917401F0917501099581E080937F0130
:10115000CF91DF91FF91EF91BF91AF919F918F91CF
:101160007F916F915F914F913F912F910F900FBEA3
:101170000F901F901895DF93CF93CDB7DEB7A5E4FE
:10118000B0E0E5E4F0E080818F7B8C93A5E4B0E0F3
:10119000E5E4F0E0808188608C93A9E5B0E0E9E5C2
:1011A000F0E0808180688C93A5E4B0E0E5E4F0E0B5
:1011B0008081887F86608C93CF91DF910895DF9343
:1011C000CF9300D000D00F92CDB7DEB789834A838A
:1011D0005B836C837D8381E06FEF0E94740E1092BD
:1011E0007F018A819B81AC81BD8180937B0190933B
:1011F0007C01A0937D01B0937E01E3E4F0E089815E
:1012000080830E94BB08E8E5F0E08081882324F019
:1012100080917F018823B9F3A8E5B0E0E8E5F0E02C
:10122000808180688C93E5E4F0E010820F900F904D
:101230000F900F900F90CF91DF910895DF93CF9390
:1012400000D0CDB7DEB79A83898389819A81909344
:101250007901809378010F900F90CF91DF910895DD
:10126000DF93CF93CDB7DEB7A5E4B0E0E5E4F0E0DF
:1012700080818F7B8C93A5E4B0E0E5E4F0E0808191
:10128000877F8C93A9E5B0E0E9E5F0E08081806498
:101290008C93A5E4B0E0E5E4F0E08081887F86608F
:1012A0008C93CF91DF910895EF92FF920F931F934C
:1012B000DF93CF93CDB7DEB761970FB6F894DEBF5B
:1012C0000FBECDBF6E877F87888B998B10927F0171
:1012D0000E94300980E090E0A0E0BEE38A879B870F
:1012E000AC87BD876A857B858C859D8520E030E055
:1012F00040E853E40E941F02DC01CB01BC01CD0198
:1013000020E030E040E853E40E941F02DC01CB0102
:101310008A879B87AC87BD8781E061E041E00E94BE
:101320007E0C8E859F85A889B98928EE33E040E040
:1013300050E0BC01CD010E940A10DC01CB01BC01D0
:10134000CD010E947904DC01CB01BC01CD012A85CD
:101350003B854C855D850E94F50318160CF44EC044
:1013600081E067E041E00E947E0C6E857F85888980
:1013700099890E9479047B018C016A857B858C8523
:101380009D8520E030E04AE754E40E941903DC0127
:10139000CB019C01AD01C801B7010E941903DC011A
:1013A000CB018E839F83A887B9876E817F818885D3
:1013B000998520E030E040E853E40E941F02DC0100
:1013C000CB01BC01CD010E944900DC01CB01898326
:1013D00081E090E0A0E0B0E080937B0190937C01FD
:1013E000A0937D01B0937E018981819580937A01DC
:1013F000E4E4F0E080917A01808384C081E066E0DB
:1014000041E00E947E0C6E857F85888999890E94C3
:1014100079047B018C016A857B858C859D8520E024
:1014200030E04AE754E40E941903DC01CB019C013F
:10143000AD01C801B7010E941903DC01CB018E8305
:101440009F83A887B9876E857F85888999890E943F
:1014500079047B018C016A857B858C859D8520E0E4
:1014600030E04AE754E40E941903DC01CB019C01FF
:10147000AD01C801B7010E941903DC01CB01BC0119
:10148000CD010E944900DC01CB018A839B83AC83A0
:10149000BD836A817B818C819D810E9479049B013F
:1014A000AC016E817F81888599850E94C101DC0134
:1014B000CB01BC01CD0120E030E040E853E40E94C4
:1014C0001F02DC01CB01BC01CD010E944900DC01FF
:1014D000CB0189838A819B81AC81BD810196A11D4D
:1014E000B11D80937B0190937C01A0937D01B0930B
:1014F0007E018981819580937A01E4E4F0E0809116
:101500007A018083E8E5F0E0808182958695869572
:101510008370882F90E081709070009721F4809103
:101520007F01882379F361960FB6F894DEBF0FBE72
:10153000CDBFCF91DF911F910F91FF90EF90089554
:10154000DF93CF9300D0CDB7DEB79A8389838981AB
:101550009A8190937701809376010F900F90CF91AD
:10156000DF9108951F920F920FB60F9211242F93BF
:101570003F934F935F936F937F938F939F93AF931B
:10158000BF93EF93FF93DF93CF93CDB7DEB78091F7
:101590006C0190916D01A0916E01B0916F01019667
:1015A000A11DB11D80936C0190936D01A0936E01FC
:1015B000B0936F0120916C0130916D0140916E01EB
:1015C00050916F0180917B0190917C01A0917D01F0
:1015D000B0917E01281739074A075B07A9F41092DA
:1015E0006C0110926D0110926E0110926F01E4E493
:1015F000F0E080917A018083E0917601F0917701AB
:10160000099581E080937F01CF91DF91FF91EF9168
:10161000BF91AF919F918F917F916F915F914F910A
:101620003F912F910F900FBE0F901F9018951F9212
:101630000F920FB60F9211242F933F934F935F9306
:101640006F937F938F939F93AF93BF93EF93FF938A
:10165000DF93CF93CDB7DEB7809170019091710188
:10166000A0917201B09173010196A11DB11D8093EB
:10167000700190937101A0937201B0937301209156
:101680007B0130917C0140917D0150917E018091E0
:10169000700190917101A0917201B09173012817AE
:1016A00039074A075B07B9F4E0917801F0917901B5
:1016B00009951092700110927101109272011092AE
:1016C0007301A8E5B0E0E8E5F0E0808180688C93E4
:1016D00081E080937F01CF91DF91FF91EF91BF91E6
:1016E000AF919F918F917F916F915F914F913F91BA
:1016F0002F910F900FBE0F901F901895DF93CF93EF
:10170000CDB7DEB727970FB6F894DEBF0FBECDBFBB
:1017100089836A834B838B81813009F06FC0898113
:10172000282F30E03F832E838E819F818130910569
:1017300049F12E813F81223031052CF48E819F8129
:10174000009761F0D2C02E813F812230310571F1C6
:101750008E819F8183309105E9F1C7C0AAE3B0E093
:10176000EAE3F0E08081482F8A81282F30E081E091
:1017700090E0022E02C0880F991F0A94E2F7842B92
:101780008C93B3C0A7E3B0E0E7E3F0E08081482F9B
:101790008A81282F30E081E090E0022E02C0880F7D
:1017A000991F0A94E2F7842B8C939FC0A4E3B0E0C6
:1017B000E4E3F0E08081482F8A81282F30E081E047
:1017C00090E0022E02C0880F991F0A94E2F7842B42
:1017D0008C938BC0A1E3B0E0E1E3F0E08081482F7F
:1017E0008A81282F30E081E090E0022E02C0880F2D
:1017F000991F0A94E2F7842B8C9377C08B818823FE
:1018000009F073C08981282F30E03D832C838C81BF
:101810009D818130910559F12C813D812230310526
:101820002CF48C819D81009769F05FC02C813D81F3
:101830002230310589F18C819D818330910509F435
:1018400040C053C0AAE3B0E0EAE3F0E08081482F53
:101850008A81282F30E081E090E0022E02C0880FBC
:10186000991F0A94E2F7809584238C933EC0A7E3E6
:10187000B0E0E7E3F0E08081482F8A81282F30E054
:1018800081E090E0022E02C0880F991F0A94E2F7CF
:10189000809584238C9329C0A4E3B0E0E4E3F0E0D6
:1018A0008081482F8A81282F30E081E090E0022E4D
:1018B00002C0880F991F0A94E2F7809584238C93C5
:1018C00014C0A1E3B0E0E1E3F0E08081482F8A8119
:1018D000282F30E081E090E0022E02C0880F991F8F
:1018E0000A94E2F7809584238C9327960FB6F89498
:1018F000DEBF0FBECDBFCF91DF910895DF93CF93B1
:10190000CDB7DEB727970FB6F894DEBF0FBECDBFB9
:1019100089836A834B838B81813009F06FC0898111
:10192000282F30E03F832E838E819F818130910567
:1019300049F12E813F81223031052CF48E819F8127
:10194000009761F0D2C02E813F812230310571F1C4
:101950008E819F8183309105E9F1C7C0ABE3B0E090
:10196000EBE3F0E08081482F8A81282F30E081E08E
:1019700090E0022E02C0880F991F0A94E2F7842B90
:101980008C93B3C0A8E3B0E0E8E3F0E08081482F97
:101990008A81282F30E081E090E0022E02C0880F7B
:1019A000991F0A94E2F7842B8C939FC0A5E3B0E0C3
:1019B000E5E3F0E08081482F8A81282F30E081E044
:1019C00090E0022E02C0880F991F0A94E2F7842B40
:1019D0008C938BC0A2E3B0E0E2E3F0E08081482F7B
:1019E0008A81282F30E081E090E0022E02C0880F2B
:1019F000991F0A94E2F7842B8C9377C08B818823FC
:101A000009F073C08981282F30E03D832C838C81BD
:101A10009D818130910559F12C813D812230310524
:101A20002CF48C819D81009769F05FC02C813D81F1
:101A30002230310589F18C819D818330910509F433
:101A400040C053C0ABE3B0E0EBE3F0E08081482F4F
:101A50008A81282F30E081E090E0022E02C0880FBA
:101A6000991F0A94E2F7809584238C933EC0A8E3E3
:101A7000B0E0E8E3F0E08081482F8A81282F30E051
:101A800081E090E0022E02C0880F991F0A94E2F7CD
:101A9000809584238C9329C0A5E3B0E0E5E3F0E0D2
:101AA0008081482F8A81282F30E081E090E0022E4B
:101AB00002C0880F991F0A94E2F7809584238C93C3
:101AC00014C0A2E3B0E0E2E3F0E08081482F8A8115
:101AD000282F30E081E090E0022E02C0880F991F8D
:101AE0000A94E2F7809584238C9327960FB6F89496
:101AF000DEBF0FBECDBFCF91DF910895DF93CF93AF
:101B000000D000D00F92CDB7DEB78A836B838A8175
:101B1000282F30E03D832C834C815D81413051057D
:101B200041F18C819D818230910534F42C813D817D
:101B30002115310561F052C04C815D814230510563
:101B400051F18C819D8183309105B9F147C0E9E362
:101B5000F0E08081282F30E08B81882F90E0A90170
:101B600002C0559547958A95E2F7CA01817089832D
:101B700035C0E6E3F0E08081282F30E08B81882FAC
:101B800090E0A90102C0559547958A95E2F7CA01F0
:101B90008170898323C0E3E3F0E08081282F30E067
:101BA0008B81882F90E0A90102C0559547958A95B1
:101BB000E2F7CA018170898311C0E0E3F0E080811F
:101BC000282F30E08B81882F90E0A90102C0559525
:101BD00047958A95E2F7CA018170898389810F90C0
:101BE0000F900F900F900F90CF91DF910895DF939A
:101BF000CF9300D000D0CDB7DEB789836A838981C7
:101C0000282F30E03C832B838B819C818130910590
:101C100049F12B813C81223031052CF48B819C8150
:101C2000009761F05AC02B813C812230310571F15F
:101C30008B819C8183309105E9F14FC0ABE3B0E02B
:101C4000EBE3F0E08081482F8A81282F30E081E0AB
:101C500090E0022E02C0880F991F0A94E2F78427B1
:101C60008C933BC0A8E3B0E0E8E3F0E08081482F2C
:101C70008A81282F30E081E090E0022E02C0880F98
:101C8000991F0A94E2F784278C9327C0A5E3B0E05C
:101C9000E5E3F0E08081482F8A81282F30E081E061
:101CA00090E0022E02C0880F991F0A94E2F7842761
:101CB0008C9313C0A2E3B0E0E2E3F0E08081482F10
:101CC0008A81282F30E081E090E0022E02C0880F48
:101CD000991F0A94E2F784278C930F900F900F902E
:101CE0000F90CF91DF910895DF93CF9300D000D074
:101CF000CDB7DEB789836A838981282F30E03C83A2
:101D00002B838B819C8181309105D1F02B813C818B
:101D1000223031052CF48B819C81009761F01EC02C
:101D20002B813C812230310581F08B819C81833075
:101D3000910581F013C0EAE3F0E08A8180830EC050
:101D4000E7E3F0E08A81808309C0E4E3F0E08A8180
:101D5000808304C0E1E3F0E08A8180830F900F90DC
:101D60000F900F90CF91DF910895DF93CF9300D024
:101D700000D0CDB7DEB789836A838981282F30E010
:101D80003C832B838B819C8181309105D1F02B8109
:101D90003C81223031052CF48B819C81009761F0CD
:101DA0001EC02B813C812230310581F08B819C81CA
:101DB0008330910581F013C0EBE3F0E08A818083EA
:101DC0000EC0E8E3F0E08A81808309C0E5E3F0E03B
:101DD0008A81808304C0E2E3F0E08A8180830F90EF
:101DE0000F900F900F90CF91DF910895DF93CF93D5
:101DF000CDB7DEB7ABE5B0E0EBE5F0E08081806425
:101E00008C93A5E5B0E0E5E5F0E0808181608C93FE
:101E1000A5E5B0E0E5E5F0E080818D7F8C93ABE552
:101E2000B0E0EBE5F0E0808180688C93A5E5B0E060
:101E3000E5E5F0E0808184608C93A5E5B0E0E5E520
:101E4000F0E08081877F8C93CF91DF910895DF93BD
:101E5000CF93CDB7DEB7AFE5B0E0EFE5F0E080813E
:101E600080688C93CF91DF910895DF93CF9300D05A
:101E70000F92CDB7DEB789837B836A838981882FF0
:101E800090E0880F991FFC01E058FE4F8A819B81EA
:101E9000918380830F900F900F90CF91DF910895E1
:101EA0001F920F920FB60F9211242F933F934F93CF
:101EB0005F936F937F938F939F93AF93BF93EF93B2
:101EC000FF93DF93CF93CDB7DEB7809180019091E0
:101ED0008101009729F0E0918001F091810109953D
:101EE000CF91DF91FF91EF91BF91AF919F918F9132
:101EF0007F916F915F914F913F912F910F900FBE06
:101F00000F901F9018951F920F920FB60F921124E9
:101F10002F933F934F935F936F937F938F939F93F1
:101F2000AF93BF93EF93FF93DF93CF93CDB7DEB71C
:101F30008091820190918301009729F0E0918201C4
:101F4000F09183010995CF91DF91FF91EF91BF91BE
:101F5000AF919F918F917F916F915F914F913F9141
:101F60002F910F900FBE0F901F9018951F920F92F8
:101F70000FB60F9211242F933F934F935F936F935C
:101F80007F938F939F93AF93BF93EF93FF93DF93D1
:101F9000CF93CDB7DEB780918401909185010097F2
:101FA00029F0E0918401F09185010995CF91DF91AD
:101FB000FF91EF91BF91AF919F918F917F916F9121
:101FC0005F914F913F912F910F900FBE0F901F90F7
:101FD0001895DF93CF93CDB7DEB780E060E041E0A6
:101FE0000E947E0B0E94270F8FEF9FE00E94A00AA5
:101FF00068EE73E080E090E00E945409F9CFDF932F
:10200000CF93CDB7DEB780E060E00E94F70DCF91AF
:10201000DF910895629FD001739FF001829FE00DD0
:10202000F11D649FE00DF11D929FF00D839FF00D57
:10203000749FF00D659FF00D9927729FB00DE11D03
:10204000F91F639FB00DE11DF91FBD01CF011124E0
:1020500008952F923F924F925F926F927F928F924C
:102060009F92AF92BF92CF92DF92EF92FF920F9327
:102070001F93CF93DF93CDB7DEB7CA1BDB0B0FB631
:10208000F894DEBF0FBECDBF09942A8839884888EE
:102090005F846E847D848C849B84AA84B984C88484
:1020A000DF80EE80FD800C811B81AA81B981CE0F7B
:1020B000D11D0FB6F894DEBF0FBECDBFED01089560
:0420C000F894FFCFC2
:1020C40000000000000000000001020203030303FB
:1020D40004040404040404040505050505050505B4
:1020E4000505050505050505060606060606060694
:1020F400060606060606060606060606060606067C
:102104000606060606060606070707070707070763
:10211400070707070707070707070707070707074B
:10212400070707070707070707070707070707073B
:10213400070707070707070707070707070707072B
:102144000707070707070707080808080808080813
:1021540008080808080808080808080808080808FB
:1021640008080808080808080808080808080808EB
:1021740008080808080808080808080808080808DB
:1021840008080808080808080808080808080808CB
:1021940008080808080808080808080808080808BB
:1021A40008080808080808080808080808080808AB
:1021B400080808080808080808080808080808089B
:0821C4000808080808080808D3
:00000001FF
