:100000000C942A000C948B100C94BE100C94F110DC
:100010000C94900F0C94250F0C9447000C944700FF
:100020000C9447000C9447000C94DF0B0C94740B59
:100030000C9447000C9447000C9447000C94470024
:100040000C9447000C9447000C9447000C94470014
:100050000C94470011241FBECFE5D8E0DEBFCDBF12
:1000600012E0A0E6B0E0E6E9F8E402C005900D92E7
:10007000A832B107D9F712E0A8E2B2E001C01D92A0
:10008000AC35B107E1F70E947B210C9449240C9414
:100090000000EF92FF920F93DF93CF93CDB7DEB7BF
:1000A00060970FB6F894DEBF0FBECDBFA82F002318
:1000B00009F461C07E010894E11CF11C88E0F7019D
:1000C00011928A95E9F729833A834B835C836D8388
:1000D0007E83AF83988780E2801BE82FFF27E7FDB0
:1000E000F09549815A816B817C81181684F01986BC
:1000F0001A861B861C86882799278E1B9F0B04C097
:10010000440F551F661F771F8A95D2F728C0202FEE
:10011000332727FD3095DB01CA01022E04C0880F6A
:10012000991FAA1FBB1F0A94D2F789879A87AB87AA
:10013000BC8704C07695679557954795EA95D2F7A1
:100140008D819E81AF81B88504C0880F991FAA1F39
:10015000BB1F2A95D2F7482B592B6A2B7B2B4D8737
:100160005E876F87788B29853A854B855C856D85A1
:100170007E85AF8598898A2F60960FB6F894DEBF8A
:100180000FBECDBFCF91DF910F91FF90EF900895FB
:10019000EF92FF920F931F937B018C0120E030E0E0
:1001A00040E05FE40E94500588238CF0C801B7014D
:1001B00020E030E040E05FE40E941C030E943E0625
:1001C0009B01AC01205030404040504806C0C8015F
:1001D000B7010E943E069B01AC01B901CA011F9103
:1001E0000F91FF90EF900895A2E0B0E0EAEFF0E009
:1001F0000C941224122FB32EA42E952E862E372E59
:10020000282E9A83C22ED32EE42EF52EA701960116
:1002100060E070E080E090E02117A1F43B1591F4DC
:100220004A1581F4591571F4681561F4731551F488
:10023000821541F4AA819A1729F4C701B6010E94D8
:100240009206AAC0212F3B2D4A2D592D682D732DC2
:10025000822D9A8100E20E940B07C901DA018030E9
:10026000E0E09E07E1E0AE07E0E0BE0780F48F3FEC
:100270009105A105B10531F028F028E030E040E01B
:1002800050E016C020E030E040E050E011C0803087
:10029000F0E09F07F0E0AF07F1E0BF0728F028E1AA
:1002A00030E040E050E004C020E130E040E050E0C9
:1002B000022E04C0B695A795979587950A94D2F714
:1002C000FC01E15FFE4F808129013A01480E511C7B
:1002D000611C711C4982212F3B2D4A2D592D682DFF
:1002E000732D822D9A81042D0E940B07C901DA011A
:1002F0004C015D0180E290E08419950904C0CC0CAA
:10030000DD1CEE1CFF1C8A95D2F7C114D104E10458
:10031000F10441F081E090E0A0E0B0E0882A992A61
:10032000AA2ABB2A90E2491651046104710459F4C7
:100330000F2EF0E0EF2EF0E0FF2EF0E80F2FFFE49D
:100340001F2FF02D21C0AFE14A1651046104710442
:1003500059F40F2EF0E0EF2EF0E0FF2EF0E00F2F1B
:10036000FFE41F2FF02D10C061E070E080E090E00E
:10037000098004C0660F771F881F991F0A94D2F75F
:100380000E94E0057B018C01C501B4010E94920628
:10039000A80197010E947A032296E2E10C942E2490
:1003A000A0E0B0E0E6EDF1E00C941224DC012B01BA
:1003B000FA019C91923008F439C1EB0188818230B6
:1003C00008F433C1943069F4843009F02FC11196D8
:1003D0009C9111978981981709F428C1A7E0B1E091
:1003E00025C1843009F421C18230A9F4923009F08A
:1003F0001DC19A01AD0188E0EA010990AE01E90151
:1004000009929E018150C1F7E201898111969C9168
:100410008923818308C1923009F407C112962D9077
:100420003C901397EB018A819B811496AD90BD900F
:10043000CD90DC901797EC80FD800E811F8191019B
:10044000281B390BB90137FF04C066277727621BC9
:10045000730B603271050CF061C0121613066CF557
:1004600037014801062E04C09694879477946794C8
:100470000A94D2F721E030E040E050E004C0220FBF
:10048000331F441F551F6A95D2F72150304040401A
:1004900050402E213F214023512321153105410594
:1004A000510521F021E030E040E050E079018A017F
:1004B000E628F728082919293CC0232BD1F1260E5C
:1004C000371E35014601062E04C096948794779412
:1004D00067940A94D2F721E030E040E050E004C095
:1004E000220F331F441F551F6A95D2F72150304009
:1004F000404050402A213B214C215D2121153105EE
:100500004105510521F021E030E040E050E0590183
:100510006A01A628B728C828D9280BC082159305D8
:100520002CF01C01AA24BB24650103C0EE24FF2487
:10053000870111969C91D20111968C91981709F41C
:1005400045C0992339F0A80197012A193B094C09A4
:100550005D0906C0A60195012E193F09400B510BFC
:1005600057FD08C01182338222822483358346835B
:1005700057831DC081E08183338222828827992797
:10058000DC01821B930BA40BB50B84839583A6839C
:10059000B7830DC0220F331F441F551F248335839B
:1005A0004683578382819381019793838283248139
:1005B000358146815781DA01C9010197A109B10945
:1005C0008F5F9F4FAF4FBF4328F30BC091833382A0
:1005D0002282EA0CFB1C0C1D1D1DE482F5820683A1
:1005E000178383E08083248135814681578157FFBB
:1005F0001AC0C901AA2797FDA095BA2F81709070E3
:10060000A070B0705695479537952795822B932B00
:10061000A42BB52B84839583A683B7838281938192
:10062000019693838283DF0101C0D201CD01CDB752
:10063000DEB7E2E10C942E24A0E2B0E0E2E2F3E0C7
:100640000C941E2469837A838B839C832D833E8341
:100650004F835887E9E0EE2EF12CEC0EFD1ECE0103
:100660000196B7010E94AE088E010F5E1F4FCE01AA
:100670000596B8010E94AE088A8991E089278A8B85
:10068000C701B801AE01475E5F4F0E94D0010E94D2
:10069000D907A096E6E00C943A24A0E2B0E0E3E5A6
:1006A000F3E00C941E2469837A838B839C832D83CF
:1006B0003E834F835887F9E0EF2EF12CEC0EFD1EA0
:1006C000CE010196B7010E94AE088E010F5E1F4F4A
:1006D000CE010596B8010E94AE08C701B801AE016F
:1006E000475E5F4F0E94D0010E94D907A096E6E0C6
:1006F0000C943A24A0E2B0E0E0E8F3E00C94122479
:1007000069837A838B839C832D833E834F835887B1
:10071000CE010196BE01675F7F4F0E94AE08CE01F9
:100720000596BE016F5E7F4F0E94AE08998592309C
:1007300088F089898230C8F0943019F4823051F4FD
:1007400004C0843029F4923081F487E091E0C6C07F
:10075000923049F420E09A858A89981321E02A870B
:10076000CE010996BBC0823049F420E09A858A897F
:10077000981321E02A8BCE014196B0C02D843E848F
:100780004F8458886D887E888F88988CEE24FF244B
:100790008701AA24BB24650140E050E060E070E0DE
:1007A000E0E0F0E0C10181709070892BE9F0E60C87
:1007B000F71C081D191D9A01AB012A0D3B1D4C1D8C
:1007C0005D1D80E090E0A0E0B0E0E614F7040805CD
:1007D000190520F481E090E0A0E0B0E0BA01A901A1
:1007E000480F591F6A1F7B1FAA0CBB1CCC1CDD1CA9
:1007F00097FE08C081E090E0A0E0B0E0A82AB92A06
:10080000CA2ADB2A3196E032F10549F0660C771CE2
:10081000881C991C5694479437942794C3CFFA8523
:10082000EA892B893C898B859C85280F391F2E5F8F
:100830003F4F17C0CA0181709070892B61F01695E7
:100840000795F794E79480E090E0A0E0B0E8E82A0C
:10085000F92A0A2B1B2B76956795579547952F5F9D
:100860003F4F77FDE7CF0CC0440F551F661F771F22
:1008700017FD4160EE0CFF1C001F111F215030407E
:10088000403090E0590790E0690790E4790760F301
:100890002B8F3C8FDB01CA018F779070A070B070F6
:1008A00080349105A105B10561F447FD0AC0E1144A
:1008B000F1040105110529F0405C5F4F6F4F7F4F38
:1008C00040781A8EFE1711F081E08A8F4D8F5E8F6F
:1008D0006F8F78A383E0898FCE0149960E94D90754
:1008E000A096E2E10C942E24A8E1B0E0EAE7F4E05F
:1008F0000C941A2469837A838B839C832D833E8393
:100900004F835887B9E0EB2EF12CEC0EFD1ECE0183
:100910000196B7010E94AE088E010F5E1F4FCE01F7
:100920000596B8010E94AE082985223008F47EC0E1
:100930003989323010F4B8017CC08A859A898927B8
:100940008A87243011F0223031F4231709F06EC069
:1009500067E071E06EC0343039F41D861E861F8654
:10096000188A1C861B8604C0323021F484E08987F3
:10097000B7015FC02B853C858B899C89281B390B6F
:100980003C872B87ED84FE840F851889AD88BE884F
:10099000CF88D88CEA14FB040C051D0540F4EE0C3E
:1009A000FF1C001F111F215030403C872B8720E087
:1009B00030E040E050E080E090E0A0E0B0E460E0B3
:1009C00070E0EA14FB040C051D0540F0282B392BC0
:1009D0004A2B5B2BEA18FB080C091D09B695A79555
:1009E00097958795EE0CFF1C001F111F6F5F7F4FBF
:1009F0006F31710531F7DA01C9018F779070A070FE
:100A0000B07080349105A105B10561F427FD0AC0DD
:100A1000E114F1040105110529F0205C3F4F4F4F0F
:100A20005F4F20782D873E874F87588BBE01675FC9
:100A30007F4FCB010E94D9076896EAE00C943624D8
:100A4000A8E1B0E0E6E2F5E00C941E2469837A8325
:100A50008B839C832D833E834F83588789E0E82EC8
:100A6000F12CEC0EFD1ECE010196B7010E94AE08DE
:100A70008E010F5E1F4FCE010596B8010E94AE0891
:100A80008985823040F08989823028F0C701B80119
:100A90000E94260901C08FEF6896E6E00C943A2484
:100AA000A8E1B0E0E6E5F5E00C941E2469837A83C2
:100AB0008B839C832D833E834F83588789E0E82E68
:100AC000F12CEC0EFD1ECE010196B7010E94AE087E
:100AD0008E010F5E1F4FCE010596B8010E94AE0831
:100AE0008985823040F08989823028F0C701B801B9
:100AF0000E94260901C08FEF6896E6E00C943A2424
:100B0000A8E1B0E0E6E8F5E00C941E2469837A835E
:100B10008B839C832D833E834F83588789E0E82E07
:100B2000F12CEC0EFD1ECE010196B7010E94AE081D
:100B30008E010F5E1F4FCE010596B8010E94AE08D0
:100B40008985823040F08989823028F0C701B80158
:100B50000E94260901C081E06896E6E00C943A24E0
:100B6000A8E1B0E0E6EBF5E00C941E2469837A83FB
:100B70008B839C832D833E834F83588789E0E82EA7
:100B8000F12CEC0EFD1ECE010196B7010E94AE08BD
:100B90008E010F5E1F4FCE010596B8010E94AE0870
:100BA0008985823040F08989823028F0C701B801F8
:100BB0000E94260901C081E06896E6E00C943A2480
:100BC000A8E0B0E0E6EEF5E00C941B249B01AC013C
:100BD00083E08983DA01C9018827B7FD83959927C6
:100BE000AA27BB27B82E211531054105510519F457
:100BF00082E089833AC08823A9F0203080E038075A
:100C000080E0480780E8580729F460E070E080E061
:100C10009FEC30C0EE24FF248701E21AF30A040B94
:100C2000150B02C079018A018EE1C82ED12CDC821D
:100C3000CB82ED82FE820F831887C801B7010E9424
:100C40008A0701971816190684F4082E04C0EE0CC2
:100C5000FF1C001F111F0A94D2F7ED82FE820F8342
:100C60001887C81AD90ADC82CB82BA82CE010196D3
:100C70000E94D9072896E9E00C943724ACE0B0E054
:100C8000E4E4F6E00C94222469837A838B839C83CA
:100C9000CE010196BE016B5F7F4F0E94AE088D8131
:100CA000823061F1823050F1843021F48E818823CA
:100CB00051F12EC02F81388537FD20C06E812F3134
:100CC00031051CF06623F9F023C08EE190E0821B11
:100CD000930B29853A854B855C8504C056954795CD
:100CE000379527958A95D2F76623B1F050954095B0
:100CF000309521953F4F4F4F5F4F0EC020E030E0C1
:100D000040E050E009C02FEF3FEF4FEF5FE704C036
:100D100020E030E040E050E8B901CA012C96E2E062
:100D20000C943E24A8E0B0E0E8E9F6E00C941A2424
:100D30007B018C01611571058105910519F482E033
:100D4000898360C083E089838EE1C82ED12CDC8248
:100D5000CB82ED82FE820F831887C801B7010E9403
:100D60008A07FC013197F7FF3BC0222733272E1B50
:100D70003F0B57016801022E04C0D694C794B79464
:100D8000A7940A94D2F740E050E060E070E081E080
:100D900090E0A0E0B0E004C0880F991FAA1FBB1F1D
:100DA0002A95D2F70197A109B1098E219F21A0238D
:100DB000B1230097A105B10521F041E050E060E0CA
:100DC00070E04A295B296C297D294D835E836F83FE
:100DD00078878EE190E08E1B9F0B9C838B8312C0E3
:100DE000309781F00E2E04C0EE0CFF1C001F111F67
:100DF0000A94D2F7ED82FE820F831887CE1ADF0A9B
:100E0000DC82CB821A82CE0101960E94D9072896F5
:100E1000EAE00C943624EF92FF920F93DF93CF9386
:100E2000CDB7DEB760970FB6F894DEBF0FBECDBF6B
:100E3000A82F002309F461C07E010894E11CF11C75
:100E400088E0F70111928A95E9F729833A834B8369
:100E50005C836D837E83AF83988780E2801BE82F5D
:100E6000FF27E7FDF0954D815E816F81788518162B
:100E700084F01D861E861F86188A882799278E1B58
:100E80009F0B04C076956795579547958A95D2F73D
:100E900028C0202F332727FD3095DB01CA01022E01
:100EA00004C0B695A795979587950A94D2F78D8734
:100EB0009E87AF87B88B04C0440F551F661F771FEE
:100EC000EA95D2F789819A81AB81BC8104C0B6953D
:100ED000A795979587952A95D2F7482B592B6A2B7A
:100EE0007B2B49875A876B877C8729853A854B8579
:100EF0005C856D857E85AF8598898A2F60960FB653
:100F0000F894DEBF0FBECDBFCF91DF910F91FF9060
:100F1000EF900895EF92FF920F931F937B018C0146
:100F200080E0E81680E0F80681E0080780E0180716
:100F300088F48FEFE816F1040105110531F028F06F
:100F400088E090E0A0E0B0E017C080E090E0A0E092
:100F5000B0E012C080E0E81680E0F80680E0080704
:100F600081E0180728F088E190E0A0E0B0E004C03C
:100F700080E190E0A0E0B0E020E230E040E050E02E
:100F8000281B390B4A0B5B0B04C016950795F79489
:100F9000E7948A95D2F7F701E15FFE4F8081281B25
:100FA000310941095109C9011F910F91FF90EF903B
:100FB0000895DF92EF92FF920F931F93FC01E4805C
:100FC000F58006811781D1808081823048F480E0ED
:100FD00090E0A0E1B0E0E82AF92A0A2B1B2BA5C07B
:100FE000843009F49FC0823021F4EE24FF2487016D
:100FF00005C0E114F1040105110519F4E0E0F0E089
:1010000096C0628173819FEF623879070CF05BC0F4
:1010100022E83FEF261B370B2A3131052CF020E068
:1010200030E040E050E02AC0B801A701022E04C021
:1010300076956795579547950A94D2F781E090E0A9
:10104000A0E0B0E004C0880F991FAA1FBB1F2A951B
:10105000D2F70197A109B1098E219F21A023B123C5
:101060000097A105B10521F081E090E0A0E0B0E09B
:101070009A01AB01282B392B4A2B5B2BDA01C901D2
:101080008F779070A070B07080349105A105B10584
:1010900039F427FF09C0205C3F4F4F4F5F4F04C01A
:1010A000215C3F4F4F4F5F4FE0E0F0E02030A0E089
:1010B0003A07A0E04A07A0E45A0710F0E1E0F0E0A8
:1010C00079018A0127C06038710564F5FB01E15898
:1010D000FF4FD801C7018F779070A070B070803437
:1010E0009105A105B10539F4E7FE0DC080E490E05B
:1010F000A0E0B0E004C08FE390E0A0E0B0E0E80E34
:10110000F91E0A1F1B1F17FF05C016950795F794B8
:10111000E794319687E016950795F794E7948A95BA
:10112000D1F705C0EE24FF248701EFEFF0E06E2F2A
:10113000679566276795902F9F77D794DD24D7947E
:101140008E2F8695492F462B582F5D29B701CA014E
:101150001F910F91FF90EF90DF900895FC01DB014C
:10116000408151812281622F6F7770E0221F2227F8
:10117000221F9381892F880F822B282F30E0991FFF
:101180009927991F11969C93119721153105A9F55F
:10119000411551056105710511F482E037C082E8FF
:1011A0009FEF13969C938E9312979A01AB0167E081
:1011B000220F331F441F551F6A95D1F783E08C938C
:1011C0000DC0220F331F441F551F12968D919C9105
:1011D0001397019713969C938E931297203080E07B
:1011E000380780E0480780E4580758F314962D9399
:1011F0003D934D935C93179708952F3F310579F4F4
:10120000411551056105710519F484E08C93089529
:1012100064FF03C081E08C9312C01C9210C02F5752
:10122000304013963C932E93129783E08C9387E083
:10123000440F551F661F771F8A95D1F77064149667
:101240004D935D936D937C93179708951F93DC01E5
:10125000FB019C91923008F447C08081823008F4F1
:1012600043C0943051F411961C91843099F58181DA
:10127000682F70E0611B71093FC0843021F092300B
:1012800031F48230B9F18181882389F12DC0119622
:101290001C9111978230F1F081811817D9F41296C0
:1012A0002D913C911397828193818217930794F03B
:1012B00028173907BCF014968D919D910D90BC9123
:1012C000A02D2481358146815781281739074A0787
:1012D0005B0718F4112341F00AC082179307A40793
:1012E000B50740F4112319F061E070E005C06FEF1D
:1012F0007FEF02C060E070E0CB011F910895DF93A3
:10130000CF93CDB7DEB7A3E5B0E0E3E5F0E08081B1
:101310008F7B8C93A3E5B0E0E3E5F0E08081877FED
:101320008C93A9E5B0E0E9E5F0E0808181608C93E1
:10133000A3E5B0E0E3E5F0E08081887F84608C93F2
:10134000CF91DF910895EF92FF920F931F93DF9358
:10135000CF93CDB7DEB761970FB6F894DEBF0FBE5F
:10136000CDBF6E877F87888B998B109245020E9434
:101370007F0980E090E0A0E0BEE38A879B87AC878E
:10138000BD876A857B858C859D8520E030E040E8BF
:1013900053E40E947A03DC01CB01BC01CD0120E0C3
:1013A00030E040E853E40E947A03DC01CB018A87F5
:1013B0009B87AC87BD878E859F85A889B98928EED4
:1013C00033E040E050E0BC01CD010E94AA23DC01E3
:1013D000CB01BC01CD010E949206DC01CB01BC0116
:1013E000CD012A853B854C855D850E94B005181688
:1013F0000CF449C06E857F85888999890E94920680
:101400007B018C016A857B858C859D8520E030E0A1
:101410004AE754E40E947404DC01CB019C01AD0155
:10142000C801B7010E947404DC01CB018E839F8345
:10143000A887B9876E817F818885998520E030E013
:1014400040E853E40E947A03DC01CB01BC01CD01EA
:101450000E94C800DC01CB01898381E090E0A0E01C
:10146000B0E08093410290934202A0934302B09374
:1014700044028981819580934002E2E5F0E0809109
:10148000400280837FC06E857F85888999890E940C
:1014900092067B018C016A857B858C859D8520E089
:1014A00030E04AE754E40E947404DC01CB019C0163
:1014B000AD01C801B7010E947404DC01CB018E8329
:1014C0009F83A887B9876E857F85888999890E94BF
:1014D00092067B018C016A857B858C859D8520E049
:1014E00030E04AE754E40E947404DC01CB019C0123
:1014F000AD01C801B7010E947404DC01CB01BC013D
:10150000CD010E94C800DC01CB018A839B83AC83A0
:10151000BD836A817B818C819D810E9492069B01A3
:10152000AC016E817F81888599850E941C03DC0156
:10153000CB01BC01CD0120E030E040E853E40E9443
:101540007A03DC01CB01BC01CD010E94C800DC01A3
:10155000CB0189838A819B81AC81BD810196A11DCC
:10156000B11D8093410290934202A0934302B09335
:1015700044028981819580934002E2E5F0E0809108
:1015800040028083E8E5F0E08081882F90E0817060
:101590009070009721F480914502882399F3619619
:1015A0000FB6F894DEBF0FBECDBFCF91DF911F9174
:1015B0000F91FF90EF900895DF93CF9300D0CDB7B8
:1015C000DEB79A83898389819A81909329028093D7
:1015D00028020F900F90CF91DF910895DF93CF9362
:1015E000CDB7DEB7A3E5B0E0E3E5F0E080818F7B27
:1015F0008C93A3E5B0E0E3E5F0E0808188608C9314
:10160000A9E5B0E0E9E5F0E0808182608C93A3E594
:10161000B0E0E3E5F0E08081887F84608C93CF9137
:10162000DF910895DF93CF9300D000D00F92CDB714
:10163000DEB789834A835B836C837D831092450286
:101640008A819B81AC81BD8180934102909342024B
:10165000A0934302B09344028A819B81AC81BD81F7
:1016600081309105A105B10529F4ECE5F0E089810F
:10167000808310C08A819B81AC81BD8182309105BD
:10168000A105B10538F0898180934002ECE5F0E0D6
:101690008FEF80830E94EE0AE8E5F0E08081869576
:1016A000882F90E081709070009721F4809145021E
:1016B000882391F30F900F900F900F900F90CF9180
:1016C000DF910895DF93CF9300D0CDB7DEB79A8333
:1016D000898389819A8190932B0280932A020F90AB
:1016E0000F90CF91DF9108951F920F920FB60F9236
:1016F00011242F933F934F935F936F937F938F9317
:101700009F93AF93BF93EF93FF93DF93CF93CDB7A7
:10171000DEB78091300290913102A0913202B091F7
:1017200033020196A11DB11D8093300290933102C6
:10173000A0933202B09333022091300230913102F3
:1017400040913202509133028091410290914202C5
:10175000A0914302B0914402281739074A075B075A
:10176000D9F410923002109231021092320210928B
:101770003302E2E5F0E0809140028083809128020C
:1017800090912902009729F0E0912802F091290216
:10179000099581E080934502CF91DF91FF91EF9110
:1017A000BF91AF919F918F917F916F915F914F9179
:1017B0003F912F910F900FBE0F901F9018951F9281
:1017C0000F920FB60F9211242F933F934F935F9375
:1017D0006F937F938F939F93AF93BF93EF93FF93F9
:1017E000DF93CF93CDB7DEB780913402909135026D
:1017F000A0913602B09137020196A11DB11D8093D0
:10180000340290933502A0933602B09337022091B0
:101810004102309142024091430250914402809132
:10182000340290913502A0913602B0913702281708
:1018300039074A075B07B9F480912A0290912B027D
:10184000009729F0E0912A02F0912B02099510925D
:10185000340210923502109236021092370281E063
:10186000809345023AC08091340290913502A09154
:101870003602B09137029C01AD012F5F3F4F4F4FB1
:101880005F4F8091410290914202A0914302B0913A
:101890004402281739074A075B0731F4ECE5F0E00A
:1018A00080914002808319C0209141023091420210
:1018B000409143025091440280913402909135024C
:1018C000A0913602B0913702281739074A075B0703
:1018D00021F0ECE5F0E08FEF8083CF91DF91FF9175
:1018E000EF91BF91AF919F918F917F916F915F9198
:1018F0004F913F912F910F900FBE0F901F90189511
:10190000DF93CF93CDB7DEB7A3E5B0E0E3E5F0E03A
:10191000808180648C93A3E5B0E0E3E5F0E0808112
:1019200088608C93A3E5B0E0E3E5F0E0808180611E
:101930008C93A3E5B0E0E3E5F0E0808180628C93D6
:10194000A3E5B0E0E3E5F0E08081887F84608C93DC
:10195000CF91DF910895DF93CF930F92CDB7DEB78C
:101960008983ECE5F0E0898180830F90CF91DF914E
:101970000895DF93CF93CDB7DEB7AFE4B0E0EFE4E7
:10198000F0E080818E7F8C93AFE4B0E0EFE4F0E094
:10199000808182608C93AEE4B0E0EEE4F0E0808180
:1019A00088608C93AEE4B0E0EEE4F0E0808180618A
:1019B0008C93AFE4B0E0EFE4F0E080818F7B8C9318
:1019C000AFE4B0E0EFE4F0E0808180688C93AEE4B7
:1019D000B0E0EEE4F0E08081887F81608C93E6E403
:1019E000F0E08FE19EE491838083CF91DF910895B1
:1019F000DF93CF93CDB7DEB7A5E4B0E0E5E4F0E048
:101A000080818F7B8C93A5E4B0E0E5E4F0E08081F9
:101A100088608C93A9E5B0E0E9E5F0E0808180681A
:101A20008C93A5E4B0E0E5E4F0E08081887F8660F7
:101A30008C93CF91DF910895DF93CF9300D000D0A6
:101A40000F92CDB7DEB789834A835B836C837D8336
:101A5000109245028A819B81AC81BD8180934102B5
:101A600090934202A0934302B09344028A819B81E7
:101A7000AC81BD8181309105A105B10529F4E3E474
:101A8000F0E08981808310C08A819B81AC81BD8117
:101A900082309105A105B10538F08981809340021B
:101AA000E3E4F0E08FEF80830E94F80CE8E5F0E0DB
:101AB0008081882324F0809145028823B9F30F9018
:101AC0000F900F900F900F90CF91DF910895DF93BB
:101AD000CF9300D0CDB7DEB79A83898389819A816D
:101AE00090932F0280932E020F900F90CF91DF9151
:101AF0000895DF93CF93CDB7DEB7A5E4B0E0E5E47A
:101B0000F0E080818F7B8C93A5E4B0E0E5E4F0E029
:101B10008081877F8C93A9E5B0E0E9E5F0E08081E2
:101B200080648C93A5E4B0E0E5E4F0E08081887FF8
:101B300086608C93CF91DF910895EF92FF920F937F
:101B40001F93DF93CF93CDB7DEB761970FB6F894AD
:101B5000DEBF0FBECDBF6E877F87888B998B1092BB
:101B600045020E94790D80E090E0A0E0BEE38A8704
:101B70009B87AC87BD876A857B858C859D8520E0AA
:101B800030E040E853E40E947A03DC01CB01BC0161
:101B9000CD0120E030E040E853E40E947A03DC010C
:101BA000CB018A879B87AC87BD878E859F85A88957
:101BB000B98928EE33E040E050E0BC01CD010E943D
:101BC000AA23DC01CB01BC01CD010E949206DC01FD
:101BD000CB01BC01CD012A853B854C855D850E94EA
:101BE000B00518160CF449C06E857F8588899989DF
:101BF0000E9492067B018C016A857B858C859D8580
:101C000020E030E04AE754E40E947404DC01CB0198
:101C10009C01AD01C801B7010E947404DC01CB0135
:101C20008E839F83A887B9876E817F8188859985F8
:101C300020E030E040E853E40E947A03DC01CB016D
:101C4000BC01CD010E94C800DC01CB01898381E089
:101C500090E0A0E0B0E08093410290934202A09314
:101C60004302B09344028981819580934002E4E469
:101C7000F0E08091400280837FC06E857F858889F7
:101C800099890E9492067B018C016A857B858C85EF
:101C90009D8520E030E04AE754E40E947404DC01B2
:101CA000CB019C01AD01C801B7010E947404DC01A5
:101CB000CB018E839F83A887B9876E857F858889AE
:101CC00099890E9492067B018C016A857B858C85AF
:101CD0009D8520E030E04AE754E40E947404DC0172
:101CE000CB019C01AD01C801B7010E947404DC0165
:101CF000CB01BC01CD010E94C800DC01CB018A836D
:101D00009B83AC83BD836A817B818C819D810E9492
:101D100092069B01AC016E817F81888599850E9426
:101D20001C03DC01CB01BC01CD0120E030E040E828
:101D300053E40E947A03DC01CB01BC01CD010E9477
:101D4000C800DC01CB0189838A819B81AC81BD8184
:101D50000196A11DB11D8093410290934202A09370
:101D60004302B09344028981819580934002E4E468
:101D7000F0E0809140028083E8E5F0E08081829588
:101D8000869586958370882F90E08170907000977B
:101D900021F480914502882379F361960FB6F89477
:101DA000DEBF0FBECDBFCF91DF911F910F91FF908E
:101DB000EF900895DF93CF9300D0CDB7DEB79A832D
:101DC000898389819A8190932D0280932C020F90B0
:101DD0000F90CF91DF910895DF93CF93CDB7DEB70A
:101DE000A5E4B0E0E5E4F0E0808180648C93A5E4B4
:101DF000B0E0E5E4F0E0808188608C93A5E4B0E099
:101E0000E5E4F0E080818F7E8C93A5E4B0E0E5E42A
:101E1000F0E0808180628C93A5E4B0E0E5E4F0E03E
:101E20008081887F86608C93CF91DF910895DF93C6
:101E3000CF930F92CDB7DEB78983E3E4F0E08981D9
:101E400080830F90CF91DF9108951F920F920FB66C
:101E50000F9211242F933F934F935F936F937F9330
:101E60008F939F93AF93BF93EF93FF93DF93CF93A2
:101E7000CDB7DEB78091380290913902A0913A0235
:101E8000B0913B020196A11DB11D80933802909341
:101E90003902A0933A02B0933B022091380230916C
:101EA000390240913A0250913B0280914102909157
:101EB0004202A0914302B0914402281739074A0711
:101EC0005B07D9F4109238021092390210923A024C
:101ED00010923B02E4E4F0E0809140028083809124
:101EE0002C0290912D02009729F0E0912C02F091A4
:101EF0002D02099581E080934502CF91DF91FF91FA
:101F0000EF91BF91AF919F918F917F916F915F9171
:101F10004F913F912F910F900FBE0F901F901895EA
:101F20001F920F920FB60F9211242F933F934F934E
:101F30005F936F937F938F939F93AF93BF93EF9331
:101F4000FF93DF93CF93CDB7DEB780913C029091A2
:101F50003D02A0913E02B0913F020196A11DB11D2C
:101F600080933C0290933D02A0933E02B0933F02C7
:101F700020913C0230913D0240913E0250913F023F
:101F80008091410290914202A0914302B09144029B
:101F9000281739074A075B07B9F480912E02909100
:101FA0002F02009729F0E0912E02F0912F0209955F
:101FB00010923C0210923D0210923E0210923F029B
:101FC00081E0809345023AC08091410290914202A3
:101FD000A0914302B09144029C01AD0121503040D8
:101FE0004040504080913C0290913D02A0913E02C1
:101FF000B0913F02281739074A075B0731F4E3E441
:10200000F0E080914002808319C020913C02309121
:102010003D0240913E0250913F02809141029091D9
:102020004202A0914302B0914402281739074A079F
:102030005B0721F0E3E4F0E08FEF8083CF91DF9145
:10204000FF91EF91BF91AF919F918F917F916F9190
:102050005F914F913F912F910F900FBE0F901F9066
:102060001895DF93CF93CDB7DEB7ABE5B0E0EBE5E6
:10207000F0E0808180648C93A5E5B0E0E5E5F0E0D8
:10208000808181608C93A5E5B0E0E5E5F0E080819A
:102090008D7F8C93ABE5B0E0EBE5F0E0808180686C
:1020A0008C93A5E5B0E0E5E5F0E0808184608C9359
:1020B000A5E5B0E0E5E5F0E08081877F8C93CF91E6
:1020C000DF910895DF93CF93CDB7DEB7AFE5B0E0F2
:1020D000EFE5F0E0808180688C93CF91DF910895E7
:1020E000DF93CF9300D00F92CDB7DEB789837B8388
:1020F0006A838981882F90E0880F991FFC01EA5B31
:10210000FD4F8A819B81918380830F900F900F9068
:10211000CF91DF9108951F920F920FB60F92112465
:102120002F933F934F935F936F937F938F939F93DF
:10213000AF93BF93EF93FF93DF93CF93CDB7DEB70A
:102140008091460290914702009729F0E091460263
:10215000F09147020995CF91DF91FF91EF91BF91E7
:10216000AF919F918F917F916F915F914F913F912F
:102170002F910F900FBE0F901F9018951F920F92E6
:102180000FB60F9211242F933F934F935F936F934A
:102190007F938F939F93AF93BF93EF93FF93DF93BF
:1021A000CF93CDB7DEB78091480290914902009756
:1021B00029F0E0914802F09149020995CF91DF9111
:1021C000FF91EF91BF91AF919F918F917F916F910F
:1021D0005F914F913F912F910F900FBE0F901F90E5
:1021E00018951F920F920FB60F9211242F933F93C1
:1021F0004F935F936F937F938F939F93AF93BF930F
:10220000EF93FF93DF93CF93CDB7DEB780914A0270
:1022100090914B02009729F0E0914A02F0914B0215
:102220000995CF91DF91FF91EF91BF91AF919F9170
:102230008F917F916F915F914F913F912F910F906F
:102240000FBE0F901F901895DF93CF93CDB7DEB7D9
:1022500027970FB6F894DEBF0FBECDBF89836A8380
:102260004B838B81882309F074C08981282F30E04B
:102270003F832E838E819F818130910559F12E817C
:102280003F81223031052CF48E819F81009769F0C7
:10229000D2C02E813F812230310589F18E819F810C
:1022A0008330910509F440C0C6C0AAE3B0E0EAE378
:1022B000F0E08081482F8A81282F30E081E090E093
:1022C000022E02C0880F991F0A94E2F7809584239A
:1022D0008C93B1C0A7E3B0E0E7E3F0E08081482F42
:1022E0008A81282F30E081E090E0022E02C0880F22
:1022F000991F0A94E2F7809584238C939CC0A4E3F1
:10230000B0E0E4E3F0E08081482F8A81282F30E0BC
:1023100081E090E0022E02C0880F991F0A94E2F734
:10232000809584238C9387C0A1E3B0E0E1E3F0E0E3
:102330008081482F8A81282F30E081E090E0022EB2
:1023400002C0880F991F0A94E2F7809584238C932A
:1023500072C08B81813009F06EC08981282F30E0F6
:102360003D832C838C819D818130910549F12C81A5
:102370003D81223031052CF48C819D81009761F0E4
:102380005AC02C813D812230310571F18C819D81B3
:1023900083309105E9F14FC0AAE3B0E0EAE3F0E051
:1023A0008081482F8A81282F30E081E090E0022E42
:1023B00002C0880F991F0A94E2F7842B8C933BC0CC
:1023C000A7E3B0E0E7E3F0E08081482F8A81282F7F
:1023D00030E081E090E0022E02C0880F991F0A943D
:1023E000E2F7842B8C9327C0A4E3B0E0E4E3F0E0B1
:1023F0008081482F8A81282F30E081E090E0022EF2
:1024000002C0880F991F0A94E2F7842B8C9313C0A3
:10241000A1E3B0E0E1E3F0E08081482F8A81282F3A
:1024200030E081E090E0022E02C0880F991F0A94EC
:10243000E2F7842B8C9327960FB6F894DEBF0FBE7D
:10244000CDBFCF91DF910895DF93CF93CDB7DEB7A6
:1024500027970FB6F894DEBF0FBECDBF89836A837E
:102460004B838B81882309F074C08981282F30E049
:102470003F832E838E819F818130910559F12E817A
:102480003F81223031052CF48E819F81009769F0C5
:10249000D2C02E813F812230310589F18E819F810A
:1024A0008330910509F440C0C6C0ABE3B0E0EBE374
:1024B000F0E08081482F8A81282F30E081E090E091
:1024C000022E02C0880F991F0A94E2F78095842398
:1024D0008C93B1C0A8E3B0E0E8E3F0E08081482F3E
:1024E0008A81282F30E081E090E0022E02C0880F20
:1024F000991F0A94E2F7809584238C939CC0A5E3EE
:10250000B0E0E5E3F0E08081482F8A81282F30E0B9
:1025100081E090E0022E02C0880F991F0A94E2F732
:10252000809584238C9387C0A2E3B0E0E2E3F0E0DF
:102530008081482F8A81282F30E081E090E0022EB0
:1025400002C0880F991F0A94E2F7809584238C9328
:1025500072C08B81813009F06EC08981282F30E0F4
:102560003D832C838C819D818130910549F12C81A3
:102570003D81223031052CF48C819D81009761F0E2
:102580005AC02C813D812230310571F18C819D81B1
:1025900083309105E9F14FC0ABE3B0E0EBE3F0E04D
:1025A0008081482F8A81282F30E081E090E0022E40
:1025B00002C0880F991F0A94E2F7842B8C933BC0CA
:1025C000A8E3B0E0E8E3F0E08081482F8A81282F7B
:1025D00030E081E090E0022E02C0880F991F0A943B
:1025E000E2F7842B8C9327C0A5E3B0E0E5E3F0E0AD
:1025F0008081482F8A81282F30E081E090E0022EF0
:1026000002C0880F991F0A94E2F7842B8C9313C0A1
:10261000A2E3B0E0E2E3F0E08081482F8A81282F36
:1026200030E081E090E0022E02C0880F991F0A94EA
:10263000E2F7842B8C9327960FB6F894DEBF0FBE7B
:10264000CDBFCF91DF910895DF93CF9300D000D01D
:1026500000D0CDB7DEB789836A838981282F30E027
:102660003D832C834C815D814130510549F18C8142
:102670009D818230910534F42C813D8121153105F5
:1026800061F057C04C815D814230510561F18C8110
:102690009D8183309105D1F14CC0E9E3F0E0808168
:1026A000282F30E08A81882F90E0A90102C055953B
:1026B00047958A95E2F7CA01582F51705B833AC05B
:1026C000E6E3F0E08081282F30E08A81882F90E0D7
:1026D000A90102C0559547958A95E2F7CA01582F7E
:1026E00051705B8327C0E3E3F0E08081282F30E066
:1026F0008A81882F90E0A90102C0559547958A9557
:10270000E2F7CA01582F51705B8314C0E0E3F0E098
:102710008081282F30E08A81882F90E0A90102C0B3
:10272000559547958A95E2F7CA01582F51705B83FA
:1027300001C002C08B818E838E8126960FB6F894DD
:10274000DEBF0FBECDBFCF91DF910895DF93CF9352
:1027500000D000D0CDB7DEB789836A838981282F66
:1027600030E03C832B838B819C8181309105D1F0BB
:102770002B813C81223031052CF48B819C81009788
:1027800061F01EC02B813C812230310581F08B81AC
:102790009C818330910581F013C0EAE3F0E08A81E7
:1027A00080830EC0E7E3F0E08A81808309C0E4E320
:1027B000F0E08A81808304C0E1E3F0E08A818083D5
:1027C0000F900F900F900F90CF91DF910895DF93AE
:1027D000CF9300D000D0CDB7DEB789836A838981DB
:1027E000282F30E03C832B838B819C8181309105A5
:1027F000D1F02B813C81223031052CF48B819C81DE
:10280000009761F01EC02B813C812230310581F0A0
:102810008B819C818330910581F013C0EBE3F0E064
:102820008A8180830EC0E8E3F0E08A81808309C05A
:10283000E5E3F0E08A81808304C0E2E3F0E08A818E
:1028400080830F900F900F900F90CF91DF9108959C
:10285000DF93CF9300D000D0CDB7DEB789836A83F2
:102860008981282F30E03C832B838B819C818130B0
:10287000910549F12B813C81223031052CF48B816B
:102880009C81009761F05AC02B813C812230310538
:1028900071F18B819C8183309105E9F14FC0ABE3ED
:1028A000B0E0EBE3F0E08081482F8A81282F30E010
:1028B00081E090E0022E02C0880F991F0A94E2F78F
:1028C00084278C933BC0A8E3B0E0E8E3F0E080818C
:1028D000482F8A81282F30E081E090E0022E02C04C
:1028E000880F991F0A94E2F784278C9327C0A5E3E9
:1028F000B0E0E5E3F0E08081482F8A81282F30E0C6
:1029000081E090E0022E02C0880F991F0A94E2F73E
:1029100084278C9313C0A2E3B0E0E2E3F0E080816F
:10292000482F8A81282F30E081E090E0022E02C0FB
:10293000880F991F0A94E2F784278C930F900F90C9
:102940000F900F90CF91DF910895DF93CF93CDB784
:10295000DEB7A7E2B0E0E7E2F0E0808180688C9328
:10296000A7E2B0E0E7E2F0E0808180648C93A7E228
:10297000B0E0E7E2F0E080818F7D8C93A6E2B0E0EA
:10298000E6E2F0E080818F7D8C93A6E2B0E0E6E2A3
:10299000F0E0808184608C93A6E2B0E0E6E2F0E0B3
:1029A000808182608C93A6E2B0E0E6E2F0E0808174
:1029B0008E7F8C93A6E2B0E0E6E2F0E08081806852
:1029C0008C93CF91DF910895DF93CF9300D00F9236
:1029D000CDB7DEB78B8310925A0210925902A7E24C
:1029E000B0E0E7E2F0E08081807E8C93A7E2B0E087
:1029F000E7E2F0E090818B81892B8C93A6E2B0E036
:102A0000E6E2F0E0808180648C93E6E2F0E0808191
:102A100082958F70882F90E081709070009731F4CC
:102A20008091590290915A02009779F3A6E2B0E0A2
:102A3000E6E2F0E0808180618C93E4E2F0E0808166
:102A400091819A83898389819A810F900F900F9049
:102A5000CF91DF910895DF93CF93CDB7DEB7A6E294
:102A6000B0E0E6E2F0E0808188608C93CF91DF9166
:102A70000895DF93CF93CDB7DEB7E6E2F0E0808133
:102A800082958F70882F90E0817090700097A9F3E5
:102A9000A6E2B0E0E6E2F0E0808180618C93CF9125
:102AA000DF910895DF93CF9300D0CDB7DEB79A833F
:102AB000898389819A8190934D0280934C020F9073
:102AC0000F90CF91DF910895DF93CF9300D000D086
:102AD000CDB7DEB79A838983E0914C02F0914D0225
:102AE00009950F900F900F900F90CF91DF9108955F
:102AF000DF93CF93CDB7DEB7AFE4B0E0EFE4F0E023
:102B000080818E7F8C93AFE4B0E0EFE4F0E08081D1
:102B100082608C93AEE4B0E0EEE4F0E08081886007
:102B20008C93AEE4B0E0EEE4F0E0808180618C93C1
:102B3000AFE4B0E0EFE4F0E080818F7B8C93AFE412
:102B4000B0E0EFE4F0E0808180688C93E6E4F0E0B0
:102B50008FE19EE491838083AEE4B0E0EEE4F0E0A8
:102B600080818E7F8C93AEE4B0E0EEE4F0E0808173
:102B700082608C93AEE4B0E0EEE4F0E080818B7F85
:102B80008C9383E065E041E00E942411CF91DF91B6
:102B90000895DF93CF930F92CDB7DEB78983EAE430
:102BA000F0E08981282F30E082E390E0AC01249F9F
:102BB000C001259F900D349F900D1124815E9C4D86
:102BC00029E030E0B9010E94C923CB0191838083C1
:102BD0000F90CF91DF910895DF93CF9300D00F92A4
:102BE000CDB7DEB71B8287E090E0909353028093CD
:102BF000520282E00E94E4149A83898389819A8137
:102C0000CC01A0E0B0E0BC01CD010E949206DC0145
:102C1000CB01BC01CD0120E030E040E85EE30E9442
:102C20007A03DC01CB01BC01CD010E94C800DC01AC
:102C3000CB018B838B810F900F900F90CF91DF9101
:102C400008952F923F924F925F926F927F928F9250
:102C50009F92AF92BF92CF92DF92EF92FF920F932B
:102C60001F93DF93CF93CDB7DEB7C255D0400FB6D9
:102C7000F894DEBF0FBECDBF1A82198288E090E0C3
:102C8000909353028093520283E00E94E4149A834B
:102C9000898389819A818C0120E030E040E050E016
:102CA00060E070E00D831E832F83388749875A8741
:102CB0006B877C87AD80BE80CF80D884E984FA841E
:102CC0000B851C852A2D3B2D4C2D5D2D6E2D7F2DCA
:102CD000802F912F02E00E9449002D873E874F8769
:102CE000588B698B7A8B8B8B9C8B2D853E854F8582
:102CF000588969897A898B899C8905E00E944900F5
:102D00002D8B3E8B4F8B588F698F7A8F8B8F9C8F3B
:102D10001D892D85121B1D8F31E03DA34D8D5D89D1
:102D2000541708F01DA26E897E85671B6E8F81E0A7
:102D30008EA39E8D0E89091708F01EA21E8D2DA14F
:102D4000121B1FA331E038A74FA15E8D541708F066
:102D500018A66EA178A5672B6EA38FA18E8F9F8971
:102D60000F85901B9F8F11E019A72F8D3F89321778
:102D700008F019A64F8D5EA1451B4AA761E06BA71D
:102D80007AA58F8D871708F01BA699A50BA5902B08
:102D900099A71AA51F8F288D3889231B28A341E0E6
:102DA0004CA758A1688D651708F01CA678A189A5C5
:102DB000781B7DA791E09EA70DA518A1101708F01C
:102DC0001EA62CA53EA5232B2CA74DA548A3598DA7
:102DD0006989561B59A371E07FA789A1998D98171E
:102DE00008F01FA609A11CA5011B08AB21E029AB17
:102DF00038A949A1431708F019AA5FA569A9562B5C
:102E00005FA778A979A38A8D9A89891B8AA301E093
:102E10000AAB1AA12A8D211708F01AAA3AA14FA5C8
:102E2000341B3BAB51E05CAB6BA97AA1761708F081
:102E30001CAA8AA99CA9892B8AAB0BA90AA31B8D62
:102E40002B89121B1BA331E03DAB4BA15B8D5417AB
:102E500008F01DAA6BA17AA9671B6EAB81E08FAB4E
:102E60009EA90BA1091708F01FAA1DA92FA9122BB3
:102E70001DAB3EA93BA34C8D5C89451B4CA38CA18B
:102E80006DA9861B8CA37D8D7D8B8E8D8E8B9F8DEA
:102E90009F8B08A1088F19A1198F2AA12A8F3BA106
:102EA0003B8F4CA14C8F5D896D81560F58AF71E0FF
:102EB00021967FAF219788AD9D89891718F02196BB
:102EC0001FAE21970E891E81010F09AF21E02296C6
:102ED0002FAF229739AD4E89341718F022961FAEC6
:102EE000229721965FAD219769AD560F23965FAF6C
:102EF000239771E024967FAF249723968FAD239775
:102F000099AD891718F024961FAE249722960FAD1D
:102F1000229724961FAD2497012B22960FAF22975C
:102F200023962FAD239729AF3F894F81340F3AAFB6
:102F300051E025965FAF25976AAD7F89671718F036
:102F400025961FAE259722968FAD22979AAD890FB1
:102F500026968FAF269701E027960FAF27972696E4
:102F60001FAD26972AAD121718F027961FAE279788
:102F700025963FAD259727964FAD2797342B25965D
:102F80003FAF259726965FAD26975AAF688D788517
:102F9000670F6BAF81E028968FAF28979BAD088DA8
:102FA000901718F028961FAE289725961FAD2597E5
:102FB0002BAD120F29961FAF299731E02A963FAF0C
:102FC0002A9729964FAD29975BAD451718F02A9699
:102FD0001FAE2A9728966FAD28972A967FAD2A971D
:102FE000672B28966FAF289729968FAD29978BAFBF
:102FF000998D0985900F9CAF11E02B961FAF2B97F1
:103000002CAD398D231718F02B961FAE2B972896D1
:103010004FAD28975CAD450F2C964FAF2C9761E0D4
:103020002D966FAF2D972C967FAD2C978CAD781782
:1030300018F02D961FAE2D972B969FAD2B972D96A2
:103040000FAD2D97902B2B969FAF2B972C961FADE6
:103050002C971CAF2A8D3A85230F2DAF41E02E9679
:103060004FAF2E975DAD6A8D561718F02E961FAE96
:103070002E972B967FAD2B978DAD780F2F967FAF28
:103080002F9791E060969FAF60972F960FAD2F9787
:103090001DAD011718F060961FAE60972E962FADEC
:1030A0002E9760963FAD6097232B2E962FAF2E97CD
:1030B0002F964FAD2F974DAF5B8D6B85560F5EAF43
:1030C00071E061967FAF61978EAD9B8D891718F087
:1030D00061961FAE61972E960FAD2E971EAD010F14
:1030E00062960FAF629721E063962FAF6397629667
:1030F0003FAD62974EAD341718F063961FAE6397DD
:1031000061965FAD619763966FAD6397562B61963D
:103110005FAF619762967FAD62977EAF8C8D9C8525
:10312000890F8FAF61968FAD61970FAD800F8FAF15
:1031300018AD1D8B29AD2E8B3AAD3F8B4BAD488F13
:103140005CAD598F6DAD6A8F7EAD7B8F8FAD8C8FEF
:103150002D893E894F89588D698D7A8D8B8D9C8DF7
:1031600003E00E944900222E332E442E552E662E57
:10317000772E882E992EA22CB32CC42CD52CE62C7D
:10318000F72C082D192D2A2D3B2D4C2D5D2D6E2D44
:103190007F2D802F912F0E94F400DC01CB01BC0118
:1031A000CD012AE037ED43E250E40E947A03DC01CE
:1031B000CB01BC01CD0120E030ED4FE355E40E948E
:1031C0007404DC01CB01BC01CD010E94C800DC010C
:1031D000CB019C838B838B819C81CE5ADF4F0FB6B2
:1031E000F894DEBF0FBECDBFCF91DF911F910F913D
:1031F000FF90EF90DF90CF90BF90AF909F908F9017
:103200007F906F905F904F903F902F900895DF9345
:10321000CF93CDB7DEB7E8970FB6F894DEBF0FBEF9
:10322000CDBF82E06FEF0E94A61383E060E041E033
:103230000E94241183E061E041E00E94241183E0B8
:1032400062E041E00E94241180E090E0A0EFB1E450
:103250008DAB9EABAFABB8AF6DA97EA98FA998AD72
:1032600020E030E04AEF54E40E947A03DC01CB0115
:1032700089AB9AABABABBCAB69A97AA98BA99CA96A
:1032800020E030E040E85FE30E94800588232CF4D2
:1032900081E090E098AB8FA73FC069A97AA98BA97C
:1032A0009CA920E03FEF4FE757E40E942005181645
:1032B0004CF56DA97EA98FA998AD20E030E040E2E1
:1032C00051E40E947A03DC01CB01BC01CD010E94D4
:1032D000C800DC01CB0198AB8FA70FC088EC90E051
:1032E0009EA78DA78DA59EA50197F1F79EA78DA7F7
:1032F0008FA598A9019798AB8FA78FA598A900973C
:1033000069F714C069A97AA98BA99CA90E94C80071
:10331000DC01CB0198AB8FA78FA598A99CA78BA7A1
:103320008BA59CA50197F1F79CA78BA788E30E942A
:10333000FE1A80E090E0A0E8BFE38FA398A7A9A7BA
:10334000BAA76FA178A589A59AA520E030E04AEF39
:1033500054E40E947A03DC01CB018BA39CA3ADA3B0
:10336000BEA36BA17CA18DA19EA120E030E040E82E
:103370005FE30E94800588232CF481E090E09AA30B
:1033800089A33FC06BA17CA18DA19EA120E03FEF4E
:103390004FE757E40E94200518164CF56FA178A559
:1033A00089A59AA520E030E040E251E40E947A032A
:1033B000DC01CB01BC01CD010E94C800DC01CB01C6
:1033C0009AA389A30FC088EC90E098A38F8F8F8D6C
:1033D00098A10197F1F798A38F8F89A19AA10197DE
:1033E0009AA389A389A19AA1009769F714C06BA138
:1033F0007CA18DA19EA10E94C800DC01CB019AA3F3
:1034000089A389A19AA19E8F8D8F8D8D9E8D019705
:10341000F1F79E8F8D8F8FE00E94FE1A80E090E082
:10342000A0E8BFE3898F9A8FAB8FBC8F698D7A8DAF
:103430008B8D9C8D20E030E04AEF54E40E947A03AB
:10344000DC01CB018D8B9E8BAF8BB88F6D897E8914
:103450008F89988D20E030E040E85FE30E9480058E
:1034600088232CF481E090E09C8B8B8B3FC06D898E
:103470007E898F89988D20E03FEF4FE757E40E94C7
:10348000200518164CF5698D7A8D8B8D9C8D20E06A
:1034900030E040E251E40E947A03DC01CB01BC0140
:1034A000CD010E94C800DC01CB019C8B8B8B0FC02F
:1034B00088EC90E09A8B898B89899A890197F1F73A
:1034C0009A8B898B8B899C8901979C8B8B8B8B89A1
:1034D0009C89009769F714C06D897E898F89988DC2
:1034E0000E94C800DC01CB019C8B8B8B8B899C8953
:1034F000988B8F878F8598890197F1F7988B8F87A5
:1035000081E00E94FE1A80E090E0A0E0B0E48B87AA
:103510009C87AD87BE876B857C858D859E8520E0E9
:1035200030E04AEF54E40E947A03DC01CB018F8340
:103530009887A987BA876F81788589859A8520E0E1
:1035400030E040E85FE30E94800588232CF481E0AE
:1035500090E09E838D833FC06F81788589859A85B1
:1035600020E03FEF4FE757E40E94200518164CF586
:103570006B857C858D859E8520E030E040E251E4BE
:103580000E947A03DC01CB01BC01CD010E94C8007E
:10359000DC01CB019E838D830FC088EC90E09C837F
:1035A0008B838B819C810197F1F79C838B838D8129
:1035B0009E8101979E838D838D819E81009769F7FF
:1035C00014C06F81788589859A850E94C800DC01C6
:1035D000CB019E838D838D819E819A83898389818E
:1035E0009A810197F1F79A838983E8960FB6F89448
:1035F000DEBF0FBECDBFCF91DF910895DF93CF9394
:10360000CDB7DEB72F970FB6F894DEBF0FBECDBF94
:103610008F8783E060E040E00E94241283E061E055
:1036200040E00E94241282E06F850E94E71383E04D
:1036300062E041E00E94241280E090E0A0E0B0E46B
:103640008B879C87AD87BE876B857C858D859E85A6
:1036500020E030E04AEF54E40E947A03DC01CB0121
:103660008F839887A987BA876F81788589859A859E
:1036700020E030E040E85FE30E94800588232CF4DE
:1036800081E090E09E838D833FC06F81788589853E
:103690009A8520E03FEF4FE757E40E942005181677
:1036A0004CF56B857C858D859E8520E030E040E281
:1036B00051E40E947A03DC01CB01BC01CD010E94E0
:1036C000C800DC01CB019E838D830FC088EC90E0A5
:1036D0009C838B838B819C810197F1F79C838B83E7
:1036E0008D819E8101979E838D838D819E81009720
:1036F00069F714C06F81788589859A850E94C80012
:10370000DC01CB019E838D838D819E819A83898389
:1037100089819A810197F1F79A83898383E062E036
:1037200040E00E9424122F960FB6F894DEBF0FBE21
:10373000CDBFCF91DF910895DF93CF93CDB7DEB7A3
:103740002F970FB6F894DEBF0FBECDBF8F8783E0F3
:1037500060E041E00E94241283E061E040E00E94CA
:10376000241282E06F850E94E71383E062E041E06B
:103770000E94241280E090E0A0E0B0E48B879C8758
:10378000AD87BE876B857C858D859E8520E030E08A
:103790004AEF54E40E947A03DC01CB018F839887BF
:1037A000A987BA876F81788589859A8520E030E07E
:1037B00040E85FE30E94800588232CF481E090E0DC
:1037C0009E838D833FC06F81788589859A8520E0AF
:1037D0003FEF4FE757E40E94200518164CF56B8524
:1037E0007C858D859E8520E030E040E251E40E949A
:1037F0007A03DC01CB01BC01CD010E94C800DC01D1
:10380000CB019E838D830FC088EC90E09C838B83DB
:103810008B819C810197F1F79C838B838D819E81A5
:1038200001979E838D838D819E81009769F714C0D7
:103830006F81788589859A850E94C800DC01CB015B
:103840009E838D838D819E819A83898389819A81CC
:103850000197F1F79A83898383E062E040E00E9458
:1038600024122F960FB6F894DEBF0FBECDBFCF91B6
:10387000DF910895DF93CF9300D00F92CDB7DEB7DD
:103880009B838A8319820EC08981282F30E08A8128
:103890009B81FC01E20FF31F80810E949C1B8981A8
:1038A0008F5F89838981282F30E08A819B81FC0189
:1038B000E20FF31F8081882339F70F900F900F904C
:1038C000CF91DF910895DF93CF9300D000D0CDB793
:1038D000DEB789836A838981282F30E03C832B837C
:1038E0008B819C818130910531F02B813C8122308C
:1038F000310531F009C08A8180580E94FE1A04C047
:103900008A8180540E94FE1A0F900F900F900F90A2
:10391000CF91DF910895DF93CF93CDB7DEB72C978A
:103920000FB6F894DEBF0FBECDBF69877A878B874D
:103930009C8781E090E0A0E0B0E08D839E83AF8320
:10394000B88719821A821B821C8289859A85AB8569
:10395000BC850097A105B105B1F480E30E949C1BD2
:103960007AC08D819E81AF81B8852AE030E040E049
:1039700050E0BC01CD010E94AA23DC01CB018D8364
:103980009E83AF83B88789859A85AB85BC852D8159
:103990003E814F815885BC01CD010E94DC23DA01B4
:1039A000C9010097A105B105E1F68D819E81AF8126
:1039B000B8852AE030E040E050E0BC01CD010E9433
:1039C000DC23DA01C9018D839E83AF83B8873AC0B7
:1039D00089859A85AB85BC852D813E814F8158852F
:1039E000BC01CD010E94DC23DA01C90189839A83DD
:1039F000AB83BC838981805D0E949C1B89859A85ED
:103A0000AB85BC852D813E814F815885BC01CD01A0
:103A10000E94DC23DC01CB0189879A87AB87BC87B6
:103A20008D819E81AF81B8852AE030E040E050E092
:103A3000BC01CD010E94DC23DA01C9018D839E8384
:103A4000AF83B8878D819E81AF81B8850097A1052E
:103A5000B10509F0BDCF2C960FB6F894DEBF0FBEAE
:103A6000CDBFCF91DF910895DF93CF93CDB7DEB770
:103A700081E06FE00E94A61381E06FEF0E94E713E0
:103A8000CF91DF910895DF93CF93CDB7DEB76197E4
:103A90000FB6F894DEBF0FBECDBF188AC4C08889A8
:103AA000882F90E0FC01E15FFD4F908181E0692F5C
:103AB00040E00E9424121F86A3C08F85882F90E0CB
:103AC000FC01ED5EFD4F908181E0692F0E9424137F
:103AD000882309F092C080E090E0A0EAB1E48B87EF
:103AE0009C87AD87BE876B857C858D859E8520E014
:103AF00030E04AEF54E40E947A03DC01CB018F836B
:103B00009887A987BA876F81788589859A8520E00B
:103B100030E040E85FE30E94800588232CF481E0D8
:103B200090E09E838D833FC06F81788589859A85DB
:103B300020E03FEF4FE757E40E94200518164CF5B0
:103B40006B857C858D859E8520E030E040E251E4E8
:103B50000E947A03DC01CB01BC01CD010E94C800A8
:103B6000DC01CB019E838D830FC088EC90E09C83A9
:103B70008B838B819C810197F1F79C838B838D8153
:103B80009E8101979E838D838D819E81009769F729
:103B900014C06F81788589859A850E94C800DC01F0
:103BA000CB019E838D838D819E819A8389838981B8
:103BB0009A810197F1F79A8389838F85882F90E006
:103BC000FC01ED5EFD4F908181E0692F0E9424137E
:103BD000882399F38889482F50E08F85282F30E07B
:103BE000CA01880F991F880F991F820F931FFC012C
:103BF000E95EFD4F8081898B1CC08F858F5F8F8729
:103C00008F85843008F459CF8889882F90E0FC0193
:103C1000E15FFD4F908181E0692F41E00E94241215
:103C200088898F5F888B8889843008F438CF8FEF3C
:103C3000898B898961960FB6F894DEBF0FBECDBF20
:103C4000CF91DF910895DF93CF93CDB7DEB783E0B7
:103C500066E041E00E94241183E067E041E00E94B9
:103C60002411CF91DF910895DF93CF93CDB7DEB7C5
:103C700083E066E041E00E94241283E067E040E0D8
:103C80000E942412CF91DF910895DF93CF93CDB797
:103C9000DEB783E066E040E00E94241283E067E044
:103CA00041E00E942412CF91DF910895DF93CF93DA
:103CB000CDB7DEB783E066E040E00E94241283E0E7
:103CC00067E040E00E942412CF91DF910895DF93D6
:103CD000CF93CDB7DEB780E060E040E00E942411D2
:103CE00080E061E040E00E94241180E060E041E07B
:103CF0000E94241280E061E041E00E94241280E0F2
:103D000065E041E00E94241180E066E041E00E940D
:103D1000241180E067E041E00E94241183E063E029
:103D200041E00E9424110E9478150E94A5140E946F
:103D30002B150E94341D0E9407190E94231ECF914B
:103D4000DF910895DF93CF93CDB7DEB72E970FB6EF
:103D5000F894DEBF0FBECDBF0E94561E80E00E94C9
:103D6000C91583E063E040E00E94241280E065E032
:103D700040E00E94241280E066E040E00E942412AD
:103D800080E067E040E00E94241210925B021092F3
:103D90005A02109250021092510281E00E94FE1AC3
:103DA00080E090E0A0E0B0E48B879C87AD87BE8781
:103DB0006B857C858D859E8520E030E04AEF54E45C
:103DC0000E947A03DC01CB018F839887A987BA8789
:103DD0006F81788589859A8520E030E040E85FE34F
:103DE0000E94800588232CF481E090E09E838D83DF
:103DF0003FC06F81788589859A8520E03FEF4FE746
:103E000057E40E94200518164CF56B857C858D853E
:103E10009E8520E030E040E251E40E947A03DC011C
:103E2000CB01BC01CD010E94C800DC01CB019E8307
:103E30008D830FC088EC90E09C838B838B819C8169
:103E40000197F1F79C838B838D819E8101979E83DF
:103E50008D838D819E81009769F714C06F8178856D
:103E600089859A850E94C800DC01CB019E838D83E1
:103E70008D819E819A83898389819A810197F1F747
:103E80009A83898381E060E00E94631C80E690E071
:103E90000E943A1C82E060E00E94631C8FE690E082
:103EA0000E943A1C04C00E94431D809355028091D9
:103EB00055028F3FC1F32E960FB6F894DEBF0FBEAA
:103EC000CDBFCF91DF910895DF93CF93CDB7DEB70C
:103ED0006C970FB6F894DEBF0FBECDBF81E00E9495
:103EE000FE1A80E090E0A0E0B0E4898F9A8FAB8F5B
:103EF000BC8F698D7A8D8B8D9C8D20E030E04AEFF0
:103F000054E40E947A03DC01CB018D8B9E8BAF8B36
:103F1000B88F6D897E898F89988D20E030E040E8E8
:103F20005FE30E94800588232CF481E090E09C8B65
:103F30008B8B3FC06D897E898F89988D20E03FEF04
:103F40004FE757E40E94200518164CF5698D7A8DCD
:103F50008B8D9C8D20E030E040E251E40E947A039A
:103F6000DC01CB01BC01CD010E94C800DC01CB010A
:103F70009C8B8B8B0FC088EC90E09A8B898B898906
:103F80009A890197F1F79A8B898B8B899C89019784
:103F90009C8B8B8B8B899C89009769F714C06D89EA
:103FA0007E898F89988D0E94C800DC01CB019C8B93
:103FB0008B8B8B899C89988B8F878F8598890197AC
:103FC000F1F7988B8F8781E060E00E94631C8DE79A
:103FD00090E00E943A1C8AE50E94C91510925B028B
:103FE00010925A02109250021092580210925702E8
:103FF00081E08093510282E060E00E94631C89E8C6
:1040000090E00E943A1C80915102882F90E0A0E03D
:10401000B0E0BC01CD010E948B1C80E090E0AAE7DB
:10402000B4E48B879C87AD87BE876B857C858D8547
:104030009E8520E030E04AEF54E40E947A03DC01E0
:10404000CB018F839887A987BA876F817885898507
:104050009A8520E030E040E85FE30E9480058823F5
:104060002CF481E090E09E838D833FC06F81788542
:1040700089859A8520E03FEF4FE757E40E942005AD
:1040800018164CF56B857C858D859E8520E030E08B
:1040900040E251E40E947A03DC01CB01BC01CD0176
:1040A0000E94C800DC01CB019E838D830FC088EC89
:1040B00090E09C838B838B819C810197F1F79C839B
:1040C0008B838D819E8101979E838D838D819E81BF
:1040D000009769F714C06F81788589859A850E9459
:1040E000C800DC01CB019E838D838D819E819A83E4
:1040F000898389819A810197F1F79A83898381E085
:1041000060E00E94631C89E990E00E943A1C6C9672
:104110000FB6F894DEBF0FBECDBFCF91DF910895EB
:10412000DF93CF93CDB7DEB79091500282E0692F35
:104130000E94631C80915502805D0E949C1B8091AF
:104140005A0290915B029C01220F331FC901880F14
:10415000991F880F991F280F391F80915502882FAA
:1041600090E0820F931F90935B0280935A0280919C
:1041700050028F5F80935002CF91DF910895DF93BB
:10418000CF93CDB7DEB780915102813009F053C093
:1041900080E060E00E942413882379F480E061E0ED
:1041A0000E942413882349F486E090E090935902FA
:1041B000809358020E94561E3EC080E060E00E943C
:1041C0002413882379F080E061E00E94241388237F
:1041D00049F483E090E090935902809358020E9442
:1041E000341E29C080E061E00E942413882379F006
:1041F00080E060E00E942413882349F484E090E08A
:1042000090935902809358020E94451E14C080E08A
:1042100060E00E942413882371F080E061E00E9436
:104220002413882341F085E090E090935902809315
:1042300058020E94561ECF91DF910895DF93CF93CD
:10424000CDB7DEB780915102813071F40E94EC1538
:10425000882F90E090935702809356020E94211677
:104260009093540280935302CF91DF910895DF938E
:10427000CF93CDB7DEB7809151028130C9F58091DF
:104280005602909157028F31910534F083E063E03C
:1042900041E00E94241205C083E063E040E00E94F8
:1042A0002412809153029091540222E089359207A2
:1042B00084F080E065E041E00E94241280E066E046
:1042C00041E00E94241280E067E041E00E94241255
:1042D0000FC080E065E040E00E94241280E066E0CC
:1042E00040E00E94241280E067E040E00E94241237
:1042F000CF91DF910895DF93CF93CDB7DEB7AA9723
:104300000FB6F894DEBF0FBECDBF10925B021092C5
:104310005A028FEF80935502109251021092500270
:104320000E94671E0E94A21E809155028F3FD1F30A
:1043300082E08093510281E00E94FE1A80E090E0CA
:10434000A0E0B0E48FA398A7A9A7BAA76FA178A50A
:1043500089A59AA520E030E04AEF54E40E947A0350
:10436000DC01CB018BA39CA3ADA3BEA36BA17CA15D
:104370008DA19EA120E030E040E85FE30E9480052F
:1043800088232CF481E090E09AA389A33FC06BA11D
:104390007CA18DA19EA120E03FEF4FE757E40E9452
:1043A000200518164CF56FA178A589A59AA520E0DF
:1043B00030E040E251E40E947A03DC01CB01BC0111
:1043C000CD010E94C800DC01CB019AA389A30FC0D4
:1043D00088EC90E098A38F8F8F8D98A10197F1F7CB
:1043E00098A38F8F89A19AA101979AA389A389A1E4
:1043F0009AA1009769F714C06BA17CA18DA19EA121
:104400000E94C800DC01CB019AA389A389A19AA1CB
:104410009E8F8D8F8D8D9E8D0197F1F79E8F8D8F45
:1044200087EA90E00E943A1C8CC10E94BF200E9443
:104430001E210E9437210E94431D809355028091C6
:1044400055028F3F09F47DC1809155028D3309F0EB
:104450000CC180915A0290915B0224E0823D920748
:1044600019F40E94641F6DC181E00E94FE1A80E071
:1044700090E0A0E0B0E4898F9A8FAB8FBC8F698DFC
:104480007A8D8B8D9C8D20E030E04AEF54E40E94C1
:104490007A03DC01CB018D8B9E8BAF8BB88F6D893E
:1044A0007E898F89988D20E030E040E85FE30E94AC
:1044B000800588232CF481E090E09C8B8B8B3FC09F
:1044C0006D897E898F89988D20E03FEF4FE757E413
:1044D0000E94200518164CF5698D7A8D8B8D9C8D68
:1044E00020E030E040E251E40E947A03DC01CB019D
:1044F000BC01CD010E94C800DC01CB019C8B8B8BE1
:104500000FC088EC90E09A8B898B89899A890197F2
:10451000F1F79A8B898B8B899C8901979C8B8B8B6C
:104520008B899C89009769F714C06D897E898F8972
:10453000988D0E94C800DC01CB019C8B8B8B8B89F2
:104540009C89988B8F878F8598890197F1F7988B35
:104550008F8781E060E00E94631C88EB90E00E94FE
:104560003A1C80E090E0AAE7B4E48B879C87AD8793
:10457000BE876B857C858D859E8520E030E04AEF87
:1045800054E40E947A03DC01CB018F839887A987CA
:10459000BA876F81788589859A8520E030E040E888
:1045A0005FE30E94800588232CF481E090E09E83E5
:1045B0008D833FC06F81788589859A8520E03FEFA4
:1045C0004FE757E40E94200518164CF56B857C8553
:1045D0008D859E8520E030E040E251E40E947A0320
:1045E000DC01CB01BC01CD010E94C800DC01CB0184
:1045F0009E838D830FC088EC90E09C838B838B819E
:104600009C810197F1F79C838B838D819E8101971B
:104610009E838D838D819E81009769F714C06F8181
:10462000788589859A850E94C800DC01CB019E832C
:104630008D838D819E819A83898389819A81019757
:10464000F1F79A83898381E00E94FE1A81E060E09D
:104650000E94631C87EC90E00E943A1C10925B025F
:1046600010925A02109250026CC08091550283340D
:1046700019F40E94A21E65C0809155028A3018F478
:104680000E9490205EC0809155028B3271F580911E
:104690005802833041F481E00E94FE1A82ED90E0DE
:1046A0000E943A1C0BC080915802843039F481E09A
:1046B0000E94FE1A8CED90E00E943A1C80915802F4
:1046C000863039F481E00E94FE1A8DEE90E00E945F
:1046D0003A1C809158028530A1F581E00E94FE1AB3
:1046E00083EF90E00E943A1C2CC0809155028D32DD
:1046F00041F581E00E94FE1A81E060E00E94631CA7
:1047000088EF90E00E943A1C80915602882F90E03A
:10471000A0E0B0E0BC01CD010E948B1C82E060E013
:104720000E94631C8FEF90E00E943A1C809153021C
:1047300090915402CC01A0E0B0E0BC01CD010E94F8
:104740008B1C80915102882309F06FCE8FEF8093EC
:104750005502E8CD629FD001739FF001829FE00D6A
:10476000F11D649FE00DF11D929FF00D839FF00DF0
:10477000749FF00D659FF00D9927729FB00DE11D9C
:10478000F91F639FB00DE11DF91FBD01CF01112479
:10479000089597FB092E07260AD077FD04D02ED066
:1047A00006D000201AF4709561957F4F0895F6F7B2
:1047B000909581959F4F0895A1E21A2EAA1BBB1BCD
:1047C000FD010DC0AA1FBB1FEE1FFF1FA217B307DD
:1047D000E407F50720F0A21BB30BE40BF50B661FF3
:1047E000771F881F991F1A9469F7609570958095B7
:1047F00090959B01AC01BD01CF010895AA1BBB1B85
:1048000051E107C0AA1FBB1FA617B70710F0A61BD0
:10481000B70B881F991F5A95A9F780959095BC01F1
:10482000CD0108952F923F924F925F926F927F92A7
:104830008F929F92AF92BF92CF92DF92EF92FF92B0
:104840000F931F93CF93DF93CDB7DEB7CA1BDB0B5C
:104850000FB6F894DEBF0FBECDBF09942A88398801
:1048600048885F846E847D848C849B84AA84B98408
:10487000C884DF80EE80FD800C811B81AA81B98114
:10488000CE0FD11D0FB6F894DEBF0FBECDBFED0128
:064890000895F894FFCF2B
:10489600456E74657220416E797468696E6700743E
:1048A6006F20456E746572205061737300446F6F9C
:1048B60072204F70656E6564005072657373204395
:1048C60020746F20657869740057656C636F6D6539
:1048D6002C205369722E005072657373203D20742C
:1048E6006F20456E7465720057726F6E6720506157
:1048F6007373776F72640054727920416761696ED1
:104906002100436C6F636B5769736500436F756E67
:10491600746572436C6F636B576973650045727299
:104926006F720053746F700054656D703A20004CBE
:10493600696768743A20000000000000000000006B
:10494600010202030303030404040404040404052B
:104956000505050505050505050505050505050600
:1049660006060606060606060606060606060606E1
:1049760006060606060606060606060606060607D0
:1049860007070707070707070707070707070707B1
:1049960007070707070707070707070707070707A1
:1049A6000707070707070707070707070707070791
:1049B6000707070707070707070707070707070880
:1049C6000808080808080808080808080808080861
:1049D6000808080808080808080808080808080851
:1049E6000808080808080808080808080808080841
:1049F6000808080808080808080808080808080831
:104A06000808080808080808080808080808080820
:104A16000808080808080808080808080808080810
:104A26000808080808080808080808080808080800
:104A360008080808080808080808080808080800F8
:104A4600010203040506070708092F0405062A01C3
:084A560002032D43003D2B007B
:00000001FF
