:100000000C942A000C9447000C9447000C94470071
:100010000C94E90D0C947E0D0C9447000C94470051
:100020000C9447000C9447000C94380A0C94CD09AA
:100030000C9447000C9447000C9447000C94470024
:100040000C9447000C9447000C9447000C94470014
:100050000C94470011241FBECFE5D8E0DEBFCDBF12
:1000600011E0A0E6B0E0E8EAF1E302C005900D92ED
:10007000A038B107D9F711E0A0E8B1E001C01D92A6
:10008000A03AB107E1F70E94F6170C94D2180C942D
:100090000000EF92FF920F931F937B018C0120E0F1
:1000A00030E040E05FE40E94F50388238CF0C80153
:1000B000B70120E030E040E05FE40E94C1010E940F
:1000C00085049B01AC01205030404040504806C0A0
:1000D000C801B7010E9485049B01AC01B901CA01A6
:1000E0001F910F91FF90EF900895A0E0B0E0EBE733
:1000F000F0E00C945618DC012B01FA019C9192302F
:1001000008F439C1EB018881823008F433C194309E
:1001100069F4843009F02FC111969C91119789815F
:10012000981709F428C1A0E6B0E025C1843009F48D
:1001300021C18230A9F4923009F01DC19A01AD01AC
:1001400088E0EA010990AE01E90109929E0181501F
:10015000C1F7E201898111969C918923818308C1AD
:10016000923009F407C112962D903C901397EB0141
:100170008A819B811496AD90BD90CD90DC901797AD
:10018000EC80FD800E811F819101281B390BB90184
:1001900037FF04C066277727621B730B6032710537
:1001A0000CF061C0121613066CF537014801062EDB
:1001B00004C096948794779467940A94D2F721E0C8
:1001C00030E040E050E004C0220F331F441F551FB1
:1001D0006A95D2F721503040404050402E213F21B7
:1001E00040235123211531054105510521F021E01E
:1001F00030E040E050E079018A01E628F72808293C
:1002000019293CC0232BD1F1260E371E350146019A
:10021000062E04C096948794779467940A94D2F734
:1002200021E030E040E050E004C0220F331F441FC3
:10023000551F6A95D2F721503040404050402A2146
:100240003B214C215D21211531054105510521F04E
:1002500021E030E040E050E059016A01A628B728CB
:10026000C828D9280BC0821593052CF01C01AA249C
:10027000BB24650103C0EE24FF24870111969C91E5
:10028000D20111968C91981709F445C0992339F041
:10029000A80197012A193B094C095D0906C0A6016E
:1002A00095012E193F09400B510B57FD08C01182D3
:1002B0003382228224833583468357831DC081E0A5
:1002C00081833382228288279927DC01821B930B4A
:1002D000A40BB50B84839583A683B7830DC0220F2F
:1002E000331F441F551F24833583468357838281E0
:1002F000938101979383828324813581468157813D
:10030000DA01C9010197A109B1098F5F9F4FAF4F72
:10031000BF4328F30BC0918333822282EA0CFB1C7B
:100320000C1D1D1DE482F5820683178383E0808304
:10033000248135814681578157FF1AC0C901AA27F8
:1003400097FDA095BA2F81709070A070B0705695EF
:10035000479537952795822B932BA42BB52B848318
:100360009583A683B7838281938101969383828349
:10037000DF0101C0D201CD01CDB7DEB7E2E10C94BF
:100380007218A0E2B0E0E7ECF1E00C946218698327
:100390007A838B839C832D833E834F835887E9E048
:1003A000EE2EF12CEC0EFD1ECE010196B7010E943F
:1003B00076068E010F5E1F4FCE010596B8010E9492
:1003C00076068A8991E089278A8BC701B801AE0138
:1003D000475E5F4F0E9475000E94A105A096E6E06F
:1003E0000C947E18A0E2B0E0E8EFF1E00C94621803
:1003F00069837A838B839C832D833E834F835887C5
:10040000F9E0EF2EF12CEC0EFD1ECE010196B701A6
:100410000E9476068E010F5E1F4FCE010596B80131
:100420000E947606C701B801AE01475E5F4F0E9489
:1004300075000E94A105A096E6E00C947E18A0E24B
:10044000B0E0E5E2F2E00C94561869837A838B837E
:100450009C832D833E834F835887CE010196BE0136
:10046000675F7F4F0E947606CE010596BE016F5EE4
:100470007F4F0E9476069985923088F08989823074
:10048000C8F0943019F4823051F404C0843029F457
:10049000923081F480E690E0C6C0923049F420E0CA
:1004A0009A858A89981321E02A87CE010996BBC0D4
:1004B000823049F420E09A858A89981321E02A8BBA
:1004C000CE014196B0C02D843E844F8458886D88FB
:1004D0007E888F88988CEE24FF248701AA24BB2471
:1004E000650140E050E060E070E0E0E0F0E0C10174
:1004F00081709070892BE9F0E60CF71C081D191D1E
:100500009A01AB012A0D3B1D4C1D5D1D80E090E062
:10051000A0E0B0E0E614F7040805190520F481E036
:1005200090E0A0E0B0E0BA01A901480F591F6A1F8E
:100530007B1FAA0CBB1CCC1CDD1C97FE08C081E0F5
:1005400090E0A0E0B0E0A82AB92ACA2ADB2A3196B6
:10055000E032F10549F0660C771C881C991C569412
:10056000479437942794C3CFFA85EA892B893C892D
:100570008B859C85280F391F2E5F3F4F17C0CA01FE
:1005800081709070892B61F016950795F794E79428
:1005900080E090E0A0E0B0E8E82AF92A0A2B1B2BC3
:1005A00076956795579547952F5F3F4F77FDE7CF36
:1005B0000CC0440F551F661F771F17FD4160EE0CDE
:1005C000FF1C001F111F21503040403090E05907A0
:1005D00090E0690790E4790760F32B8F3C8FDB0193
:1005E000CA018F779070A070B07080349105A1051A
:1005F000B10561F447FD0AC0E114F10401051105DC
:1006000029F0405C5F4F6F4F7F4F40781A8EFE1786
:1006100011F081E08A8F4D8F5E8F6F8F78A383E01A
:10062000898FCE0149960E94A105A096E2E10C9423
:100630007218A8E1B0E0EFE1F3E00C945E18698372
:100640007A838B839C832D833E834F835887B9E0C5
:10065000EB2EF12CEC0EFD1ECE010196B7010E948F
:1006600076068E010F5E1F4FCE010596B8010E94DF
:1006700076062985223008F47EC03989323010F49C
:10068000B8017CC08A859A8989278A87243011F02D
:10069000223031F4231709F06EC060E670E06EC0BE
:1006A000343039F41D861E861F86188A1C861B86E8
:1006B00004C0323021F484E08987B7015FC02B8504
:1006C0003C858B899C89281B390B3C872B87ED84C3
:1006D000FE840F851889AD88BE88CF88D88CEA142F
:1006E000FB040C051D0540F4EE0CFF1C001F111F40
:1006F000215030403C872B8720E030E040E050E044
:1007000080E090E0A0E0B0E460E070E0EA14FB0478
:100710000C051D0540F0282B392B4A2B5B2BEA18C2
:10072000FB080C091D09B695A79597958795EE0CC2
:10073000FF1C001F111F6F5F7F4F6F31710531F775
:10074000DA01C9018F779070A070B0708034910584
:10075000A105B10561F427FD0AC0E114F10401050A
:10076000110529F0205C3F4F4F4F5F4F20782D87B8
:100770003E874F87588BBE01675F7F4FCB010E943A
:10078000A1056896EAE00C947A18A8E1B0E0EBECD9
:10079000F3E00C94621869837A838B839C832D83A6
:1007A0003E834F83588789E0E82EF12CEC0EFD1E26
:1007B000CE010196B7010E9476068E010F5E1F4F93
:1007C000CE010596B8010E9476068985823040F0F8
:1007D0008989823028F0C701B8010E94EE0601C065
:1007E0008FEF6896E6E00C947E18A8E1B0E0EBEF9E
:1007F000F3E00C94621869837A838B839C832D8346
:100800003E834F83588789E0E82EF12CEC0EFD1EC5
:10081000CE010196B7010E9476068E010F5E1F4F32
:10082000CE010596B8010E9476068985823040F097
:100830008989823028F0C701B8010E94EE0601C004
:100840008FEF6896E6E00C947E18A8E1B0E0EBE24A
:10085000F4E00C94621869837A838B839C832D83E4
:100860003E834F83588789E0E82EF12CEC0EFD1E65
:10087000CE010196B7010E9476068E010F5E1F4FD2
:10088000CE010596B8010E9476068985823040F037
:100890008989823028F0C701B8010E94EE0601C0A4
:1008A00081E06896E6E00C947E18A8E1B0E0EBE504
:1008B000F4E00C94621869837A838B839C832D8384
:1008C0003E834F83588789E0E82EF12CEC0EFD1E05
:1008D000CE010196B7010E9476068E010F5E1F4F72
:1008E000CE010596B8010E9476068985823040F0D7
:1008F0008989823028F0C701B8010E94EE0601C044
:1009000081E06896E6E00C947E18ACE0B0E0EBE89D
:10091000F4E00C94661869837A838B839C83CE0100
:100920000196BE016B5F7F4F0E9476068D818230FB
:1009300061F1823050F1843021F48E81882351F1AD
:100940002EC02F81388537FD20C06E812F313105B3
:100950001CF06623F9F023C08EE190E0821B930B1C
:1009600029853A854B855C8504C056954795379512
:1009700027958A95D2F76623B1F05095409530952A
:1009800021953F4F4F4F5F4F0EC020E030E040E0D9
:1009900050E009C02FEF3FEF4FEF5FE704C020E0CA
:1009A00030E040E050E8B901CA012C96E2E00C9436
:1009B0008218A8E0B0E0EFEDF4E00C945E187B0143
:1009C0008C01611571058105910519F482E0898317
:1009D00060C083E089838EE1C82ED12CDC82CB827B
:1009E000ED82FE820F831887C801B7010E9452056D
:1009F000FC013197F7FF3BC0222733272E1B3F0B0B
:100A000057016801022E04C0D694C794B794A794E6
:100A10000A94D2F740E050E060E070E081E090E0BE
:100A2000A0E0B0E004C0880F991FAA1FBB1F2A9541
:100A3000D2F70197A109B1098E219F21A023B123EB
:100A40000097A105B10521F041E050E060E070E0C1
:100A50004A295B296C297D294D835E836F837887C2
:100A60008EE190E08E1B9F0B9C838B8312C030978E
:100A700081F00E2E04C0EE0CFF1C001F111F0A9403
:100A8000D2F7ED82FE820F831887CE1ADF0ADC824E
:100A9000CB821A82CE0101960E94A1052896EAE037
:100AA0000C947A18EF92FF920F931F937B018C01A5
:100AB00080E0E81680E0F80681E0080780E018078B
:100AC00088F48FEFE816F1040105110531F028F0E4
:100AD00088E090E0A0E0B0E017C080E090E0A0E007
:100AE000B0E012C080E0E81680E0F80680E0080779
:100AF00081E0180728F088E190E0A0E0B0E004C0B1
:100B000080E190E0A0E0B0E020E230E040E050E0A2
:100B1000281B390B4A0B5B0B04C016950795F794FD
:100B2000E7948A95D2F7F701E859FF4F8081281B97
:100B3000310941095109C9011F910F91FF90EF90AF
:100B40000895DF92EF92FF920F931F93FC01E480D0
:100B5000F58006811781D1808081823048F480E061
:100B600090E0A0E1B0E0E82AF92A0A2B1B2BA5C0EF
:100B7000843009F49FC0823021F4EE24FF248701E1
:100B800005C0E114F1040105110519F4E0E0F0E0FD
:100B900096C0628173819FEF623879070CF05BC069
:100BA00022E83FEF261B370B2A3131052CF020E0DD
:100BB00030E040E050E02AC0B801A701022E04C096
:100BC00076956795579547950A94D2F781E090E01E
:100BD000A0E0B0E004C0880F991FAA1FBB1F2A9590
:100BE000D2F70197A109B1098E219F21A023B1233A
:100BF0000097A105B10521F081E090E0A0E0B0E010
:100C00009A01AB01282B392B4A2B5B2BDA01C90146
:100C10008F779070A070B07080349105A105B105F8
:100C200039F427FF09C0205C3F4F4F4F5F4F04C08E
:100C3000215C3F4F4F4F5F4FE0E0F0E02030A0E0FD
:100C40003A07A0E04A07A0E45A0710F0E1E0F0E01C
:100C500079018A0127C06038710564F5FB01E1580C
:100C6000FF4FD801C7018F779070A070B0708034AB
:100C70009105A105B10539F4E7FE0DC080E490E0CF
:100C8000A0E0B0E004C08FE390E0A0E0B0E0E80EA8
:100C9000F91E0A1F1B1F17FF05C016950795F7942D
:100CA000E794319687E016950795F794E7948A952F
:100CB000D1F705C0EE24FF248701EFEFF0E06E2F9F
:100CC000679566276795902F9F77D794DD24D794F3
:100CD0008E2F8695492F462B582F5D29B701CA01C3
:100CE0001F910F91FF90EF90DF900895FC01DB01C1
:100CF000408151812281622F6F7770E0221F22276D
:100D0000221F9381892F880F822B282F30E0991F73
:100D10009927991F11969C93119721153105A9F5D3
:100D2000411551056105710511F482E037C082E873
:100D30009FEF13969C938E9312979A01AB0167E0F5
:100D4000220F331F441F551F6A95D1F783E08C9300
:100D50000DC0220F331F441F551F12968D919C9179
:100D60001397019713969C938E931297203080E0EF
:100D7000380780E0480780E4580758F314962D930D
:100D80003D934D935C93179708952F3F310579F468
:100D9000411551056105710519F484E08C9308959E
:100DA00064FF03C081E08C9312C01C9210C02F57C7
:100DB000304013963C932E93129783E08C9387E0F8
:100DC000440F551F661F771F8A95D1F770641496DC
:100DD0004D935D936D937C93179708951F93DC015A
:100DE000FB019C91923008F447C08081823008F466
:100DF00043C0943051F411961C91843099F581814F
:100E0000682F70E0611B71093FC0843021F092307F
:100E100031F48230B9F18181882389F12DC0119696
:100E20001C9111978230F1F081811817D9F4129634
:100E30002D913C911397828193818217930794F0AF
:100E400028173907BCF014968D919D910D90BC9197
:100E5000A02D2481358146815781281739074A07FB
:100E60005B0718F4112341F00AC082179307A40707
:100E7000B50740F4112319F061E070E005C06FEF91
:100E80007FEF02C060E070E0CB011F910895DF9317
:100E9000CF9300D00F92CDB7DEB780E88B8383E38A
:100EA00090E09A838983E9E2F0E089818083E0E43D
:100EB000F0E089819A81892F99278083AAE2B0E0A6
:100EC000EAE2F0E080818F778C93AAE2B0E0EAE278
:100ED000F0E080818F7B8C93AAE2B0E0EAE2F0E060
:100EE00080818F7D8C93ABE2B0E0EBE2F0E080811B
:100EF0008D7F8C93ABE2B0E0EBE2F0E080818E7FFF
:100F00008C93AAE2B0E0EAE2F0E0808188608C9302
:100F1000AAE2B0E0EAE2F0E0808180618C938B810C
:100F200086608B83AAE2B0E0EAE2F0E080818B7F0A
:100F30008C938B818F7B8B838B818F7E8B838B813B
:100F40008F7D8B838B8188608B83E0E4F0E08B81E5
:100F500080830F900F900F90CF91DF910895DF93D2
:100F6000CF930F92CDB7DEB78983EBE2F0E08081BB
:100F7000829586958770882F90E081709070009799
:100F8000A1F3ECE2F0E0898180830F90CF91DF91B3
:100F90000895DF93CF93CDB7DEB7EBE2F0E0808129
:100FA0008823DCF7ECE2F0E08081CF91DF910895B7
:100FB000DF93CF93CDB7DEB7A3E5B0E0E3E5F0E094
:100FC00080818F7B8C93A3E5B0E0E3E5F0E0808146
:100FD000877F8C93A9E5B0E0E9E5F0E0808181604E
:100FE0008C93A3E5B0E0E3E5F0E08081887F846046
:100FF0008C93CF91DF910895EF92FF920F931F93FF
:10100000DF93CF93CDB7DEB761970FB6F894DEBF0D
:101010000FBECDBF6E877F87888B998B10929D0105
:101020000E94D80780E090E0A0E0BEE38A879B871B
:10103000AC87BD876A857B858C859D8520E030E007
:1010400040E853E40E941F02DC01CB01BC01CD014A
:1010500020E030E040E853E40E941F02DC01CB01B5
:101060008A879B87AC87BD878E859F85A889B9892C
:1010700028EE33E040E050E0BC01CD010E9415189D
:10108000DC01CB01BC01CD010E94D904DC01CB0104
:10109000BC01CD012A853B854C855D850E945504A8
:1010A00018160CF449C06E857F85888999890E943D
:1010B000D9047B018C016A857B858C859D8520E028
:1010C00030E04AE754E40E941903DC01CB019C01A3
:1010D000AD01C801B7010E941903DC01CB018E8369
:1010E0009F83A887B9876E817F818885998520E055
:1010F00030E040E853E40E941F02DC01CB01BC0158
:10110000CD010E944900DC01CB01898381E090E0A0
:10111000A0E0B0E08093990190939A01A0939B0185
:10112000B0939C018981819580939801E2E5F0E07C
:101130008091980180837FC06E857F858889998999
:101140000E94D9047B018C016A857B858C859D85F5
:1011500020E030E04AE754E40E941903DC01CB01AF
:101160009C01AD01C801B7010E941903DC01CB014C
:101170008E839F83A887B9876E857F8588899989A3
:101180000E94D9047B018C016A857B858C859D85B5
:1011900020E030E04AE754E40E941903DC01CB016F
:1011A0009C01AD01C801B7010E941903DC01CB010C
:1011B000BC01CD010E944900DC01CB018A839B83E5
:1011C000AC83BD836A817B818C819D810E94D9041F
:1011D0009B01AC016E817F81888599850E94C10148
:1011E000DC01CB01BC01CD0120E030E040E853E45C
:1011F0000E941F02DC01CB01BC01CD010E9449000D
:10120000DC01CB0189838A819B81AC81BD81019600
:10121000A11DB11D8093990190939A01A0939B0108
:10122000B0939C018981819580939801E2E5F0E07B
:10123000809198018083E8E5F0E08081882F90E03C
:1012400081709070009721F480919D01882399F31B
:1012500061960FB6F894DEBF0FBECDBFCF91DF9180
:101260001F910F91FF90EF900895DF93CF9300D0DF
:10127000CDB7DEB79A83898389819A819093810162
:10128000809380010F900F90CF91DF910895DF93AD
:10129000CF93CDB7DEB7A3E5B0E0E3E5F0E0808122
:1012A0008F7B8C93A3E5B0E0E3E5F0E0808188607C
:1012B0008C93A9E5B0E0E9E5F0E0808182608C9351
:1012C000A3E5B0E0E3E5F0E08081887F84608C9363
:1012D000CF91DF910895DF93CF9300D000D00F928C
:1012E000CDB7DEB789834A835B836C837D8310929D
:1012F0009D018A819B81AC81BD81809399019093EE
:101300009A01A0939B01B0939C018A819B81AC813F
:10131000BD8181309105A105B10529F4ECE5F0E02E
:101320008981808310C08A819B81AC81BD8182309C
:101330009105A105B10538F0898180939801ECE50C
:10134000F0E08FEF80830E944709E8E5F0E08081BC
:101350008695882F90E081709070009721F480919D
:101360009D01882391F30F900F900F900F900F9095
:10137000CF91DF910895DF93CF9300D0CDB7DEB743
:101380009A83898389819A819093830180938201D2
:101390000F900F90CF91DF9108951F920F920FB68B
:1013A0000F9211242F933F934F935F936F937F93EB
:1013B0008F939F93AF93BF93EF93FF93DF93CF935D
:1013C000CDB7DEB78091880190918901A0918A0103
:1013D000B0918B010196A11DB11D8093880190935E
:1013E0008901A0938A01B0938B01209188013091EB
:1013F000890140918A0150918B01809199019091CE
:101400009A01A0919B01B0919C01281739074A07C6
:101410005B07D9F4109288011092890110928A0119
:1014200010928B01E2E5F0E0809198018083809139
:10143000800190918101009729F0E0918001F09165
:101440008101099581E080939D01CF91DF91FF910A
:10145000EF91BF91AF919F918F917F916F915F912C
:101460004F913F912F910F900FBE0F901F901895A5
:101470001F920F920FB60F9211242F933F934F9309
:101480005F936F937F938F939F93AF93BF93EF93EC
:10149000FF93DF93CF93CDB7DEB780918C0190910E
:1014A0008D01A0918E01B0918F010196A11DB11DFA
:1014B00080938C0190938D01A0938E01B0938F0146
:1014C0002091990130919A0140919B0150919C018A
:1014D00080918C0190918D01A0918E01B0918F012E
:1014E000281739074A075B07B9F480918201909168
:1014F0008301009729F0E0918201F0918301099521
:1015000010928C0110928D0110928E0110928F0119
:1015100081E080939D013AC080918C0190918D0172
:10152000A0918E01B0918F019C01AD012F5F3F4FC3
:101530004F4F5F4F8091990190919A01A0919B012B
:10154000B0919C01281739074A075B0731F4ECE595
:10155000F0E080919801808319C020919901309129
:101560009A0140919B0150919C0180918C01909136
:101570008D01A0918E01B0918F01281739074A077C
:101580005B0721F0ECE5F0E08FEF8083CF91DF91F6
:10159000FF91EF91BF91AF919F918F917F916F914B
:1015A0005F914F913F912F910F900FBE0F901F9021
:1015B0001895DF93CF93CDB7DEB7A3E5B0E0E3E5B1
:1015C000F0E0808180648C93A3E5B0E0E3E5F0E097
:1015D000808188608C93A3E5B0E0E3E5F0E0808152
:1015E00080618C93A3E5B0E0E3E5F0E08081806268
:1015F0008C93A3E5B0E0E3E5F0E08081887F846030
:101600008C93CF91DF910895DF93CF930F92CDB755
:10161000DEB78983ECE5F0E0898180830F90CF917C
:10162000DF910895DF93CF93CDB7DEB7AFE4B0E09D
:10163000EFE4F0E080818E7F8C93AFE4B0E0EFE4E4
:10164000F0E0808182608C93AEE4B0E0EEE4F0E004
:10165000808188608C93AEE4B0E0EEE4F0E08081BD
:1016600080618C93AFE4B0E0EFE4F0E080818F7BA9
:101670008C93AFE4B0E0EFE4F0E0808180688C937D
:10168000AEE4B0E0EEE4F0E08081887F81608C938E
:10169000E6E4F0E08FE19EE491838083CF91DF91D7
:1016A0000895DF93CF93CDB7DEB7A5E4B0E0E5E4CE
:1016B000F0E080818F7B8C93A5E4B0E0E5E4F0E07E
:1016C000808188608C93A9E5B0E0E9E5F0E0808155
:1016D00080688C93A5E4B0E0E5E4F0E08081887F49
:1016E00086608C93CF91DF910895DF93CF9300D0E4
:1016F00000D00F92CDB7DEB789834A835B836C83BA
:101700007D8310929D018A819B81AC81BD818093F4
:10171000990190939A01A0939B01B0939C018A81B7
:101720009B81AC81BD8181309105A105B10529F472
:10173000E3E4F0E08981808310C08A819B81AC81E1
:10174000BD8182309105A105B10538F08981809372
:101750009801E3E4F0E08FEF80830E94510BE8E50D
:10176000F0E08081882324F080919D018823B9F3E3
:101770000F900F900F900F900F90CF91DF910895E1
:10178000DF93CF9300D0CDB7DEB79A838983898169
:101790009A8190938701809386010F900F90CF914B
:1017A000DF910895DF93CF93CDB7DEB7A5E4B0E026
:1017B000E5E4F0E080818F7B8C93A5E4B0E0E5E484
:1017C000F0E08081877F8C93A9E5B0E0E9E5F0E067
:1017D000808180648C93A5E4B0E0E5E4F0E0808152
:1017E000887F86608C93CF91DF910895EF92FF926E
:1017F0000F931F93DF93CF93CDB7DEB761970FB6EB
:10180000F894DEBF0FBECDBF6E877F87888B998B24
:1018100010929D010E94D20B80E090E0A0E0BEE318
:101820008A879B87AC87BD876A857B858C859D85EC
:1018300020E030E040E853E40E941F02DC01CB01CD
:10184000BC01CD0120E030E040E853E40E941F02DB
:10185000DC01CB018A879B87AC87BD878E859F85FE
:10186000A889B98928EE33E040E050E0BC01CD0101
:101870000E941518DC01CB01BC01CD010E94D904E6
:10188000DC01CB01BC01CD012A853B854C855D8502
:101890000E94550418160CF449C06E857F8588890E
:1018A00099890E94D9047B018C016A857B858C858E
:1018B0009D8520E030E04AE754E40E941903DC01F2
:1018C000CB019C01AD01C801B7010E941903DC01E5
:1018D000CB018E839F83A887B9876E817F8188859E
:1018E000998520E030E040E853E40E941F02DC01CB
:1018F000CB01BC01CD010E944900DC01CB018983F1
:1019000081E090E0A0E0B0E08093990190939A018B
:10191000A0939B01B0939C0189818195809398014C
:10192000E4E4F0E08091980180837FC06E857F853C
:10193000888999890E94D9047B018C016A857B85FD
:101940008C859D8520E030E04AE754E40E9419032D
:10195000DC01CB019C01AD01C801B7010E94190354
:10196000DC01CB018E839F83A887B9876E857F8535
:10197000888999890E94D9047B018C016A857B85BD
:101980008C859D8520E030E04AE754E40E941903ED
:10199000DC01CB019C01AD01C801B7010E94190314
:1019A000DC01CB01BC01CD010E944900DC01CB016F
:1019B0008A839B83AC83BD836A817B818C819D817B
:1019C0000E94D9049B01AC016E817F818885998535
:1019D0000E94C101DC01CB01BC01CD0120E030E05F
:1019E00040E853E40E941F02DC01CB01BC01CD01A1
:1019F0000E944900DC01CB0189838A819B81AC81F3
:101A0000BD810196A11DB11D8093990190939A010A
:101A1000A0939B01B0939C0189818195809398014B
:101A2000E4E4F0E0809198018083E8E5F0E08081D3
:101A30008295869586958370882F90E0817090704E
:101A4000009721F480919D01882379F361960FB668
:101A5000F894DEBF0FBECDBFCF91DF911F910F91E4
:101A6000FF90EF900895DF93CF9300D0CDB7DEB70E
:101A70009A83898389819A819093850180938401D7
:101A80000F900F90CF91DF910895DF93CF93CDB753
:101A9000DEB7A5E4B0E0E5E4F0E0808180648C93FB
:101AA000A5E4B0E0E5E4F0E0808188608C93A5E4F3
:101AB000B0E0E5E4F0E080818F7E8C93A5E4B0E0B7
:101AC000E5E4F0E0808180628C93A5E4B0E0E5E499
:101AD000F0E08081887F86608C93CF91DF910895BC
:101AE000DF93CF930F92CDB7DEB78983E3E4F0E0C5
:101AF000898180830F90CF91DF9108951F920F927B
:101B00000FB60F9211242F933F934F935F936F93D0
:101B10007F938F939F93AF93BF93EF93FF93DF9345
:101B2000CF93CDB7DEB78091900190919101A091B4
:101B30009201B09193010196A11DB11D8093900176
:101B400090939101A0939201B09393012091900101
:101B500030919101409192015091930180919901AE
:101B600090919A01A0919B01B0919C01281739078F
:101B70004A075B07D9F410929001109291011092DC
:101B8000920110929301E4E4F0E080919801808347
:101B90008091840190918501009729F0E091840162
:101BA000F0918501099581E080939D01CF91DF91AE
:101BB000FF91EF91BF91AF919F918F917F916F9125
:101BC0005F914F913F912F910F900FBE0F901F90FB
:101BD00018951F920F920FB60F9211242F933F93D7
:101BE0004F935F936F937F938F939F93AF93BF9325
:101BF000EF93FF93DF93CF93CDB7DEB7809194013E
:101C000090919501A0919601B09197010196A11D27
:101C1000B11D8093940190939501A0939601B09388
:101C20009701209194013091950140919601509136
:101C300097018091990190919A01A0919B01B09197
:101C40009C01281739074A075B07B9F48091860180
:101C500090918701009729F0E0918601F09187012A
:101C6000099510929401109295011092960110928C
:101C7000970181E080939D013AC0809199019091F4
:101C80009A01A0919B01B0919C019C01AD01215052
:101C90003040404050408091940190919501A09136
:101CA0009601B0919701281739074A075B0731F46D
:101CB000E3E4F0E080919801808319C020919401C1
:101CC0003091950140919601509197018091990131
:101CD00090919A01A0919B01B0919C01281739071E
:101CE0004A075B0721F0E3E4F0E08FEF8083CF91B8
:101CF000DF91FF91EF91BF91AF919F918F917F9174
:101D00006F915F914F913F912F910F900FBE0F9068
:101D10001F901895DF93CF93CDB7DEB727970FB6F7
:101D2000F894DEBF0FBECDBF89836A834B838B815E
:101D3000813009F06FC08981282F30E03F832E83E6
:101D40008E819F818130910549F12E813F81223022
:101D500031052CF48E819F81009761F0D2C02E81D5
:101D60003F812230310571F18E819F818330910551
:101D7000E9F1C7C0AAE3B0E0EAE3F0E08081482FD0
:101D80008A81282F30E081E090E0022E02C0880F87
:101D9000991F0A94E2F7842B8C93B3C0A7E3B0E0B9
:101DA000E7E3F0E08081482F8A81282F30E081E04E
:101DB00090E0022E02C0880F991F0A94E2F7842B4C
:101DC0008C939FC0A4E3B0E0E4E3F0E08081482F6F
:101DD0008A81282F30E081E090E0022E02C0880F37
:101DE000991F0A94E2F7842B8C938BC0A1E3B0E097
:101DF000E1E3F0E08081482F8A81282F30E081E004
:101E000090E0022E02C0880F991F0A94E2F7842BFB
:101E10008C9377C08B81882309F073C08981282F28
:101E200030E03D832C838C819D818130910559F177
:101E30002C813D81223031052CF48C819D810097CD
:101E400069F05FC02C813D812230310589F18C81A0
:101E50009D818330910509F440C053C0AAE3B0E0EE
:101E6000EAE3F0E08081482F8A81282F30E081E08A
:101E700090E0022E02C0880F991F0A94E2F7809525
:101E800084238C933EC0A7E3B0E0E7E3F0E08081D9
:101E9000482F8A81282F30E081E090E0022E02C096
:101EA000880F991F0A94E2F7809584238C9329C0A8
:101EB000A4E3B0E0E4E3F0E08081482F8A81282F9A
:101EC00030E081E090E0022E02C0880F991F0A9452
:101ED000E2F7809584238C9314C0A1E3B0E0E1E3A2
:101EE000F0E08081482F8A81282F30E081E090E067
:101EF000022E02C0880F991F0A94E2F7809584236E
:101F00008C9327960FB6F894DEBF0FBECDBFCF914E
:101F1000DF910895DF93CF93CDB7DEB727970FB644
:101F2000F894DEBF0FBECDBF89836A834B838B815C
:101F3000813009F06FC08981282F30E03F832E83E4
:101F40008E819F818130910549F12E813F81223020
:101F500031052CF48E819F81009761F0D2C02E81D3
:101F60003F812230310571F18E819F81833091054F
:101F7000E9F1C7C0ABE3B0E0EBE3F0E08081482FCC
:101F80008A81282F30E081E090E0022E02C0880F85
:101F9000991F0A94E2F7842B8C93B3C0A8E3B0E0B6
:101FA000E8E3F0E08081482F8A81282F30E081E04B
:101FB00090E0022E02C0880F991F0A94E2F7842B4A
:101FC0008C939FC0A5E3B0E0E5E3F0E08081482F6B
:101FD0008A81282F30E081E090E0022E02C0880F35
:101FE000991F0A94E2F7842B8C938BC0A2E3B0E094
:101FF000E2E3F0E08081482F8A81282F30E081E001
:1020000090E0022E02C0880F991F0A94E2F7842BF9
:102010008C9377C08B81882309F073C08981282F26
:1020200030E03D832C838C819D818130910559F175
:102030002C813D81223031052CF48C819D810097CB
:1020400069F05FC02C813D812230310589F18C819E
:102050009D818330910509F440C053C0ABE3B0E0EB
:10206000EBE3F0E08081482F8A81282F30E081E087
:1020700090E0022E02C0880F991F0A94E2F7809523
:1020800084238C933EC0A8E3B0E0E8E3F0E08081D5
:10209000482F8A81282F30E081E090E0022E02C094
:1020A000880F991F0A94E2F7809584238C9329C0A6
:1020B000A5E3B0E0E5E3F0E08081482F8A81282F96
:1020C00030E081E090E0022E02C0880F991F0A9450
:1020D000E2F7809584238C9314C0A2E3B0E0E2E39E
:1020E000F0E08081482F8A81282F30E081E090E065
:1020F000022E02C0880F991F0A94E2F7809584236C
:102100008C9327960FB6F894DEBF0FBECDBFCF914C
:10211000DF910895DF93CF9300D000D00F92CDB719
:10212000DEB78A836B838A81282F30E03D832C833E
:102130004C815D814130510541F18C819D8182301E
:10214000910534F42C813D812115310561F052C097
:102150004C815D814230510551F18C819D818330EC
:102160009105B9F147C0E9E3F0E08081282F30E024
:102170008B81882F90E0A90102C0559547958A95DB
:10218000E2F7CA018170898335C0E6E3F0E080811F
:10219000282F30E08B81882F90E0A90102C055954F
:1021A00047958A95E2F7CA018170898323C0E3E3EA
:1021B000F0E08081282F30E08B81882F90E0A9010A
:1021C00002C0559547958A95E2F7CA0181708983C7
:1021D00011C0E0E3F0E08081282F30E08B81882F70
:1021E00090E0A90102C0559547958A95E2F7CA018A
:1021F0008170898389810F900F900F900F900F90BD
:10220000CF91DF910895DF93CF9300D000D0CDB769
:10221000DEB789836A838981282F30E03C832B8352
:102220008B819C818130910549F12B813C81223049
:1022300031052CF48B819C81009761F05AC02B8171
:102240003C812230310571F18B819C818330910575
:10225000E9F14FC0ABE3B0E0EBE3F0E08081482F61
:102260008A81282F30E081E090E0022E02C0880FA2
:10227000991F0A94E2F784278C933BC0A8E3B0E04F
:10228000E8E3F0E08081482F8A81282F30E081E068
:1022900090E0022E02C0880F991F0A94E2F784276B
:1022A0008C9327C0A5E3B0E0E5E3F0E08081482F00
:1022B0008A81282F30E081E090E0022E02C0880F52
:1022C000991F0A94E2F784278C9313C0A2E3B0E02D
:1022D000E2E3F0E08081482F8A81282F30E081E01E
:1022E00090E0022E02C0880F991F0A94E2F784271B
:1022F0008C930F900F900F900F90CF91DF910895D6
:10230000DF93CF9300D000D0CDB7DEB789836A8347
:102310008981282F30E03C832B838B819C81813005
:102320009105D1F02B813C81223031052CF48B8139
:102330009C81009761F01EC02B813C8122303105C9
:1023400081F08B819C818330910581F013C0EAE399
:10235000F0E08A8180830EC0E7E3F0E08A81808329
:1023600009C0E4E3F0E08A81808304C0E1E3F0E0A7
:102370008A8180830F900F900F900F90CF91DF9103
:102380000895DF93CF9300D000D0CDB7DEB7898317
:102390006A838981282F30E03C832B838B819C8149
:1023A00081309105D1F02B813C81223031052CF414
:1023B0008B819C81009761F01EC02B813C81223073
:1023C000310581F08B819C818330910581F013C0B0
:1023D000EBE3F0E08A8180830EC0E8E3F0E08A81DD
:1023E000808309C0E5E3F0E08A81808304C0E2E3F2
:1023F000F0E08A8180830F900F900F900F90CF9123
:10240000DF910895DF93CF93CDB7DEB7E8970FB68E
:10241000F894DEBF0FBECDBF82E06FEF0E94801147
:1024200083E060E041E00E948A0E83E061E041E0E9
:102430000E948A0E83E062E041E00E948A0E80E002
:1024400090E0A0EFB1E48DAB9EABAFABB8AF6DA9A0
:102450007EA98FA998AD20E030E04AEF54E40E94B5
:102460001F02DC01CB0189AB9AABABABBCAB69A95A
:102470007AA98BA99CA920E030E040E85FE30E94A4
:10248000250488232CF481E090E098AB8FA73FC00F
:1024900069A97AA98BA99CA920E03FEF4FE757E4EF
:1024A0000E94C50318164CF56DA97EA98FA998AD99
:1024B00020E030E040E251E40E941F02DC01CB0149
:1024C000BC01CD010E944900DC01CB0198AB8FA774
:1024D0000FC088EC90E09EA78DA78DA59EA50197C3
:1024E000F1F79EA78DA78FA598A9019798AB8FA705
:1024F0008FA598A9009769F714C069A97AA98BA933
:102500009CA90E944900DC01CB0198AB8FA78FA545
:1025100098A99CA78BA78BA59CA50197F1F79CA7D1
:102520008BA788E30E94FC1380E090E0A0E8BFE363
:102530008FA398A7A9A7BAA76FA178A589A59AA5DF
:1025400020E030E04AEF54E40E941F02DC01CB019E
:102550008BA39CA3ADA3BEA36BA17CA18DA19EA1C7
:1025600020E030E040E85FE30E94250488232CF45B
:1025700081E090E09AA389A33FC06BA17CA18DA1CB
:102580009EA120E03FEF4FE757E40E94C5031816D5
:102590004CF56FA178A589A59AA520E030E040E22E
:1025A00051E40E941F02DC01CB01BC01CD010E945D
:1025B0004900DC01CB019AA389A30FC088EC90E00D
:1025C00098A38F8F8F8D98A10197F1F798A38F8F84
:1025D00089A19AA101979AA389A389A19AA1009799
:1025E00069F714C06BA17CA18DA19EA10E94490036
:1025F000DC01CB019AA389A389A19AA19E8F8D8F1B
:102600008D8D9E8D0197F1F79E8F8D8F8EE00E94AC
:10261000FC1380E090E0A0E8BFE3898F9A8FAB8F36
:10262000BC8F698D7A8D8B8D9C8D20E030E04AEFD8
:1026300054E40E941F02DC01CB018D8B9E8BAF8B7B
:10264000B88F6D897E898F89988D20E030E040E8D1
:102650005FE30E94250488232CF481E090E09C8BAA
:102660008B8B3FC06D897E898F89988D20E03FEFED
:102670004FE757E40E94C50318164CF5698D7A8D13
:102680008B8D9C8D20E030E040E251E40E941F02DF
:10269000DC01CB01BC01CD010E944900DC01CB0172
:1026A0009C8B8B8B0FC088EC90E09A8B898B8989EF
:1026B0009A890197F1F79A8B898B8B899C8901976D
:1026C0009C8B8B8B8B899C89009769F714C06D89D3
:1026D0007E898F89988D0E944900DC01CB019C8BFB
:1026E0008B8B8B899C89988B8F878F859889019795
:1026F000F1F7988B8F8781E00E94FC1380E090E0D7
:10270000A0E0B0E48B879C87AD87BE876B857C8516
:102710008D859E8520E030E04AEF54E40E941F0240
:10272000DC01CB018F839887A987BA876F81788571
:1027300089859A8520E030E040E85FE30E94250427
:1027400088232CF481E090E09E838D833FC06F81CD
:10275000788589859A8520E03FEF4FE757E40E940E
:10276000C50318164CF56B857C858D859E8520E00C
:1027700030E040E251E40E941F02DC01CB01BC01C9
:10278000CD010E944900DC01CB019E838D830FC0E7
:1027900088EC90E09C838B838B819C810197F1F77F
:1027A0009C838B838D819E8101979E838D838D81F8
:1027B0009E81009769F714C06F81788589859A8515
:1027C0000E944900DC01CB019E838D838D819E8117
:1027D0009A83898389819A810197F1F79A83898302
:1027E00086E00E94FC13E8960FB6F894DEBF0FBE99
:1027F000CDBFCF91DF910895DF93CF93CDB7DEB7F3
:102800002F970FB6F894DEBF0FBECDBF8F8783E042
:1028100060E040E00E948A0F83E061E040E00E94B7
:102820008A0F82E06F850E94C11183E062E041E07F
:102830000E948A0F80E090E0A0E0B0E48B879C8744
:10284000AD87BE876B857C858D859E8520E030E0D9
:102850004AEF54E40E941F02DC01CB018F8398876A
:10286000A987BA876F81788589859A8520E030E0CD
:1028700040E85FE30E94250488232CF481E090E087
:102880009E838D833FC06F81788589859A8520E0FE
:102890003FEF4FE757E40E94C50318164CF56B85D0
:1028A0007C858D859E8520E030E040E251E40E94E9
:1028B0001F02DC01CB01BC01CD010E944900DC01FB
:1028C000CB019E838D830FC088EC90E09C838B832B
:1028D0008B819C810197F1F79C838B838D819E81F5
:1028E00001979E838D838D819E81009769F714C027
:1028F0006F81788589859A850E944900DC01CB012A
:102900009E838D838D819E819A83898389819A811B
:102910000197F1F79A83898383E062E040E00E94A7
:102920008A0F2F960FB6F894DEBF0FBECDBFCF91A2
:10293000DF910895DF93CF93CDB7DEB72F970FB612
:10294000F894DEBF0FBECDBF8F8783E060E041E02B
:102950000E948A0F83E061E040E00E948A0F82E0DB
:102960006F850E94C11183E062E041E00E948A0FFE
:1029700080E090E0A0E0B0E48B879C87AD87BE87C5
:102980006B857C858D859E8520E030E04AEF54E4A0
:102990000E941F02DC01CB018F839887A987BA8729
:1029A0006F81788589859A8520E030E040E85FE393
:1029B0000E94250488232CF481E090E09E838D837F
:1029C0003FC06F81788589859A8520E03FEF4FE78A
:1029D00057E40E94C50318164CF56B857C858D85E0
:1029E0009E8520E030E040E251E40E941F02DC01BD
:1029F000CB01BC01CD010E944900DC01CB019E83CB
:102A00008D830FC088EC90E09C838B838B819C81AD
:102A10000197F1F79C838B838D819E8101979E8323
:102A20008D838D819E81009769F714C06F817885B1
:102A300089859A850E944900DC01CB019E838D83A4
:102A40008D819E819A83898389819A810197F1F78B
:102A50009A83898383E062E040E00E948A0F2F9688
:102A60000FB6F894DEBF0FBECDBFCF91DF910895B2
:102A7000DF93CF9300D00F92CDB7DEB79B838A83CD
:102A800019820EC08981282F30E08A819B81FC0148
:102A9000E20FF31F80810E949A1489818F5F8983DE
:102AA0008981282F30E08A819B81FC01E20FF31F8E
:102AB0008081882339F70F900F900F90CF91DF918D
:102AC0000895DF93CF9300D000D0CDB7DEB78983D0
:102AD0006A838981282F30E03C832B838B819C8102
:102AE000009731F02B813C812130310531F009C054
:102AF0008A8180580E94FC1304C08A8180540E94FD
:102B0000FC130F900F900F900F90CF91DF910895CD
:102B1000DF93CF93CDB7DEB72C970FB6F894DEBF17
:102B20000FBECDBF69877A878B879C8789859A85F9
:102B3000AB85BC858A309105A105B10528F489854E
:102B4000805D0E949A1418C181E090E0A0E0B0E09E
:102B500089839A83AB83BC8329853A854B855C85C1
:102B600089819A81AB81BC8182179307A407B5073D
:102B700098F789819A81AB81BC812AE030E040E0FE
:102B800050E0BC01CD010E941518DC01CB01898306
:102B90009A83AB83BC8389819A81AB81BC812AE013
:102BA00030E040E050E0BC01CD010E9415189B01CF
:102BB000AC0189859A85AB85BC8582179307A407EC
:102BC000B50750F689859A85AB85BC858A30910515
:102BD000A105B105D0F429853A854B855C858981AD
:102BE0009A81AB81BC81281739074A075B0740F4FB
:102BF00089859A85AB85BC850097A105B10529F427
:102C00008985805D0E949A14B7C089859A85AB85B5
:102C1000BC8529813A814B815C81BC01CD010E9438
:102C20003418DA01C9018D839E83AF83B8878D8103
:102C3000805D0E949A1489859A85AB85BC8529811F
:102C40003A814B815C81BC01CD010E943418DC01CA
:102C5000CB018D839E83AF83B8872D813E814F81C9
:102C6000588589819A81AB81BC81281739074A0729
:102C70005B07A0F589819A81AB81BC812AE030E0B5
:102C800040E050E0BC01CD010E943418DA01C901D6
:102C90009C01AD018D819E81AF81B885821793071C
:102CA000A407B507D8F08D819E81AF81B88589874B
:102CB0009A87AB87BC8789819A81AB81BC812AE0E6
:102CC00030E040E050E0BC01CD010E943418DA0150
:102CD000C90189839A83AB83BC8374CF89819A812C
:102CE000AB81BC818B309105A105B10508F441C0D1
:102CF00080E30E949A148D819E81AF81B885898777
:102D00009A87AB87BC8789819A81AB81BC8124E695
:102D100030E040E050E0BC01CD010E943418DA01FF
:102D2000C90189839A83AB83BC8329853A854B8506
:102D30005C8589819A81AB81BC81281739074A0754
:102D40005B0708F03FCF80E30E949A1489819A8143
:102D5000AB81BC812AE030E040E050E0BC01CD0115
:102D60000E943418DA01C90189839A83AB83BC833A
:102D700029CF80E30E949A142C960FB6F894DEBFF8
:102D80000FBECDBFCF91DF910895DF93CF93CDB725
:102D9000DEB764970FB6F894DEBF0FBECDBF698B68
:102DA0007A8B8B8B9C8B89899A899E012F5F3F4FF1
:102DB000B9014AE050E00E948D18CE0101960E94B0
:102DC000381564960FB6F894DEBF0FBECDBFCF9115
:102DD000DF910895DF93CF93CDB7DEB781E06FE049
:102DE0000E94801181E06FEF0E94C111CF91DF91AD
:102DF0000895DF93CF93CDB7DEB764970FB6F894FD
:102E0000DEBF0FBECDBF1F861B8ADAC08B89882F1D
:102E100090E0FC01E858FE4F908181E0692F40E08E
:102E20000E948A0F1A8AB6C08A89882F90E0FC0116
:102E3000E458FE4F908181E0692F0E948A10898BAF
:102E40008989882309F0A3C080E090E0A0EAB1E47A
:102E50008B879C87AD87BE876B857C858D859E859E
:102E600020E030E04AEF54E40E941F02DC01CB0175
:102E70008F839887A987BA876F81788589859A8596
:102E800020E030E040E85FE30E94250488232CF432
:102E900081E090E09E838D833FC06F817885898536
:102EA0009A8520E03FEF4FE757E40E94C5031816CC
:102EB0004CF56B857C858D859E8520E030E040E279
:102EC00051E40E941F02DC01CB01BC01CD010E9434
:102ED0004900DC01CB019E838D830FC088EC90E01C
:102EE0009C838B838B819C810197F1F79C838B83DF
:102EF0008D819E8101979E838D838D819E81009718
:102F000069F714C06F81788589859A850E94490088
:102F1000DC01CB019E838D838D819E819A83898381
:102F200089819A810197F1F79A8389838A89882F09
:102F300090E0FC01E458FE4F908181E0692F0E94EF
:102F40008A10898B0CC08A89882F90E0FC01E45894
:102F5000FE4F908181E0692F0E948A10898B8989B8
:102F6000882389F38B89482F50E08A89282F30E005
:102F7000CA01880F991F880F991F820F931FFC01A8
:102F8000E859FE4F8081888B81E08F8707C08A894E
:102F90008F5F8A8B8A89843008F446CF8B89882F8B
:102FA00090E0FC01E858FE4F908181E0692F41E0FC
:102FB0000E948A0F8F85813039F08B898F5F8B8BD0
:102FC0008B89843008F422CF8F85813019F4888969
:102FD0008C8B02C08FEF8C8B8C8964960FB6F89423
:102FE000DEBF0FBECDBFCF91DF910895DF93CF93AA
:102FF0000F92CDB7DEB78FEF898383E060E040E0CA
:103000000E948A0E83E061E040E00E948A0E0E94E6
:10301000EA160E9447070E94F916898389818F3F2B
:10302000D1F389810E94AF07F6CF629FD001739FD1
:10303000F001829FE00DF11D649FE00DF11D929F54
:10304000F00D839FF00D749FF00D659FF00D992793
:10305000729FB00DE11DF91F639FB00DE11DF91FB7
:10306000BD01CF0111240895A1E21A2EAA1BBB1B9A
:10307000FD010DC0AA1FBB1FEE1FFF1FA217B30744
:10308000E407F50720F0A21BB30BE40BF50B661F5A
:10309000771F881F991F1A9469F76095709580951E
:1030A00090959B01AC01BD01CF0108952F923F92F5
:1030B0004F925F926F927F928F929F92AF92BF9248
:1030C000CF92DF92EF92FF920F931F93CF93DF93F4
:1030D000CDB7DEB7CA1BDB0B0FB6F894DEBF0FBE51
:1030E000CDBF09942A88398848885F846E847D849E
:1030F0008C849B84AA84B984C884DF80EE80FD80A0
:103100000C811B81AA81B981CE0FD11D0FB6F89415
:10311000DEBF0FBECDBFED010895FB019F01E89416
:103120004230C4F04532B4F44A3029F497FB1EF41F
:10313000909581959F4F642F77270E94BE18805DE0
:103140008A330CF0895D8193CB010097A1F716F4C7
:103150005DE251931082C9010C94AE18DC01FC01B0
:10316000672F71917723E1F7329704C07C916D93BB
:1031700070836291AE17BF07C8F30895AA1BBB1BEB
:1031800051E107C0AA1FBB1FA617B70710F0A61B67
:10319000B70B881F991F5A95A9F780959095BC0188
:0831A000CD010895F894FFCF62
:1031A8000000000000000000000102020303030306
:1031B80004040404040404040505050505050505BF
:1031C800050505050505050506060606060606069F
:1031D8000606060606060606060606060606060687
:1031E800060606060606060607070707070707076F
:1031F8000707070707070707070707070707070757
:103208000707070707070707070707070707070746
:103218000707070707070707070707070707070736
:10322800070707070707070708080808080808081E
:103238000808080808080808080808080808080806
:1032480008080808080808080808080808080808F6
:1032580008080808080808080808080808080808E6
:1032680008080808080808080808080808080808D6
:1032780008080808080808080808080808080808C6
:1032880008080808080808080808080808080808B6
:1032980008080808080808080808080808080808A6
:1032A80008080808080808083738392F3435362A36
:1032B8003132332D43303D2B00010203040506074C
:00000001FF
